:020000040800F2
:100000000023002049010008C51B0008C71B000889
:10001000C91B0008CB1B0008CD1B00080000000016
:10002000000000000000000000000000CF1B0008DE
:10003000D11B000800000000D31B0008D51B0008DE
:100040006301000863010008630100086301000800
:1000500063010008630100086301000863010008F0
:1000600063010008630100086301000863010008E0
:1000700063010008630100086301000863010008D0
:1000800063010008630100086301000863010008C0
:1000900063010008630100086301000863010008B0
:1000A000630100087563000863010008EF6200083F
:1000B0007F61000863010008A72C000863010008A5
:1000C0006301000863010008630100086301000880
:1000D00063010008F5340008630100083552000888
:1000E0006301000863010008630100086301000860
:1000F000BF2C0008630100086301000863010008C9
:10010000630100086301000845430008630100081B
:10011000AF350008FB5B00086301000863010008BD
:10012000630100086301000863010008630100081F
:10013000DFF810D00AF02CF800480047C11A000878
:10014000AFF30080002300200648804706480047A0
:10015000FEE7FEE7FEE7FEE7FEE7FEE7FEE7FEE777
:10016000FEE7FEE70D020008310100080CB5002291
:100170004C4800920192016841F4803101604FF4D3
:10018000A063016801F4003101910099491C0091BC
:10019000019911B900999942F3D10168890333D5C6
:1001A0000121019140490A6842F010020A600A6880
:1001B00022F003020A600A6842F002020A60416803
:1001C000416041684160416841F48061416041683B
:1001D00021F47C114160416841F4E81141600168FB
:1001E00041F08071016001688901FCD5416821F00E
:1001F00003014160416841F0020141604168C1F37F
:1002000081010229FAD10CBD01920CBD254810B51F
:10021000016841F0010101604168244A11404160D8
:100220000168234A11400160016821F480210160C6
:10023000416821F4FE0141604FF41F018160FFF726
:1002400095FF1C494FF00060086010BD154A10B5BD
:100250005068194B10F00C01184803D0042901D044
:10026000082901D0036012E05168536801F470114D
:100270004FF0020413F4803F04EB914102D0536825
:100280009B0301D50E4B00E00B4B594301605168B5
:100290000A4AC1F30311121D515C0268CA40026090
:1002A00010BD000000100240002002400000FFF8D6
:1002B000FFFFF6FE08ED00E000127A0000000020CB
:1002C00000093D002849084328490860704730B5B7
:1002D0000F23C27801780125F2B1244A126801F196
:1002E000E02102F4E062C2F5E062120AC2F1040405
:1002F000D3404278A24084781C401443220181F804
:100300000024007800F01F018D404009800000F1BA
:10031000E020C0F8005130BD01F01F0085404809C1
:10032000800000F1E020C0F8805130BD104A11403B
:1003300001430E48001F016070470C4A121D00293E
:10034000116801D0014300E08143116070474FF014
:10035000E0210428086903D020F0040008617047F8
:1003600040F00400FAE700000000FA050CED00E0A0
:1003700080FFFF1FC54910B5884202D101214415F5
:100380000AE0C349884202D10121041504E0C149B1
:1003900088420AD10121CC03204600F048FC2046C7
:1003A000BDE81040002100F042BC10BD10B542680D
:1003B000B94B0C791A400B6842EA0422134343609C
:1003C0008268B64B1A40D1E9024323434C7942EA92
:1003D000440213438360C26A097C22F47002491EFE
:1003E000C9B242EA0151C16210BD00210160017130
:1003F00041718160C16001210174704700298168E9
:1004000002D041F0010101E021F00101816070475B
:100410000029816802D041F4807101E021F48071EB
:1004200081607047002A4268C9B201D00A4300E0E7
:100430008A4342607047816841F0080181607047DB
:10044000014600208968090700D5012070478168AE
:1004500041F0040181607047014600208968490726
:1004600000D5012070470029816802D041F4A00125
:1004700001E021F4A00181607047014600208968F5
:10048000490200D5012070474268491E22F46042AB
:1004900042EA4131416070470029416802D041F48D
:1004A000006101E021F400614160704770B50726EA
:1004B00009290AD9C568A1F10A0404EB4404A6403D
:1004C000B543A3401D43C56007E0056901EB410446
:1004D000A640B543A3401D4305611F23072A09D247
:1004E000446B521E02EB820293409C4391400C43AA
:1004F000446370BD0D2A09D2046BD21F02EB820245
:1005000093409C4391400C43046370BDC46A0D3A10
:1005100002EB820293409C4391400C43C46270BD45
:100520000029816802D041F4801101E021F480119A
:1005300081607047C06C80B2704754484C3000688E
:1005400070470029416802D041F4806101E021F444
:100550008061416070470029416802D041F48051B8
:1005600001E021F4805141607047826822F4E0424A
:100570000A43826070470029816802D041F400413B
:1005800001E021F40041816070470029816802D0B8
:1005900041F4021101E021F402118160704701462B
:1005A00000208968890200D50120704770B50726B0
:1005B00009290AD9C568A1F10A0404EB4404A6403C
:1005C000B543A3401D43C56007E0056901EB410445
:1005D000A640B543A3401D430561836BC3F301549B
:1005E000121B921C02EB82021F249440A3439140F1
:1005F0000B43836370BD826B491E22F4401242EAB2
:1006000001518163704708B508440090026008BD3D
:1006100008B5084428300090006880B208BD4268E0
:100620001F4B1A400A434260704741628262704722
:10063000426822F01F020A434260704713490831A2
:100640000028086802D040F4000001E020F4000017
:10065000086070470246002012680A4200D001205C
:100660007047C9430160704710B5024600205468C6
:100670000B0AC9B20C401168194202D0002C00D0FC
:10068000012010BD6FEA1121016070470024014074
:1006900000280140003C0140FFFEF0FFFDF7F1FFA4
:1006A000FFFD3FFF374900200860091D0860091D54
:1006B0000860091D086033493348143108607047E9
:1006C00030B5304A8379016853B313688B431360A4
:1006D000111D0B680468A3430B60017911440B687A
:1006E000046823430B60274B083319680468A1434F
:1006F00019601C1D21680568A943216041791029F2
:1007000005D011440A68006802430A6030BD1968C8
:10071000026811431960216800680143216030BDFF
:100720000079104402688A43026030BD00210160F4
:1007300001710C22427181717047124910310A68AF
:1007400002430A60704701460E4A002014321268C4
:100750000A4200D0012070470A49143108607047EE
:10076000084A014600201268064B0A4014331B68F1
:100770000B4202D0002A00D00120704701491431F9
:100780000860704700040140FFFF0F008F4910B55B
:10079000884206D10121042000F049FA00210420FA
:1007A0003BE08B49884206D10121082000F03FFA46
:1007B0000021082031E08749884206D1012110201C
:1007C00000F035FA0021102027E08349884206D145
:1007D0000121202000F02BFA002120201DE07F497C
:1007E000884206D10121402000F021FA002140205A
:1007F00013E07B49884206D10121802000F017FADE
:100800000021802009E0774988420AD1841501211E
:10081000204600F00CFA00212046BDE8104000F010
:1008200006BA10BD10B50121084600F000FA0021FB
:10083000BDE81040012000F0FAB9F0B5CC780022F4
:1008400004F00F03E40601D58C7823430C784FF0B5
:100850000F0C14F0FF0F4FF0010E1BD005680E882F
:100860000EFA02F42640A64210D196000CFA06F7C2
:1008700025EA070703FA06F5CE783D43282E02D075
:10088000482E02D002E0446100E00461521C082AB4
:10089000E5D305600A88FF2A1CD94468002202F1CA
:1008A00008060EFA06F50E882E40AE420ED19600CE
:1008B0000CFA06F7BC4303FA06F7CE783C43282E21
:1008C00000D14561CE78482E00D10561521C082A1E
:1008D000E5D34460F0BD4FF6FF71018002218170C5
:1008E0000421C17070470246002092680A4200D07D
:1008F00001207047806880B2704702460020D268AD
:100900000A4200D001207047C06880B27047016180
:100910007047416170470AB101617047416170479A
:10092000C160704741F48032826181618261816976
:10093000806970472C4B10B51A684FF680742240BE
:1009400042EA00100843186010BD2849C86170478A
:10095000F0B5254C002801DAE36900E06368450D35
:100960002E0185B2C0F30157B540C0F30342032FF7
:1009700005D0C6020AD503269640B34307E023F00C
:100980007062636823F07063636002E0AB4343F01E
:10099000706201B12A43002801DAE261F0BD6260B1
:1009A000F0BD10B58A0721F003040F49120F21444E
:1009B0000F238C6893409C438C608B68904003436A
:1009C0008B6010BD0949C1F8DC0070470008014088
:1009D000000C0140001001400014014000180140CB
:1009E000001C0140002001400000014000002042A6
:1009F000A548016841F0010101604168A34A114026
:100A000041600168A24A11400160016821F480211F
:100A10000160416821F4FE0141604FF41F018160D3
:100A2000704799490A6822F480320A600A6822F401
:100A300080220A60B0F5803F07D0B0F5802F03D147
:100A4000086840F4A02008607047086840F48030CF
:100A5000F9E70346002059098B4A01290AD00229E7
:100A60000AD0516A03F01F02012393400B4200D0C9
:100A7000012070471168F5E7116AF3E718B5002007
:100A80004FF4A06400903120FFF7E3FF0099491C68
:100A90000091A14201D00028F5D03120FFF7D9FF05
:100AA000002800D0012018BD774A116821F0F80114
:100AB00041EAC00010607047764908607047724B89
:100AC0005A68084322F47C121043586070477149F9
:100AD000086670476C4A516821F003010143516078
:100AE00070476948406800F00C007047664A5168DA
:100AF00021F0F001014351607047634A516821F4CD
:100B0000E0610143516070475F4A516821F46051D0
:100B100041EAC000506070475B4A0029517A01D019
:100B2000014300E08143517270475A49C1F8D8002F
:100B30007047554A516821F4404101435160704764
:100B40005149002281F8202081F82020012802D07C
:100B5000042802D1052081F8200070474E49086022
:100B6000704749490A6A02430A6270474A49443950
:100B70000860704730B5444A5168484B11F00C0189
:100B800003D0042901D0082901D0036012E0516884
:100B9000536801F470114FF0020413F4803F04EB2A
:100BA000914102D053689B0301D53D4B00E03B4B84
:100BB0005943016051680F2303EA1111394B5C5C02
:100BC0000168E14041605468072505EA14241C5D72
:100BD00021FA04F48460546805EAD4241B5DD940EA
:100BE000C1605268032303EA92322E4B1B1F9A5CAA
:100BF000B1FBF2F1016130BD234A0029516901D0F6
:100C0000014300E08143516170471F4A0029916907
:100C100001D0014300E08143916170471A4A0029E5
:100C2000D16901D0014300E08143D1617047164A88
:100C30000029D16801D0014300E08143D1607047B1
:100C4000114A0029116901D0014300E0814311617B
:100C5000704711494039086070470E49C8647047B1
:100C60000949C87170470848416A41F08071416282
:100C70007047054A0146002092680A4200D00120D0
:100C80007047014988727047001002400000FFF869
:100C9000FFFFF6FE000042428004424200127A004A
:100CA00000093D0018000020F94910B5884202D122
:100CB0000121C41486E0B0F1804F09D0F549884283
:100CC0000DD101210220FFF7BBFF0021022064E0CB
:100CD00001210846FFF7B4FF002101205DE0EE4945
:100CE000884206D101210420FFF7AAFF0021042039
:100CF00053E0EA49884206D101210820FFF7A0FF0E
:100D00000021082049E0E649884206D1012110204F
:100D1000FFF796FF002110203FE0E249884206D10C
:100D200001212020FFF78CFF0021202035E0DE4943
:100D3000884202D10121441444E0DC49884202D1B6
:100D40000121CC043EE0DA49884202D101210C05A0
:100D500038E0D849884202D101214C0532E0D64919
:100D6000884206D101214020FFF76AFF0021402080
:100D700013E0D249884206D101218020FFF760FFAD
:100D80000021802009E0CE4988420AD18415012142
:100D90002046FFF755FF00212046BDE81040FFF731
:100DA0004FBFC849884202D101210C040AE0C6495C
:100DB000884202D101214C0404E0C44988420AD18E
:100DC00001218C042046FFF732FF2046BDE8104089
:100DD0000021FFF72CBF10BD30B50288AC4CB24DDE
:100DE000A0420DD0A8420BD0B0F1804F08D0A94B43
:100DF000984205D0A84B984202D0A84B984203D104
:100E000022F070034A881A43A54B984206D0A54B9E
:100E1000984203D022F44073CA881A4302808A8819
:100E200082850A880285A0420AD0A84208D0A54A35
:100E3000904205D0A44A904202D0A44A904201D1E7
:100E4000097A01860121818230BD30B5028C22F001
:100E500001020284028C8388048B22F0020224F0B7
:100E600073050C882C430D8915434A882A43884D05
:100E7000A8420BD08C4DA84208D0924DA84205D074
:100E8000914DA84202D0914DA8420DD122F0080503
:100E90004A8923F440732A4322F004058A882A43AE
:100EA0008D891D43CB892B4383800483C988818628
:100EB000028430BD70B5028C22F010020284028CD4
:100EC0008388048B0D8824F4E6464FF6FF7404EA09
:100ED000052535430E8922F0200204EA0616164342
:100EE0004A8804EA02123243694EB04202D06E4E82
:100EF000B04215D122F080064A8923F4406304EA07
:100F00000212324322F040068A8804EA0212324377
:100F10008E8904EA86061E43CB8904EA83033343A1
:100F200083800583C9880187028470BD70B5028CF7
:100F300022F480720284028C8388848B0D8824F0D2
:100F4000730425430E894FF6FF7422F4007204EAFD
:100F5000062616434A8804EA022232434C4EB04227
:100F600002D0514EB04215D122F400664A8923F4D2
:100F7000405304EA0222324322F480668A8804EA5B
:100F8000022232438E8904EA06161E43CB8904EA04
:100F90000313334383808583C9888187028470BDAE
:100FA00070B5028C22F480520284058C8288838B77
:100FB0000C8823F4E6464FF6FF7303EA0424344317
:100FC00025F400560D8903EA053535434E8803EABA
:100FD00006362E432E4DA84202D0334DA84205D1ED
:100FE00022F480458A8903EA82122A43828084831C
:100FF000C988A0F84010068470BD828B22F440623C
:101000008283828B4FF6FF7303EA01210A438283B6
:101010007047828B22F00C028283828B0A43828388
:101020007047028B22F440620283028B4FF6FF73FB
:1010300003EA01210A4302837047F0B5048C24F0CF
:1010400010040484078B048C4FF6FF7527F4734754
:1010500005EA03333B4305EA02221A430C4B05EA37
:10106000011698420ED0104B98420BD0B0F1804F31
:1010700008D0084B984205D0074B984202D0074B46
:10108000984225D124F02001314341F0100124E0A1
:10109000002C01400004004000080040000C00400B
:1010A000001000400014004000340140004C01409A
:1010B000005001400054014000180040001C004056
:1010C0000020004000400140004401400048014031
:1010D00024F0A0030B4343F0100102830184F0BD10
:1010E000028B22F00C020283028B0A4302837047B8
:1010F00070B5048C24F001040484058B048C4FF635
:10110000FF7606EA0313134325F0F305F84A2B4351
:1011100090420ED0F74A90420BD0B0F1804F08D0E9
:10112000F54A904205D0F54A904202D0F44A9042E6
:1011300002D124F0020201E024F00A020A4342F044
:1011400001010383018470BD2DE9F84F0D4604466B
:101150000888E74FDFF89CC3DFF89C83DFF89C9397
:101160004988AA882B894FF0804A48B304282FD099
:101170004FF6FF760828934632D0208C9E4620F406
:1011800080502084A38B208C06EA0132009223F445
:10119000734306EA0B221A4306EA0E331343BC429A
:1011A0000AD0644508D0544506D0444504D04C4587
:1011B00002D0D34A944242D120F40050009940E03A
:1011C0002046FFF795FFE9882046BDE8F84F87E7FE
:1011D0002046FFF732FFE9882046BDE8F84F20E7B8
:1011E000208C20F480702084B4F81CE0208C06EA67
:1011F000031306EA01222EF0F30E43EA0B0343EA3F
:101200000E030092BC420AD0644508D0544506D073
:10121000444504D04C4502D0B94A944203D120F44D
:101220000070009901E020F42060084340F48070D1
:10123000A3832084E9882046BDE8F84FE9E620F43E
:101240000240084340F48050A3832084E98820466C
:10125000BDE8F84FD1E62DE9F0410C46002649885B
:101260000746012501B90226A288012A00D10225DC
:10127000208823890028384610D0FFF7DEFEE18859
:101280003846FFF7CEFE23892A4631463846FFF717
:101290002FFFE1883846BDE8F04121E7FFF728FF3E
:1012A000E1883846FFF71CFF23892A463146384635
:1012B000FFF7C3FEE1883846BDE8F041B1E610B55E
:1012C0000A884B88CC881A438B8823431A430B899E
:1012D0001A434B8989891A430A43A0F8442010BD58
:1012E0004FF6FF71818000210180C1804180017231
:1012F00070470021018041808180C180018141814E
:101300008181C1817047002101804180012282805A
:10131000C180018170470021018041808180C180AE
:1013200001814181818170470029018802D041F00B
:10133000010101E021F0010101807047002930F82E
:10134000441F02D041F4004101E0C1F30E010180CD
:101350007047002A828901D00A4300E08A438281D3
:101360007047818270471143A0F848107047002AE7
:10137000828901D00A4300E08A4382817047018953
:1013800021F0070101817047028922F070020A43AF
:101390000281704700B50346FFF7F6FF188940F059
:1013A0000700188100BD70B516460D466029044639
:1013B0004FF0010231460AD0FFF79AFE2946204637
:1013C000FFF7E2FF208940F00700208170BDFFF7A2
:1013D00034FEF3E730B504894FF6FF7505EA0323C1
:1013E0001343E4B20B432343038130BD10B50446DD
:1013F000FFF7F0FF208940F07700208110BD10B585
:101400000446FFF7E7FF208940F48040208110BDAB
:10141000018582827047028822F070020A430280AE
:10142000704770B50589048B068C25F007050D43C0
:101430004FF6FC410C4040F201110C434FF6FF7196
:1014400001EA031126F0220611433143058104838A
:10145000018470BD028B22F070020A430283704740
:10146000028B4FF6FF7322F4E04203EA012111439D
:1014700001837047828B22F070020A438283704797
:10148000828B4FF6FF7322F4E04203EA01211143FD
:10149000818370470029018802D041F0800101E07A
:1014A00021F08001018070470029818802D041F03D
:1014B000040101E021F00401818070470029818846
:1014C00002D041F0080101E021F00801818070475D
:1014D0000029818802D041F0010101E021F00101E1
:1014E00081807047028B22F008020A430283704712
:1014F000002C01400034014000040040000800407E
:10150000000C0040028B4FF6FF7322F4006203EAE6
:10151000012111430183EAE7828B22F008020A438A
:101520008283E4E7828B4FF6FF7322F4006203EAC2
:10153000012111438183DAE7028B22F004020A437E
:101540000283D4E7028B4FF6FF7322F4806203EA32
:10155000012111430183CAE7828B22F004020A436E
:101560008283C4E7828B4FF6FF7322F4806203EA22
:10157000012111438183BAE7028B22F080020A43E2
:101580000283B4E7028B4FF6FF73C2F30E0203EA45
:10159000012111430183AAE7828B22F080020A43D2
:1015A0008283A4E7828B4FF6FF73C2F30E0203EA35
:1015B0000121114381839AE7028C22F002020A433F
:1015C000028494E7028C22F008020A4302848EE728
:1015D000028C4FF6FF7322F0200203EA011111433F
:1015E000018484E7028C4FF6FF7322F0800203EA45
:1015F0000111114301847AE7028C4FF6FF7322F444
:10160000007203EA01211143018470E7028C4FF656
:10161000FF7322F4006203EA01211143018466E7AB
:10162000028C4FF6FF7322F4005203EA013111439A
:1016300001845CE710B50123048C8B409C43048437
:10164000038C8A401343038410BD10B50423048C1B
:101650008B409C430484038C8A401343038410BD55
:1016600030B50124058C00F118038C40A543058496
:1016700089B108290FD0091FC1F34E001844016831
:1016800021F4E041016001684FF6FF7303EA022292
:101690001143016030BD03EB5100016821F070017E
:1016A00001600168F4E70029018802D041F00201DD
:1016B00001E021F00201018019E70029018802D030
:1016C00041F0040101E021F0040101800FE700294D
:1016D000818802D041F0800101E021F08001818009
:1016E00005E7028822F00802028002880A4302808D
:1016F000FDE6828822F07002828082880A4382801E
:10170000F5E6028922F00702028102890A4302817A
:10171000EDE6028922F08002028102890A430281F9
:10172000E5E68184E3E68185E1E68186DFE60187FF
:10173000DDE68187DBE6A0F84010D8E6028822F4D7
:101740004072028002880A430280D0E6808ECEE694
:10175000008FCCE6808FCAE6B0F84000C7E6808CE8
:10176000C5E6008DC3E602460020128A0A4200D078
:101770000120BCE6C9430182B9E602460020138A73
:1017800092890B4202EA010202D0002A00D0012015
:10179000ADE6C9430182AAE6C44910B588420AD120
:1017A00001218C032046FFF742FA2046BDE8104095
:1017B0000021FFF73CBABE49884202D101214C0406
:1017C00010E0BC49884202D101218C040AE0BA49E8
:1017D000884202D10121CC0404E0B84988420AD1F0
:1017E00001210C052046FFF72BFA2046BDE81040EA
:1017F0000021FFF725BA10BD30B50446008A85B038
:101800000D464CF6FF710840E98801432182A0890A
:101810004EF6F3110840A9882A8911436A890243C8
:101820001143A181A08A4FF6FF410840A9890143D5
:10183000A1826846FFF79EF99C48844201D1039833
:1018400000E00298A189090400EBC00101EB00103F
:10185000296801D5490000E08900B0FBF1F064225D
:10186000B0FBF2F109010B096FF018056B4300EBB7
:101870008300A3891D044FF0320306D503EBC0009B
:10188000B0FBF2F000F0070005E003EB0010B0FB46
:10189000F2F000F00F000843208105B030BD4FF496
:1018A0001651016000218180C18001810C2242819A
:1018B0008181704710B5028A4FF2FF031A400B88EE
:1018C0004C8823438C88C9880C43234313430382E9
:1018D00010BD0021018041808180C18070470029B6
:1018E000818902D041F4005101E021F4005181814D
:1018F000704710B5C1F3421301F01F040121A1404C
:10190000012B07D0022B07D01430002A026805D023
:101910000A4304E00C30F8E71030F6E78A4302602F
:1019200010BD002A828A01D00A4300E08A438282E5
:101930007047028A22F00F020282028A0A43028260
:101940007047828922F40062828182890A438281FF
:1019500070470029818902D041F0020101E021F0A5
:10196000020181817047028A22F020020282028AEB
:101970000A43028270470029018A02D041F4804163
:1019800001E021F4804101827047C1F308018180A8
:1019900070478088C0F308007047818941F00101D9
:1019A00081817047028BD2B20283028B42EA01210D
:1019B00001837047028B02F47F420283028B0A4349
:1019C000028370470029818A02D041F0200101E0A2
:1019D00021F02001818270470029818A02D041F0E4
:1019E000100101E021F01001818270470029818AF5
:1019F00002D041F0080101E021F008018182704726
:101A00000029818902D041F4004101E0C1F30E01B7
:101A1000818170470029818A02D041F4006101E090
:101A200021F4006181827047828A22F0040282825E
:101A3000828A0A43828270470029818A02D041F05B
:101A4000020101E021F0020181827047024600207C
:101A500012880A4200D001207047C94301807047B4
:101A600070B501F01F0501260024C1F3421306FAE8
:101A700005F2012B0FD0022B0FD0838A4FEA1121E0
:101A80000088134206FA01F600EA060001D000B110
:101A90000124204670BD8389F0E7038AEEE70A0A35
:101AA00001219140C9430180704700000038014086
:101AB0000044004000480040004C004000500040FE
:101AC000002425464FF4A060FEF7FCFB022000F046
:101AD00083F8012000F080F800F0AAF900F0C8F8BF
:101AE00000F089F800F057FF01F0B9F841F61F4700
:101AF0000021384600F0A6FC00F046FA00F094FA07
:101B000000F0E1FA00F02EFB01F0F0F801F0CEFA5F
:101B100000F031FD00F01CFD47214FF6FF7004F08E
:101B2000B4FA07F08EFC03F0EFFA23484FF40046B6
:101B30000660C82000F005FA1F48001D06601F4E11
:101B4000F078012804D1472142F20F7000F07CFCAC
:101B500002F085FC3121384600F097FB4FF0050973
:101B60000827DFF85C804FF0000A4FF0010B03F00C
:101B7000CBFA30780028404613D0076101F0A4FA70
:101B800002F02FFD03F027FA00F01FFD6D1CEDB2EF
:101B90000444052D08D1B4FBF9F00025B0802C4693
:101BA00002E0476103F087FA86F802B086F801A0E8
:101BB000B0780028FCD1DAE7100801402C000020A2
:101BC000001001407047FEE7FEE7FEE7FEE77047C2
:101BD0007047704700F095B941062148826942F08C
:101BE000010282611F48426822F0E062426042685E
:101BF0000A434260704738B50220FFF7EDFF01202D
:101C0000FFF7EAFF01210420FEF7FFFF4FF4004435
:101C1000ADF8004010208DF803000220124D8DF821
:101C2000020069462846FEF708FE21462846FEF7D0
:101C300070FE38BD70B10D4A1168491C11608142B7
:101C400007DB09480C30016881F400410160002085
:101C50001060704704494FF4004014310860704729
:101C60000010024000000140000801405400002024
:101C700038B501211420FEF7C8FF0120ADF800009F
:101C800004248DF8034069465E48FEF7D6FDE00265
:101C9000ADF800008DF8034069465B48FEF7CDFDC6
:101CA00038BD70B50C460546FEF71DFE012801D073
:101CB000002070BD21462846FEF715FE0128F9D008
:101CC000012070BD70B5514C00254E482178062981
:101CD0004FD2DFE801F003091A2333420121FEF756
:101CE00002FE012816D044E06188491C89B2618057
:101CF00005293ED10121FEF7F6FD012802D06580BD
:101D0000257036E02078401C13E00121FEF7EBFD42
:101D100001282BD02078401C20702AE06088B0F584
:101D2000C87F03D925706580022070BD052803D9BE
:101D30000420207065801CE02570FBE76188491C49
:101D400089B26180262914D10121FEF7CCFD01283A
:101D5000D8D025706580012070BD0121FEF7C3FD3C
:101D6000012803D065802570032070BD6088401C69
:101D70006080002070BD70B5FFF7A4FF24490128E2
:101D800014D0022833D0032829D10878042826D17A
:101D90002049087888B30020087000281FD1BDE8CA
:101DA000704040F624111C4807F06EBD0878401CB6
:101DB000C0B20870042813D0124D4FF400441435FB
:101DC000052811D006280AD10020087013490860A0
:101DD0001349086013494860134948602C6070BD7E
:101DE000BDE8704004F0ECBA04F00FFBF6E70F49D1
:101DF000087818B10020087070BD01E00120FAE7F2
:101E00000120C9E7000801400010014058000020EF
:101E1000A4000020EC000020D2120020C40000200A
:101E2000C000002070080020600800202C00002066
:101E300038B501211020FEF7E8FE0420ADF80000BF
:101E400010208DF803000220144C8DF80200694622
:101E50002046FEF7F2FC0821ADF800106946204646
:101E6000FEF7EBFC04212046FEF751FD0821204639
:101E7000FEF74DFD38BD094A60B1094B1968491C90
:101E80001960814205DBD06880F00400D06000203A
:101E90001860704704201061704700000010014076
:101EA0005C000020B0F1807F01D30120704720F05A
:101EB0007F414FF0E020491E41612E4AF02182F817
:101EC000141D0021816107210161002070472A480B
:101ED00010B500682949B0FBF1F0FFF7E3FF0028D7
:101EE00000D0FEE710BD01B52548009901604FF014
:101EF000E0210A6942F001020A6101680029FCD16F
:101F000008BD1F480168002902D00168491E016010
:101F1000704701B5184801681A48B1FBF0F0FFF7A7
:101F2000C1FF00204FF0E02103E00A69D203FCD595
:101F3000401C009A9042F8D3086920F00100086123
:101F400008BD01B50C4801684FF47A70B1FBF0F0A0
:101F5000FFF7A8FF00204FF0E02103E00A69D20359
:101F6000FCD5401C009A9042F8D3086920F001008B
:101F7000086108BD0FE000E000000020A08601001D
:101F80006000002040420F0010B586B001210420FF
:101F9000FEF73BFE01218803FEF737FE4FF4007089
:101FA000ADF8100018208DF813000320A84C8DF810
:101FB000120004A92046FEF740FC2115ADF81010D0
:101FC00048218DF8131004A92046FEF736FC252081
:101FD0008DF8140001208DF815008DF816008DF88D
:101FE000170005A8FEF773F94FF4E13000900020C8
:101FF000ADF80400ADF80600ADF80800ADF80C002F
:102000000C20944CADF80A0069462046FFF7F4FB1B
:10201000012240F225512046FFF76BFC01212046AA
:10202000FFF75DFC06B010BD10B586B00121082099
:10203000FEF7EBFD01218804FEF7F0FD4FF4806010
:10204000ADF8100018208DF813000320824C8DF895
:10205000120004A92046FEF7F0FBE114ADF81010C1
:1020600004218DF8131004A92046FEF7E6FB272073
:102070008DF8140001208DF815008DF816008DF8EC
:10208000170005A8FEF723F94FF416500090002022
:10209000ADF80400ADF80600ADF80800ADF80C008E
:1020A0000C206E4CADF80A0069462046FFF7A4FBF1
:1020B000012240F225512046FFF71BFC012120465A
:1020C000FFF70DFCAEE710B5654C86B02046FFF774
:1020D00063FB01213020FEF798FD01210805FEF782
:1020E0009DFDA014ADF8100018208DF813000320FA
:1020F0008DF8120004A95B48FEF79FFB0421ADF8A0
:1021000010108DF8131004A95748FEF796FB3520E0
:102110008DF8140001218DF815108DF816108DF82A
:10212000171005A8FEF7D3F800214FF4E130009016
:10213000ADF80810ADF804100C20ADF80610ADF89D
:102140000C10ADF80A0069462046FFF755FB012246
:1021500040F225512046FFF7CCFB01212046FFF736
:10216000BEFB5FE710B586B001211020FEF74DFDE4
:102170000121C804FEF752FD4FF48060ADF8100055
:1021800018208DF813000320364C8DF8120004A996
:102190002046FEF752FBE114ADF8101048218DF8EF
:1021A000131004A92046FEF748FB34208DF81400D4
:1021B00001208DF815008DF816008DF8170005A880
:1021C000FEF785F84FF4E13000900020ADF80400F0
:1021D000ADF80600ADF80800ADF80C000C20234C5B
:1021E000ADF80A0069462046FFF706FB012240F2DF
:1021F00025512046FFF77DFB01212046FFF76FFBAD
:1022000010E770B504461A48007860B1134D80217C
:102210002846FFF71BFC0028F9D0E1B22846FFF75B
:10222000B4FB204670BD0B4D80212846FFF70EFC05
:102230000028F9D0F1E710B5064C20212046FFF721
:1022400005FC0028F9D02046BDE81040FFF7A1BBEF
:102250000008014000380140000C014000480040E7
:10226000005000400010014000140140004C0040AC
:102270002C00002070B50C46054600F037F82146CA
:102280002846BDE8704000F073B87FB504463220A0
:102290008DF80C0002208DF80D0001228DF80E2023
:1022A0000D468DF80F2003A8FEF711F80121082034
:1022B000FEF7B4FCADF804400020ADF800505D4CD2
:1022C000ADF80200ADF8060069462046FEF784FD31
:1022D00001212046FFF74EFA012211462046FFF762
:1022E00038F801212046FFF71FF87FBDF8B501211E
:1022F0000420FEF78AFC4020ADF8000018254E4E61
:102300008DF8035003248DF8024069463046FEF7ED
:1023100094FA01210420FEF778FC8020ADF800003B
:102320008DF803508DF8024069463046FEF785FA75
:1023300001210820FEF769FC0120ADF800003F4EA6
:102340008DF803508DF8024069463046FEF775FA65
:1023500001210820FEF759FC0220ADF800008DF89D
:1023600003508DF8024069463046FEF766FAF8BD24
:10237000F0B50D46044687B001210220FEF74EFC61
:10238000ADF8144000242E4FADF81050ADF81240B7
:10239000ADF8164004A93846FEF71EFD6025ADF8DD
:1023A00000500126ADF80260ADF80640ADF80840D7
:1023B00069463846FEF749FDADF80050ADF80260B9
:1023C000ADF80640ADF8084069463846FEF772FDA4
:1023D000ADF80050ADF80260ADF80640ADF8084029
:1023E00069463846FEF7A2FDADF80050ADF8026030
:1023F000ADF80640ADF8084069463846FEF7D0FD16
:1024000008213846FFF76EF808213846FFF77AF8BA
:1024100008213846FFF780F808213846FFF782F890
:1024200001213846FFF736F801213846FEF77CFFD8
:1024300007B0F0BD000C004000080140000C014056
:1024400000040040FFF716BF30B50D4604460121D9
:1024500089B0C802FEF7D9FB01210420FEF7D5FBA5
:1024600018228DF81F204FF48072ADF81C20032035
:102470008DF81E0007A93148FEF7DFF9ADF81440CA
:10248000ADF8105000242E4DADF81240ADF81640B6
:1024900004A92846FEF7A0FC6020ADF8000001204A
:1024A000ADF80200ADF80640ADF80840ADF80C40BC
:1024B00069462846FEF7C9FC08212846FFF712F8AE
:1024C00001212846FEF73AFF01212846FEF7E2FFE8
:1024D00001212846FEF728FF1A481949343100889F
:1024E000088009B030BD70B5054617480C46007825
:1024F000012805D11348008881B21148FFF715F96A
:1025000012494FF4E1500A1D002D04DA088005F548
:10251000E155158003E01080C5F5E1520A800B49B2
:1025200008310A1D002C04DA088004F5E1541480F7
:1025300070BD1080C4F5E150088070BD00080140F6
:10254000002C0140C80000202F000020340400406F
:1025500008B501211020FEF758FB0220ADF800005D
:1025600000208DF8030069466E48FEF766F9BDE865
:10257000084000F055B808B501211020FEF745FBD2
:102580000120ADF8000000208DF803006946654881
:10259000FEF753F9BDE8084000F083B810B5624C6F
:1025A0000146072301222046FDF780FF0121204636
:1025B000FDF759FF02212046FEF74CF80028F9D01C
:1025C0002046BDE81040FDF7B5BF10B50B20FFF762
:1025D000E5FF07F0D6FB554907F0C6F9544907F067
:1025E000C3F9544907F0C0F907F007FC80B210BDE9
:1025F00010B5514C0146072301222046FDF756FF36
:1026000001212046FDF72FFF00BF02212046FEF7E3
:1026100021F80028F9D02046BDE81040FDF78ABF18
:1026200010B5012186B08802FEF7EFFA3E4C204635
:10263000FDF7A0FE00214FF46020CDE902018DF8E6
:102640000410012000918DF805108DF810006946E6
:102650002046FDF7ABFE4FF40040FEF76AFA072371
:1026600001220B212046FDF721FF01224FF40871C2
:102670002046FDF7D7FE01212046FDF7BFFE20468C
:10268000FDF7D9FE2046FDF7DBFE0028FAD12046F3
:10269000FDF7DDFE2046FDF7DFFE0028FAD106B08B
:1026A00010BD10B5012186B04802FEF7AEFA224CEB
:1026B0002046FDF75FFE00214FF46020CDE90201C6
:1026C0008DF80410012000918DF805108DF8100090
:1026D00069462046FDF76AFE4FF40040FEF729FAEE
:1026E000072301220A212046FDF7E0FE00224FF4D5
:1026F00008712046FDF796FE01212046FDF77EFE7B
:102700002046FDF798FE2046FDF79AFE0028FAD1F4
:102710002046FDF79CFE2046FDF79EFE0028FAD1DC
:10272000BDE7000000100140002801406740533A17
:10273000000030410000C8420024014070B5002272
:10274000F74C012311B1C4F88C3101E0C4F88C219D
:10275000F44D0021C5F8B821060602D5C4F894311D
:1027600001E0C4F89421C5F8B8314006491C000EB8
:10277000C9B20829EED3C4F88C3170BD70B5EA4EE9
:10278000002505F1B000C0B20021FFF7D7FF0021FE
:102790000846FFF7D3FF00211020FFF7CFFF0024EA
:1027A00006EBC4000121405DFFF7C8FF641CE4B2E2
:1027B000802CF5D36D1CEDB2082DE2D370BD00B5B1
:1027C00000218D20FFF7BAFF00211420FFF7B6FF8C
:1027D0000021AF205DF804EBB0E700B500218D20AB
:1027E000FFF7ACFF00211020FFF7A8FF0021AE206B
:1027F0005DF804EBA2E710B40021CB4B0A460020A1
:1028000003EBC004401CC0B262548028F8D3491CBA
:10281000C9B20829F3D310BCB0E710B57F2816D889
:102820003F2914D80723A3EBD10301F00701C1F11D
:1028300007040121A140BC4CDBB204EBC000002A1C
:10284000C25CC9B201D00A4300E08A43C25410BD41
:102850002DE9F04F203A9C460D468246884602F00C
:10286000FF090026DDF824B02FE0BCF10C0F08D0E2
:10287000AE4901EB09100027845D200607D55A46B2
:1028800009E0AB4909EB490001EB8000F3E7BBF13C
:10289000000F12D0002229465046FFF7BEFF600607
:1028A0006D1C040EEDB2A5EB0800604507D10AF1DE
:1028B0000100454600F0FF0A05E00122EBE77F1C1E
:1028C000FFB2082FD9D3761CF6B26645CDD3BDE84A
:1028D000F08F0346012000E05843491EC9B2FBD2E5
:1028E00070472DE9FF4F81B00027DDF838B01D4655
:1028F000924680463C464FF001094FEA5B0627E0CE
:10290000281B401EC1B20A20FFF7E3FFBAFBF0F01C
:102910000A21B0FBF1F201FB120027B9691E8C42BB
:1029200001DA48B101273030C2B206FB0480C0B2E0
:102930005B46CDF8009006E006FB0480C0B25B4623
:102940002022CDF800900299FFF782FF641CE4B2C8
:10295000AC42D5D305B0BAE7F8B516460D460446E5
:10296000012714E07A2C02D900241035EDB23A2D5B
:1029700003D900242546FFF73EFF009732780C2349
:1029800029462046FFF764FF0834E4B2761C30780D
:102990000028E7D1F8BDF8B50220FFF71DF90120A6
:1029A000FFF71AF901211820FEF72FF9012108205D
:1029B000FEF72BF94FF48040ADF8000010248DF89D
:1029C000034003258DF8025069465A48FDF735FF4C
:1029D0002020ADF80000584E8DF803408DF80250CD
:1029E00069463046FDF729FFADF800408DF80340F9
:1029F0008DF8025069463046FDF71FFF0820ADF8FC
:102A000000008DF803408DF8025069463046FDF70E
:102A100014FF434C0020C4F89001642004F5C874EE
:102A2000FFF78FFA012020600021AE20FFF786FE1D
:102A30000021D520FFF782FE00215020FFF77EFE07
:102A40000021A820FFF77AFE00213F20FFF776FE45
:102A50000021D320FFF772FE00210846FFF76EFE2B
:102A600000214020FFF76AFE00218D20FFF766FE5F
:102A700000211420FFF762FE00212020FFF75EFEF8
:102A800000210220FFF75AFE0021A120FFF756FE89
:102A90000021C020FFF752FE0021DA20FFF74EFE92
:102AA00000211220FFF74AFE00218120FFF746FE99
:102AB0000021EF20FFF742FE0021D920FFF73EFE64
:102AC0000021F120FFF73AFE0021DB20FFF736FE60
:102AD00000213020FFF732FE0021A420FFF72EFE58
:102AE0000021A620FFF72AFE0021AF20FFF726FED7
:102AF000FFF781FEF8BD30B5C400E1B200220A4BF9
:102B0000083409E0002003EBC005401CC0B26A5441
:102B10008028F8D3491CC9B28C42F3D830BD0000DC
:102B200000802142000022428C03002090C0000857
:102B30001CBC000800100140000C014038B5012108
:102B40001820FEF762F8C024ADF8004004258DF887
:102B5000035069466048FDF770FEADF800408DF8FF
:102B6000035069465D48FDF768FE38BD38B51E2044
:102B70008DF8000001248DF803408DF801400325F5
:102B80008DF802506846FDF7A2FB2C208DF800005E
:102B90008DF803408DF801408DF802506846FDF72E
:102BA00096FB38BD70B586B001210420FEF736F8DB
:102BB00001214803FEF729F86846FEF791FB002043
:102BC0004FF6FF71ADF80410ADF80000444EADF8BB
:102BD0000600ADF8020069463046FEF7FDF8414DAB
:102BE00069462846FEF7F8F800231A4603213046C6
:102BF000FEF717FC03A8FEF786FB0A24ADF8144085
:102C000003A93046FEF7A0FA01213046FEF7B2FDD7
:102C1000012211463046FEF79CFB01213046FEF7AB
:102C200083FB00231A4603212846FEF7FAFB03A87C
:102C3000FEF769FBADF8144003A92846FEF784FAB5
:102C400001212846FEF796FD012211462846FEF78F
:102C500080FB01212846FEF767FB06B070BD10B56A
:102C6000FFF76CFFFFF782FFBDE810409AE70021F5
:102C7000022807D003280BD004280BD008280CD03A
:102C8000002070474FF08042B2F9240091847047D1
:102C9000154A04E0124A243201E0124A2432B2F901
:102CA00000001180704710B50D4C01212046FEF741
:102CB0005AFD2046BDE810400121FEF76ABD10B55F
:102CC000084C01212046FEF74EFD2046BDE810408D
:102CD0000121FEF75EBD0000000C01400010014024
:102CE000000800400034014024040040F8B50121F0
:102CF0001820FDF78AFF01211020FDF786FF4820EC
:102D00008DF803004FF48076ADF800606946FE4808
:102D1000FDF793FD10248DF803406001ADF800002D
:102D2000FA4F03258DF8025069463846FDF785FDB8
:102D30008DF80340ADF800408DF8025069463846E2
:102D4000FDF77BFD8DF80340ADF800608DF8025073
:102D500069463846FDF771FDF8BD2DE9F84F0125AC
:102D60000746ADF80050EA4800264670ADF800501E
:102D7000E84CDFF8A4A380464FF6FF7924E0BDF8C5
:102D80000000384202D0C4F8A45101E0C4F8A461A4
:102D9000C4F8A0510520FFF7BCF8C4F8A0610520D5
:102DA000FFF7B7F8C4F8A051DAF8200130B198F86D
:102DB0000110BDF80020114388F80110BDF8001083
:102DC00009EA4100ADF80000BDF80000FF28D6D99F
:102DD000BDE8F84F1020FFF79CB870B5CD4D00202E
:102DE000C5F89001CD4C05F5C8752078FFF7B5FF03
:102DF0006078FFF7B2FF01202860C548407873284B
:102E000001D0012070BD002070BD2DE9F05FC14EE2
:102E10000024C6F89041C14D2878FFF79EFF6878DE
:102E2000FFF79BFF0225DFF8F0A2DFF8E492A0464F
:102E300001274FF6FF7B0124C6F8A0710520FFF79C
:102E400068F8C6F8A0810520FFF763F8C6F8A071FE
:102E5000DAF8200120B119F80510214309F805100E
:102E60000BEA4404FF2CE7D91020FFF752F86D1C41
:102E7000EDB2092DDFD3C6F89071BDE8F09F0020B8
:102E8000A34A01461154401CC0B20928FAD3704726
:102E900070B5FFF7F4FFFFF7B8FF9D489F4AB0F801
:102EA00003409E481C3244800020012512F8103057
:102EB00000F101005B1E05FA03F12142C0B202D00D
:102EC0001028F3D3002070BD9149085C704770B59D
:102ED000904C054600200E46C4F89001102004F5E1
:102EE000C874FFF716F80120FFF737FF4220FFF7FD
:102EF00034FF0020FFF731FF2846FFF72EFF304652
:102F0000FFF72BFF0020FFF728FF0020FFF725FF2A
:102F10000020FFF722FF0020FFF71FFF01202060A5
:102F2000BDE870401020FEF7F4BF10B5794C0020CA
:102F3000C4F89001102004F5C874FEF7EAFF0120E0
:102F4000FFF70BFF4220FFF708FF0020FFF705FF08
:102F50000020FFF702FF0020FFF7FFFE01202060A6
:102F6000BDE810401020FEF7D4BF10B5694C00201A
:102F7000C4F89001102004F5C874FEF7CAFF0120C0
:102F8000FFF7EBFE4320FFF7E8FE0020FFF7E5FE2A
:102F90000120FFF7E2FE0020FFF7DFFE0020FFF731
:102FA000DCFE0020FFF7D9FE0020FFF7D6FE002050
:102FB000FFF7D3FE01202060BDE810401020FEF78F
:102FC000A8BF10B5534C0020C4F89001012004F5AF
:102FD000C874FFF7C2FE4420FFF7BFFE0020FFF7D2
:102FE000BCFE0120FFF7B9FE0320FFF7B6FE00206C
:102FF000FFF7B3FE0020FFF7B0FE0020FFF7ADFEA5
:103000000020FFF7AAFE01202060BDE8104010203C
:10301000FEF77FBF10B53F4C0020C4F89001102090
:1030200004F5C874FEF775FF0120FFF796FE4D20EA
:10303000FFF793FE0020FFF790FE0020FFF78DFEC4
:103040000120FFF78AFE01202060BDE8104010201B
:10305000FEF75FBF10B52F4C0020C4F89001102080
:1030600004F5C874FEF755FF0120FFF776FE4320F4
:10307000FFF773FE0020FFF770FE0020FFF76DFEE4
:103080005A20FFF76AFE5A20FFF767FE5A20FFF723
:1030900064FE5A20FFF761FE5A20FFF75EFE012012
:1030A0002060BDE810401020FEF733BF10B5FFF7D9
:1030B0003CFFFFF73AFFFFF738FFFFF756FFFFF738
:1030C00080FFBDE81040C5E710B5FFF7E1FE1349EA
:1030D0000F4B8861DA798A601A7ACA605C790C6170
:1030E0009B794B6101240E4B042801D1187840B321
:1030F0004868002824D0762A22DA187800281FD1C0
:1031000008491C7008700FE0000C014000100140DD
:103110008C07002000002242008021426400002031
:10312000280000202900002007490870074908707E
:1031300008490748086008480949027807480860B4
:1031400010BD4C60D7E700002A0000204500002099
:103150000000AF43DC0000202F000020DB0F493FC0
:10316000E000002003788B54114443784B70827840
:103170008A70C078C870704703B50A2912D8002930
:1031800010D00B290ED2DFE801F00D06080E101248
:103190001416181A1C00012200E00522294968466D
:1031A000FFF7E0FF0CBD0922F8E70D22F6E7112238
:1031B000F4E71522F2E71922F0E71D22EEE72122BB
:1031C000ECE72522EAE70A2839D890B31D492422E2
:1031D0000B280A7033D2DFE800F032060A0E12160E
:1031E0001A1E22272D00052048710620704709204D
:1031F00048720A2070470D2048730E207047112036
:103200004874122070471520487516207047192001
:1032100048761A2070471D2048771E2070472120CD
:1032200081F8210022207047252081F825002620E2
:10323000704704E0292081F829002A20F8E70020BF
:10324000F6E700009507002030B50346002001296D
:1032500008D10022FE4C03E0A55C6840521CD2B2AB
:103260009A42F9D3002908D1F94A303203E0545C7C
:103270006040491CC9B29942F9D330BD2DE9F05FD5
:10328000F34C7B20804620767D2084F82E00F14888
:10329000F149F24A0078DFF8C8A3DFF8C8B317682D
:1032A0000E684FF0FF390025E8B1012804D002284C
:1032B00052D0032836D166E03146384606F0FCFA93
:1032C000494606F0C1FB514606F04EFB06F07CFD78
:1032D0006083A5833946304606F040FB06F0C0FD0A
:1032E000E14AE24B15E03146384606F0E5FA494638
:1032F00006F0AAFB514606F037FB06F065FD608339
:10330000A5833946304606F029FB06F0A9FDD84AC8
:10331000D84B06F0BEFC00225B4606F048FC06F0E7
:1033200080FDE083D448D84ED84FB0F90030D34860
:1033300063840088404202B2D148A284B0F90010F0
:10334000D048E184B0F9000020853688764236B254
:1033500066853F7877B32FE03146384606F0ACFA01
:10336000494606F071FB514606F0FEFA06F02CFDC8
:103370006083A5833946304606F0F0FA06F070FD0A
:10338000C34AC44BC5E73146384606F095FA49466C
:1033900006F05AFB514606F0E7FA06F015FD608389
:1033A000A5833946304606F0D9FA06F059FDBA4AE7
:1033B000BA4BAEE7BA4D2D88A585BA4D4FF47A7C4D
:1033C0002D8805FB0CF5258484F800806770678BD9
:1033D0004FEA172C84F802C0E770A78B4FEA172C2E
:1033E00084F804C06771E78B4FEA172C84F806C095
:1033F000E7711F0A27726372130AA372E2720A0A44
:1034000022736173010AA173E073300A2074667439
:10341000A08D010AA174E074280A20756575012148
:103420001620FFF711FFA07594F82E00E075BDE897
:10343000F09F9D490880081F01884906FCD5704708
:1034400000B5834B0022985CFFF7F3FF521CD2B209
:10345000182AF8D300BD10B501EB002000B206F029
:1034600095FC00227F4B06F014FCBDE8104006F0EE
:103470000ABD10F1FF4F01D380F00040704770B5D6
:103480008A4D06460C4611F0FF4F31D016F0FF4F23
:103490002ED0304606F09AFAFFF7EBFF294606F0E9
:1034A0000FFD0ED8B4F5000F304602DBFFF7E1FF49
:1034B00003E0FFF7DEFF80F00040294606F086FAC1
:1034C00004462146304606F081FA06F0C9FC664AF9
:1034D000774B06F0C5FA02460B464FF0004075499F
:1034E00006F0D7FB07F078FCBDE8704006F0CBBCD7
:1034F000002070BD2DE9F0416B4C40F22555241F92
:1035000029462046FEF7ACFA002849D02946204635
:10351000FEF7C5FA2046FEF73CFAC1B26648012222
:10352000002302706548684A494C0370644830348F
:103530007B290370634803701078215400D028B1B0
:10354000401CC0B210700B2802D029E0137027E095
:103550001370A07A7D2823D100210920FFF774FE83
:10356000617A88421CD12179E078FFF774FF574FC8
:103570003860217AE079FFF76EFF01463548544DF7
:10358000544E0078DFF8508101280CD0217AE07980
:10359000FFF761FF32464146286000F04CF9286091
:1035A0000020BDE8F0813868FFF769FFF2E72DE9F8
:1035B000F0414A4C40F2255529462046FEF750FA84
:1035C00000281ED029462046FEF769FA2046FEF75D
:1035D000E0F9C1B2384801220023027037483A4A64
:1035E0001B4C0370364830347B2903703548037018
:1035F0005078215400D028B1401CC0B250700B2824
:1036000002D073E0537071E05370A07A7D286DD1C1
:1036100000210920FFF718FE617A884266D12179DE
:10362000E078FFF718FF294F3860217AE079FFF73B
:1036300012FF01460748264D264E0078DFF8988095
:10364000012855D0217AE079FFF705FF324648E09E
:10365000C00700202F000020700800206008002014
:1036600000007A4400408F4023DBF97E6ABCC43FEF
:103670000E2DB29DEFA7C63FAE000020B200002085
:10368000B0000020BC000020B80000204400002052
:1036900048E17A14AE47C13F6DE7FBA9F1D2CD3FB7
:1036A000BA00002030000020043801403333B33E1C
:1036B0006ABCB43F976EC23F2A0000202900002058
:1036C0002800002045000020A0000020C0000020AD
:1036D000C4000020920A863F920A86BF004C004038
:1036E00004E04146286000F0A6F82860002058E772
:1036F0003868FFF7C4FEA9E770B515460E460446C4
:1037000006F0E8FB00D234462946204606F0D8FBF6
:1037100000D22C46204670BD70B502460020FF4DF9
:10372000012105EB810455F82130491CC9B244F848
:10373000043C0A29F5D300246A6255F8241006F0E7
:10374000BBF8641CE4B20A2CF7D3F54906F03EF945
:1037500006F03AFBBDE8704006F00ABB70B50246C1
:10376000EE4D00200121283D05EB810455F8213064
:10377000491CC9B244F8043C0A29F5D300246A6202
:1037800055F8241006F098F8641CE4B20A2CF7D31C
:10379000E34906F01BF906F017FBBDE8704006F0A0
:1037A000E7BA2DE9F041DD4C2834A168206801F02A
:1037B0006DFE06F0DDFA04F110056060A968286866
:1037C00001F084FE06F0D4FA6860D648007808B1AB
:1037D000072807D16068FFF7C1FF60606868FFF7DE
:1037E0009BFF6860D04ED14F324639466068FFF784
:1037F00083FF6060324639466868FFF77DFF686086
:10380000BDE8F08170B5CA480024D0F83401C94D34
:103810002870C9480088B0F57A7F04D23220FEF7BC
:103820002AFB012402E0C820FEF725FB287800B11E
:103830000124204670BD70B514460D46064606F0BC
:103840003FFB01D2284670BD2146304606F042FBC0
:1038500001D2204670BD304670BD884201DA08466C
:1038600070479042FCDD104670472DE9FE4F05463B
:10387000AC4EB2480C460090B14AB249F069FFF72D
:10388000DAFFF061B04AB149306AFFF7D4FF306225
:10389000AF48A24FDFF8BC820178283707F1100645
:1038A00001290DD0AC4BAD4A84F000404FF0FF39F8
:1038B00019B1022901D003297ED19D427DD290E029
:1038C000A7480290204606F0CBFA08F075F90246A8
:1038D0000B464FF00040A34906F0DBF9A24AA34B88
:1038E00006F05FF906F0CFFA8246A14AA1492046C8
:1038F000FFF7A1FF044610F0FF4F18D0DFF87892D1
:103900005046494606F02AF8294606F02DF8514659
:1039100006F05CF8B8604946504605F0CDFF2946F0
:1039200006F022F8514606F051F8B06001E0BD60A3
:10393000B5609249204606F017F806F091FA8246E3
:103940008B46204606F08CFA044600224FF0804356
:10395000019107F01FFC0022894B06F028F905466B
:10396000894620460022874B019907F013FC4FF04F
:103970000042854B06F01BF94B462A4606F070F8CC
:1039800052465B4606F00DF90022804B06F068F8BF
:1039900006F079FA7E4905F0E1FF029905F0E4FFAF
:1039A0007C4905F089FF06F00FFA5E4C454641461A
:1039B0006062B868009A01E011E032E0FFF73BFF77
:1039C000B8602946B068009AFFF735FFB06040F64E
:1039D00098024FF44871606AFFF73FFF6062BDE8EC
:1039E000FE8F2046116805F0BFFF494606F02CF80F
:1039F0008146294605F0B5FF0446B8604846294689
:103A000005F05AFFB060454641462046009AFFF750
:103A100012FFB8602946B068009AFFF70CFFB0604B
:103A2000DDE70446DDE72DE9F0415D4900205A4F0E
:103A30003C4EDFF868C14FF6FF7E01220B6814E0B0
:103A400000EB400107EB4101D1F8024064447445AA
:103A50000AD2746B14B90C88C6E90C420C88316B1D
:103A600064318C4200D22546401C9842E8DB4FF07E
:103A70007A50F061306B06F084F90446284606F06F
:103A800080F9214601F042FD314980F0004030626A
:103A90000978012907D0002904D1424A4249FFF799
:103AA000CAFE3062ACE6414A4149F8E72DE9F041EF
:103AB0003B4900264FF6FF743046374D194F40F210
:103AC000DB5C0B6810E000EB400105EB4102118864
:103AD000A1F16508E04506D2761CA14203D20C464E
:103AE000D2F80210B962401C9842ECDB3149B86A46
:103AF000884203DD304905F031FFB8620546F96AB6
:103B000005F02CFF06494FF00008884202DC2B49E3
:103B1000884258D9B879401CC0B251E0380800201A
:103B200000002041A400002000A0D7C500A0D74578
:103B300000002242440000203000002000006040CD
:103B40009A99993F9A9999BF920A863F920A86BF9D
:103B50002F000020000060C0000080804C0000208A
:103B6000AE271F44976EC23F23DBF97E6ABCB43F89
:103B70000AD7A33E0AD7A3BE54E3A53DE5D0E23F52
:103B8000D34DF43F000008409318E4BF022BF93FE7
:103B90004C37C93F0080BB44D2120020FFFF72BCEB
:103BA000340000207CD9203F7CD920BFDB0F493F67
:103BB000DB0F49BF000034430000B443000020C1C4
:103BC000B8711E2802D187F80680FD62062E0CDA35
:103BD0003889282804D2401C80B2388128283CD358
:103BE000C7F81C80C7F8208037E0FF48A7F8088096
:103BF000FE4E007801280FD0FD48854202DCFD48CA
:103C000085421ED9B4F5C87F1BD9FB49F86A05F077
:103C1000ABFEC7E9078020E0F8482918F848814240
:103C200003D3F849294481420BD2B4F5FA7F08D274
:103C3000F548F8610021F86A01F0D9FC80F00040F5
:103C40000AE0204606F09DF8314601F040FDF8619B
:103C50000021F86A01F0CBFC3862F86910F0FF4FE0
:103C60000CD0EA4AEA49386AFFF7E5FD3862E94ACA
:103C7000E949F869FFF7DFFDF861C1E5E74AE8497E
:103C8000F1E72DE9F05FD8480025A84606782C46D4
:103C90002F464FF4AF7A012E02D0032E03D005E059
:103CA0004FF4C87001E04FF4FA708246DD48D0F856
:103CB00000B02CE0DC4805EB450100EB4101DB4A9C
:103CC000D1F80200DA4B02449A421FD309885FEA16
:103CD00001091BD0D14519DA08F1010101F0FF08F3
:103CE000D2494942884202DA0146204606E0D149DB
:103CF000884206DDD04905F031FE214605F0DCFDA5
:103D00000446B9F1C80F01D27F1CFFB26D1C5D459E
:103D1000D0DB4046DFF824B3C94D4FF00008082837
:103D200011D2E86906F09CF85A46C64B05F098FE99
:103D300006F0A9F8C449E861884200DBE961404621
:103D4000C5F8208035E0C148DFF804934FF4000A3D
:103D5000012E03D0082F17D9E861F0E7082FFBD810
:103D6000E86906F07DF85A46B64B05F01AFF06F0F2
:103D70008AF8E861484501DAC5F81C90544501DB32
:103D8000B44815E0B44813E0E86906F069F85A460B
:103D9000AC4B05F006FF06F076F8E861484501DA1D
:103DA000C5F81C90544501DBAC4801E04FF07E5053
:103DB000286280F000402862BDE8F09F2DE9F041C4
:103DC0004FF4FA64A64B6510224629461868FFF79F
:103DD00044FD2246A34C186029462068FFF73DFDAC
:103DE00020601C686FF06301A0F2DC50A4F2DC5488
:103DF000884202DD642800DA00208C4202DD642C57
:103E000000DA002405F0B4FF06468D4D604205F04F
:103E1000AFFF04462862304606F022F8924A934BE0
:103E200005F0C5FE06F02FF80646E8616E48904F93
:103E30000078012818D00121204605F005FE8D49A3
:103E400005F092FD394605F0C1FD28628A493046E9
:103E500005F0BCFDE861E879002804D00021E961A3
:103E6000401E2962E871CBE484492046E8E72DE949
:103E7000F05F8449824809680068C1F18005C0F19B
:103E800080006FF01301884202DD142800DA002060
:103E90008D4202DD142D00DA002505F069FF684C23
:103EA00006466FF0060AA06B5146834605F0CCFD2E
:103EB000314605F059FD0746E0614B484FF03C485C
:103EC00006782046012ED0F83C9002D017F1FF4F23
:103ED00008D2284605F04CFF05464146484605F005
:103EE00043FD07E0284605F043FF05465146484696
:103EF00005F0AAFD294605F037FD634B206200223C
:103F0000186862494D4DDFF83C810B280CD00C2815
:103F10002BD062715849384605F058FDE061206A9F
:103F200080F00040206247E72079401CC0B2207139
:103F30001428EFD11A602271584605F0BDFC54498F
:103F4000A063884200DDA163012EE3D0484605F05E
:103F500087FF2A46434605F083FD05F094FF4FF0A6
:103F60007E51E06388421FDCD4E76079401CC0B218
:103F700060711428CED11A606271584605F0EEFCCB
:103F80004449A063884200DAA163012EC2D04846AA
:103F900005F066FF2A46434605F003FE05F073FF71
:103FA0003D49E0638842B5DAE163B3E710B53B48C9
:103FB000234C0021007888B101287BD02D4A0228AB
:103FC0007AD003287AD004287AD005287ED0344AC3
:103FD000062875D007287FD008286DD0E1612162BE
:103FE00001480078012863E02F0000200000C8434A
:103FF0000000F0410000F0C1CDCCCCBDFFFF8FBE72
:10400000FFFFC301FFFF8F3ECDCC4CBE920A063F9F
:10401000920A06BFCDCCCC3ECDCCCCBEDB0FC93F87
:10402000DB0FC9BF34000020D21200200000B8BD51
:104030000100530100009B430000B4439A999999F1
:10404000A40000209999B93F9A99993E9A9999BEEE
:104050009A99193E7CD920BF7CD9203F000080BFAF
:10406000680200206C020020CDCCCCCCCCCCF43F3C
:104070000000AF43DB0F493F00007A44DB0FC93E2D
:1040800070000020740000207C0000200000C84167
:1040900000004844000052437CD9203E000100202B
:1040A000DB0F49BF06E007E008E009E00EE013E09F
:1040B00016D01DE0A06B0CE0A06B04E0FD480CE006
:1040C000A06B80F00040C4E9070289E7A06B80F094
:1040D0000040C4E9070183E7F748C4E907107FE718
:1040E0000121206A05F0B0FCF44905F06FFC206264
:1040F000F349E06905F06AFCE061206A80F0004065
:10410000206210BD2DE9F047054601287DD04421ED
:10411000D02004F091FD04464321D02004F08CFD12
:1041200004EB0020E74C4621A082D02004F084FD5F
:1041300006464521D02004F07FFD06EB00202083B9
:104140004821D02004F078FD06464721D02004F015
:1041500073FD06EB0020E0823C21D02004F06CFDD2
:1041600006463B21D02004F067FD06EB0020E081ED
:104170003E21D02004F060FD06463D21D02004F011
:104180005BFD06EB002060814021D02004F054FD4F
:1041900006463F21D02004F04FFD06EB002000B280
:1041A000A08105F0F3FD06460F46B4F90A0005F0BC
:1041B000EDFD32463B4606F01FFFDFF80C83002280
:1041C000434605F0F4FCDFF804A34FF0C0494A462B
:1041D000534605F05EFD05F024FE2082B4F90C0084
:1041E00005F0D4FD06460F46B4F90E0005F0CEFDED
:1041F00032463B4606F000FF0022434605F0D7FC5E
:104200004A46534605F045FD00E040E005F009FE52
:104210006082B4F9140005F0B9FDAD4E00223346BA
:1042200005F037FD05F0FDFD00B2A0828046B4F92F
:10423000180005F0ABFD0022334605F02AFD05F01D
:10424000F0FDA44EA44F2083022D24D0032D1CD1B9
:10425000404605F08DFD0546B4F9100005F088FDD7
:10426000294605F0E0F980F000403060B4F918000C
:1042700005F07EFD0546B4F9120005F079FD2946EA
:1042800005F091FA80F000403860BDE8F087BDE8A5
:10429000F04704F0F9BE404605F06AFD0546B4F962
:1042A000100005F065FD294605F018F980F0004082
:1042B0003060B4F9180005F05BFD0546B4F9120052
:1042C00005F056FD294605F0CAF9DBE72DE9F04176
:1042D0000420FEF7CCFC7B4D403528600820FEF71B
:1042E000C6FC044668607D48007828B1012803D0E8
:1042F000022801D0032807D1286805F039FD0746B8
:10430000604205F035FD0646754C3846214605F0FD
:104310002BFB744909680F4605F026FB724D2946B0
:1043200005F054FB714908602146304605F01CFB3E
:10433000394605F019FB294605F048FB6B49103159
:1043400008609AE42DE9F041694C01212046FDF70F
:1043500014FA00284ED001212046FDF71AFAFFF783
:10436000B5FFFDF708FD634A1078002458B1624993
:104370000878401CC0B208700A2802D008780A28C1
:1043800001D90C7014704F4DA878401CC0B2A870B1
:10439000142802D159480470AC70287860B3012801
:1043A0004AD002284BD003284CD004284DD0E878BE
:1043B000401CC0B2E87004284AD000D9EC70D5E99E
:1043C0000701FFF752FAFFF71DFA484E06F11007F2
:1043D00088B3746040F2DC507C606862786805F0F5
:1043E000F3FC0446706880F0004005F0EDFC2146C7
:1043F000FEF779F8002040E46878401CC0B268708D
:104400000A2803D10220FFF77DFE6C703C4800783B
:1044100001280AD03B480078012809D03A480078A2
:104420000128CCD1FFF7CAFCC9E7FFF7BFFDC6E7FB
:10443000FFF71DFDC3E70FE0FFF723FCBFE7FFF722
:1044400035FBBCE7FFF7EFFAB9E702F02FF8B6E764
:10445000EC7002F01EF9B2E7FFF7A3F9BEE71F48C0
:10446000204A2A49007840B1012806D0022808D005
:104470002748106027480860704727481060274881
:10448000F9E7274810602748F5E770B50D4C00257F
:10449000256201F006FE244824490088C82849D234
:1044A000E06905F05BFA2249E061884200D9E161E8
:1044B00070BD0000DB0FC93FDB0FC9BF000020410A
:1044C00000007A44A400002000806640FB210940DF
:1044D00000605040DC020020E00200202F0000209D
:1044E00000004843480000200000C344600800204A
:1044F000000C00402E0000202D0000205000002065
:104500002900002028000020450000204C00002049
:10451000308C0D3E8D976E3ED589573E7D3F353EA2
:10452000A3540A3E713D0A3E5E0200200000404056
:10453000000052C3A0F20F10B0F5EF7FE06906D87B
:1045400005F0BAF90B49E0618842B0DCB0E74FF4FE
:1045500000060949B04207DB05F000FAE06110F1FE
:10456000FF4FA5D3E561A3E705F0A6F9E061B042EE
:10457000F8DA9DE7000052430000A041002800DC6B
:10458000404280B270472DE9F04116460D4607467D
:104590000024FEF742F9324629463846FEF73DF937
:1045A0002819C1B232463846FEF737F9641CE4B226
:1045B000082CF5D3BDE8F08170B5FE4DFE4E002409
:1045C00035F814003178884201D2012200E000223F
:1045D00000212046FFF7D7FF641CE4B2802CEFD304
:1045E00070BD2DE9F84F4FF48061F44805F04CF9A7
:1045F000F3490A27DFF8CC830878DFF8CC93F34E31
:10460000F34DDFF8D0A30C244FF0640B042811D035
:1046100005287CD00021F0A20846FEF79DF9E84865
:104620000078002874D0012873D0022872D00328A3
:1046300071D098E2EA4800940021026804230846F9
:10464000FEF74FF9E74800940423026800211E207A
:10465000FEF747F9E44800940423026800213C2057
:10466000FEF73FF9E14800940423026800215A2034
:10467000FEF737F9DEA20A210020FEF76DF9DE48C9
:10468000006810F1FF4F01D3DCA200E0DCA20A2198
:104690003220FEF761F9D848006805F095FBFFF776
:1046A0006DFF024603230A213C200094FEF719F90E
:1046B000D44D286810F1FF4F01D3D0A200E0D0A262
:1046C0000A215E20FEF748F9286805F07DFBFFF718
:1046D00055FF024603230A216A200094FEF701F9E0
:1046E000C9A214210020FEF737F9B94D7068A8421D
:1046F00017D3C2A214211E20FEF72EF9706805F010
:104700007CFB0246042314212420009404E09DE055
:10471000F7E1F8E1F9E1FAE1FEF7E3F87068A842A1
:104720000ED2B7A214211E20FEF716F9706805F00C
:1047300064FB02460423142124200094FEF7D1F8E0
:10474000B3A214214220FEF707F9B06810F1FF4F21
:1047500008D3AAA214216220FEF7FEF8B06810F177
:10476000FF4F04D2A6A214216220FEF7F5F8AA4951
:10477000B06805F0F9F805F040FB02460423142167
:1047800068200094FEF7ADF8A4A21E210020FEF7D9
:10479000E3F88F4EDAF804005546B04211D31E21DB
:1047A00096A20846FEF7D8F8686805F026FB024690
:1047B00004231E2124200094FEF793F86868B04279
:1047C0000ED21E218EA20846FEF7C6F8686805F0D4
:1047D00014FB024604231E2124200094FEF781F8D6
:1047E00090A21E214220FEF7B7F8A868B04207D376
:1047F00082A21E216220FEF7AFF8A868B04204D260
:104800007FA21E216220FEF7A7F88349A86805F061
:10481000ABF805F0F2FA024604231E21682000944A
:10482000FEF75FF881A228210020FEF795F8814865
:104830000078012806D080A228214120FEF78CF8BC
:104840007EA21DE17FA2F7E77EA278E3FFF7B4FE28
:104850007DA20A210020FEF77FF869A20A215A20D2
:10486000FEF77AF87A480094032302780A2164203C
:10487000FEF737F877A214210020FEF76DF860A24A
:1048800014215A20FEF768F84B480094032302785D
:1048900014216420FEF725F85BA21E210020FEF7FC
:1048A0005BF87068A84211D31E2154A20846FEF797
:1048B00053F8706805F0A1FA024604231E21242053
:1048C0000094FEF70EF87068A8420ED21E214CA28A
:1048D0000846FEF741F8706805F08FFA0246042397
:1048E0001E2124200094FDF7FCFF49A21E21422036
:1048F000FEF732F8B06810F1FF4F08D33FA21E2137
:104900006220FEF729F8B06810F1FF4F04D23CA2F4
:104910001E216220FEF720F83F49B06805F024F818
:1049200005F06BFA024604231E2168200094FDF76F
:10493000D8FF3AA228210020FEF70EF8244EDAF81C
:1049400004005546B04211D32CA228211E20FEF7A8
:1049500003F8686805F051FA024604232821242050
:104960000094FDF7BEFF6868B0420ED224A2282151
:104970001E20FDF7F1FF686805F03FFA02460423A8
:10498000282124200094FDF7ACFF26A228214220F4
:10499000FDF7E2FFA868B04207D318A228216220E1
:1049A000FDF7DAFFA868B0425CD2282114A2622089
:1049B00056E000003C1D0020860200208C030020F1
:1049C000A4000020300000204400002060080020E7
:1049D00000008080700800204D6F64653A00000080
:1049E0008C020020900200209402002098020020F7
:1049F0004D6F7665583A0000C00000202D00000081
:104A00002B000000C40000204C2D503A0000000094
:104A10004C2D453A0000000000007A44522D503AD7
:104A200000000000522D453A000000004465746506
:104A300063743A00EC0000204F464600454C452088
:104A4000000000004F4E20004D656469616E3A0021
:104A5000850200205468726573686F6C643A0000C8
:104A6000FDF77AFFFE49A86804F07EFF05F0C5F95E
:104A700002460423282168200094FDF732FFF9A2A2
:104A800032210020FDF768FFF8A232213620FDF721
:104A900063FFF7A232214E20FDF75EFFB8F8001049
:104AA0004546B1FBFBF20223322128200094FDF79A
:104AB00018FF28880123B0FBF7F0B0FBF7F107FBE4
:104AC000110232213E200094FDF70BFF28880123BC
:104AD000B0FBF7F107FB1102322146200094FDF7ED
:104AE00000FF99F800004C4600283FF4ADAEAFF24D
:104AF000B80232216920FDF72FFF20780028F4D07A
:104B000021E2DCA204E0DDA202E0DEA200E0DFA2FE
:104B100000213220FDF720FFDE480078012805D073
:104B2000022803D0032801D040B11CE0DA48007805
:104B3000012801D0D9A212E0DBA210E0DD48007804
:104B4000012822D0DC480078012820D0DB480078FA
:104B500001281ED0DA48007801281CD0D9A20A21E9
:104B60000020FDF7F9FEDA48DAA24FF014010078D0
:104B700001284FF0000010D0FDF7EEFED748006886
:104B8000A8423BD3AFF28C123AE0D5A2E7E7D7A216
:104B9000E5E7D9A2E3E7DBA2E1E7FDF7DDFECF48D9
:104BA0000068A84202D3AFF2AC1201E0AFF2B0123B
:104BB00014213220FDF7D0FEC848006805F004F942
:104BC000FFF7DCFC0246042314213C200094FDF78F
:104BD00088FEB8480078012808D0B7480078012836
:104BE00006D0B7480078012802D034E0C8A200E01F
:104BF000C9A214216220FDF7AFFE2CE0AFF2002223
:104C000014213220FDF7A8FEB448006805F0DCF856
:104C1000FFF7B4FC0246042314213C200094FDF766
:104C200060FEBF480068A84202D3AFF2302201E024
:104C3000AFF2342214215E20FDF78EFEB8480068E2
:104C400005F0C2F8FFF79AFC0246032314216A20FC
:104C50000094FDF746FEAFF250221E210020FDF722
:104C60007BFE7068A84214D3AFF270221E21084662
:104C7000FDF772FE706880F0004005F0BEF8024655
:104C800004231E2124200094FDF72BFE7068A84207
:104C90000FD2AFF294221E210846FDF75DFE706828
:104CA00005F0ABF8024604231E2124200094FDF7F2
:104CB00018FEAFF2A4221E214220FDF74DFEB0687F
:104CC00010F1FF4F16D3AFF2CC221E215E20FDF76C
:104CD00043FE9449B06804F047FE05F08EF80246A2
:104CE00004231E2168200094FDF7FBFDB06810F13D
:104CF000FF4F12D2AFF2F8221E215E20FDF72CFEEC
:104D00005749B06804F030FE05F077F802460423F6
:104D10001E2168200094FDF7E4FDAFF20032282147
:104D20000020FDF719FE804EDAF804005546B04227
:104D300014D3AFF2383228211E20FDF70DFE68682B
:104D400080F0004005F059F8024604232821242071
:104D50000094FDF7C6FD6868B0420FD2AFF2603232
:104D600028211E20FDF7F8FD686805F046F8024688
:104D70000423282124200094FDF7B3FDAFF25C3218
:104D800028214220FDF7E8FDA868B04215D3AFF214
:104D9000943228215E20FDF7DFFD6249A86804F007
:104DA000E3FD05F02AF80246042328216820009438
:104DB000FDF797FDA868B04212D2AFF2BC322821AD
:104DC0005E20FDF7C9FD2649A86804F0CDFD05F079
:104DD00014F802460423282168200094FDF781FD81
:104DE0003B480078012838D0B0B3022836D04FA213
:104DF00032210020FDF7B0FD1CA232213E20FDF73C
:104E0000ABFD1BA232215620FDF7A6FDB8F800101D
:104E10004546B1FBFBF20223322130200094FDF71E
:104E200060FD28880123B0FBF7F0B0FBF7F107FB2A
:104E30001102322146200094FDF753FD28880123FA
:104E4000B0FBF7F107FB110232214E200094FDF771
:104E500048FD99F800006DE07BE078E07BE0000021
:104E600000007A4443434420000000002E0000006C
:104E7000560000004E6F726D616C200041766F69C4
:104E800064202000466F6C6C6F772000416C6F6E61
:104E900067202000A4000020500000204661696CBB
:104EA000757265202020000053756363657373205D
:104EB0002020000029000020280000202A000020D7
:104EC000450000204C494E4B494E472E2E2E0000E7
:104ED0002F00002053504545443A0000DC000020DC
:104EE000426C7565746F6F746820000050533220F7
:104EF0002020202020200000524F5320202020205E
:104F000020200000522D43202020202000000000FF
:104F100050692F350000000050692F340000000058
:104F2000E000002000007AC4000080804254414E1E
:104F30004B00000000283FF487ACAFF2045232214E
:104F40006920FDF709FDBDE8F84FFDF717BC77A212
:104F50004EE778A24CE779A24AE710B5002179A282
:104F60000846FDF7F9FC7BA20A210020FDF7F4FCBE
:104F70007CA214210020FDF7EFFC7E4C207820B9A4
:104F80007DA21E211820FDF7E7FC2078012804D11E
:104F90007CA21E211820FDF7DFFC2078022804D116
:104FA0007BA21E211820FDF7D7FC2078032804D10E
:104FB0007AA21E211820FDF7CFFC7BA22821002019
:104FC000FDF7CAFC7CA232210020FDF7C5FCBDE83C
:104FD0001040FDF7D3BB2DE9F0417C48032186B09A
:104FE00000884000A0F5FA6090FBF1F4002C01DA93
:104FF000002402E0642C00DD64247549087810B3B5
:105000000020744E08700025317801291DD07349A5
:10501000714F00280E6872490A6836D0394610462A
:1050200004F0A2FC04F0D0FE04463946304604F0F9
:105030009BFC04F0C9FE06B02246BDE8F0410146E3
:1050400068A005F033B90120DBE76A48684F3946AC
:10505000006804F089FC04F0B7FE0446664839464F
:10506000006804F081FC04F0AFFE0146059502954E
:105070000395049500950023224660A0019505F054
:1050800015F9357006B0BDE8F081B84639461046CE
:1050900004F06AFC04F098FE07464146304604F0EE
:1050A00063FC04F091FE014623463A465BA000955E
:1050B00005F0FCF8E6E770B54448008804F061FEAE
:1050C000454904F083FC044644480121C068FEF7CA
:1050D00053F843480221C068FEF74EF803212046EA
:1050E000FEF74AF80320FEF76EF8504A0021504CB4
:1050F000151D06E013885B06FCD5635C2B80491CFC
:10510000C9B28142F6D370BD70B5002425460A208D
:10511000FDF76EFA641CE4B20544022CF7D340F2AA
:10512000FE30B5FBF0F01349087070BD414B4D20C7
:105130002000000044494646200000005354414EE0
:105140004B000000526F746174652052657369737F
:10515000746F7200546F2053656C656374204361F3
:105160007200000043757272656E74204361722094
:10517000497300002F0000202044696666204361C7
:10518000722000002020416B6D20436172200000DE
:10519000535F54616E6B204361720000425F546143
:1051A0006E6B2043617200005072657373205573FB
:1051B0006572204B65790000546F20456E64205362
:1051C000656C656374696F6E00000000300000203C
:1051D000F8000020FF0000200000C8426008002006
:1051E000700800207B4225643A25647D240000007D
:1051F0000050C347D8010020D40100207B43256420
:105200003A25643A25643A25643A25643A25643A95
:1052100025643A25643A25647D2400007B41256499
:105220003A25643A25643A25647D2400003801401B
:10523000950700202DE9F05F7E4D40F2255631465E
:105240002846FCF70DFC002821D02846FCF7A1FBDE
:10525000794C3146E0602846FCF721FC7749DFF8BD
:10526000E0B1784A0878784F01264FF0000848B13D
:10527000E568DFF8D891A5F1410007281FD8401C48
:1052800020716BE0E068412803D0C4F80880BDE8D5
:10529000F09FA068401CA0600528F8D1C4F80880E1
:1052A0000E706B496D4881F800806A4981F8008072
:1052B000694981F800801060C7F800B0E7E75A2D0F
:1052C00003D00A2D04DC257148E084F8048045E011
:1052D0006349592D06D0582D22D07B2D4ED07D2DDF
:1052E00053D03BE09246106804F038FB5D49CAF8A1
:1052F0000000884201DACAF800105B4800780128F3
:105300002CD0386804F0ACFD584A594B04F049FCE5
:1053100004F0B9FD3860584520DAC7F800B01DE048
:105320009246106804F0C8FA5249CAF80000884250
:1053300001DDCAF800104C48007801280ED038680A
:1053400004F08EFD494A4A4B04F08AFB04F09BFDB1
:105350004FF07E513860884200DD396020780128A6
:105360000DD0022893D199F80310484650290FD048
:105370004178232950D06178A17031E0267060789F
:1053800009F80050401C607081E702202070EAE7B5
:10539000E67041E06178081A04F0F8FC02460B461A
:1053A0000020354905F0F6FEA778054609EB070011
:1053B0000E4610F8010C303804F0E8FC2A4633465B
:1053C00004F0F5FB05460E46206904F049FD2A4627
:1053D000334604F045FB04F056FD7F1E2061A770A4
:1053E000A0780428D6D299F801002449303803283F
:1053F00012D2DFE800F002070C00206904F0E6FAA0
:105400001F4908E0206904F0E1FA1E4903E0206921
:1054100004F0DCFA1C49086084F8008084F80180FC
:1054200084F80280C4F81080BDE8F05F322107489C
:1054300004F02ABA00480040FC00002029000020A7
:105440007CD9203EDC000020E00000208008002005
:10545000280000202A000020450000200000AF4363
:105460000000C841000052432F0000209A999999EA
:105470009999B93F00004844000024400050C347B8
:10548000D4010020D8010020DC0100202DE9F041EA
:1054900004F067FAFB4D06460146686804F064FABA
:1054A00005F1800407463046616E04F057FA29681A
:1054B00004F05AFA394604F0FFF9216E04F0FCF9C1
:1054C000C4E91806BDE8F04104F07EBC2DE9F041C6
:1054D00004F047FAEB4D06460146686804F044FACA
:1054E00005F1800407463046216F04F037FA296839
:1054F00004F03AFA394604F0DFF9E16E04F0DCF921
:10550000C4E91B06BDE8F04104F05EBC2DE9F05F84
:105510008B46824604F025FADA4C814680340146F7
:10552000E06F04F0C9F9D849E067884202DCD74946
:10553000884200D9E167D648D24E594606F58078B0
:1055400005785046D8F8007004F00BFA394604F09C
:1055500005FA0DB3012D2AD0022D33D0316B04F0A2
:1055600003FA0546E16F706B04F0FEF90746F06A36
:10557000494680F0004004F0F7F9394604F0EEF9AE
:10558000294604F0EBF9A067C248C8F800904068CB
:1055900010F0FF4F21D027E0F16804F0E5F905464F
:1055A000E16F306904F0E0F90746B068E0E7B169FF
:1055B00004F0DAF90546E16FF06904F0D5F9074621
:1055C0007069D5E7716A04F0CFF90546E16FB06AFA
:1055D00004F0CAF90746306ACAE7AF48406810F0DD
:1055E000FF4F01D10020E067A06FBDE8F09F2DE9DB
:1055F000F0478A46814604F0B4F9A84C804601463B
:10560000E06804F059F9A049E060884202DC9F4953
:10561000884200D9E1609E489A4D514606789F48DD
:105620000769484604F09DF9394604F097F9012EC0
:105630001ED0022E28D09EB3E96B04F095F90646E1
:10564000E168286C04F090F907464146A86B04F025
:105650008BF9394604F030F9314604F02DF9C4F8DD
:105660001080A0608B48406810F0FF4F25D02BE0E1
:10567000A96C04F079F90646E168E86C04F074F965
:1056800007464146686CE2E7696D04F06DF906462D
:10569000E168A86D04F068F907464146286DD6E731
:1056A000FFE7296E04F060F90646E168686E04F0D1
:1056B0005BF907464146E86DC9E77748406810F056
:1056C000FF4F01D10020E060A068BDE8F0872DE920
:1056D000F04104F046F9714D06460146E86904F0D0
:1056E000EBF86949E861884202DC6849884200D9E0
:1056F000E9613046296A04F031F9624CE16E04F048
:1057000033F90746E969206F04F02EF98046A06E50
:10571000314680F0004004F027F9414604F01EF9BC
:10572000394604F01BF95B492E62A861496811F003
:10573000FF4F06D15849496811F0FF4F01D10021B0
:10574000E961BDE8F0812DE9F047081A04F010FB8B
:10575000524C074601466062E06A04F0ADF85049D9
:10576000E062884202DC4F49884200D9E162484841
:10577000444D00788035B8B3012855D0022838460A
:1057800062D004F021FBFEF7F9FE04F0FAFAA96AF0
:1057900004F0EAF8616A894604F0E6F807464846EC
:1057A000216B04F0DBF8296A04F0DEF80646E16AB2
:1057B000686A04F0D9F88046E869494680F00040FC
:1057C00004F0D2F8414604F0C9F8314604F0C6F8B6
:1057D000394604F0C3F8A062606A20632D4840682F
:1057E00010F0FF4F60D066E0FFE7384604F0ECFAB7
:1057F000FEF7C4FE04F0C5FA296804F0B5F8616A42
:10580000894604F0B1F807464846216B04F0A6F833
:105810001C4DA96F04F0A8F80646E16AE86F04F091
:10582000A3F88046686FC8E73846216B04F096F805
:10583000A96804F099F806466868394680F0004087
:1058400004F092F83146C4E704F0BEFAFEF796FE83
:1058500004F097FAA96904F087F8616A894604F0B0
:1058600083F807464846216B04F078F8296904F06C
:105870007BF80646E16A686904F076F88046E868D5
:105880009BE711E01001002000007A4400007AC478
:105890002F00002060080020700800201002002067
:1058A00000409C4500409CC53B48406810F0FF4FBD
:1058B00001D10020E062A06A07E72DE9F0478A469F
:1058C000814604F04EF8354C80460146E06B03F00B
:1058D000F3FF3349E063884202DC3249884200D951
:1058E000E16331482D4D514606782C48803D076CC8
:1058F000484604F036F8394604F030F8012E1ED040
:105900004EB3022E33D0696D04F02EF80646E16BDB
:10591000A86D04F029F807464146286D04F024F8E4
:10592000394603F0C9FF314603F0C6FFC4F8408092
:10593000A0631E48406810F0FF4F24D02AE0296B76
:1059400004F012F80646E16B686B04F00DF80746A8
:105950004146E86AE2E7E96B04F006F80646E16BC7
:10596000286C04F001F807464146A86BD6E7A96CFD
:1059700003F0FAFF0646E16BE86C03F0F5FF07461B
:105980004146686CCAE70448406810F0FF4F01D1F7
:105990000020E063A06B98E6700800201002002051
:1059A00000409C4500409CC52F000020600800205E
:1059B0002DE9F04FE04E8FB0B08804F0F8F9DF4DDC
:1059C00000222B4604F065F904F05DFA0446708D60
:1059D00004F0EDF900222B4604F05BF904F053FAD1
:1059E00006463021684603F04FFFD54F2046394622
:1059F00003F0B4FFD34DDFF850930446A84203D31D
:105A0000494603F059FF04463946304603F0A6FFE5
:105A10000746A84203D3494603F04EFF0746014616
:105A2000204604F057FA04D24946384603F044FFB2
:105A3000074600263846214603F090FF04F010FA8E
:105A4000C24B002204F025F9CDE90C01204604F0F8
:105A500007FADFF8FCA2BF4D83464FF001086C4601
:105A60000E91304604F0A3F902460B46DDE90C0125
:105A700004F09DF802460B4658460E9903F0F0FFDD
:105A800004F001FA494644F82600884209DDDAF8B4
:105A9000003013B9CAF800802E6003F05FFF44F8AD
:105AA0002600761CB6B20C2EDBD3AB48AB49DFF830
:105AB000B4E280F80080AA484FF0000B3844DFF8C9
:105AC000A89281F800B00EF14806B0F5004F04D856
:105AD0000C20CAF80080286002E0DAF80000E8B381
