:020000040800F2
:10000000081A0020150200080F480008AF3D00083C
:100010000D4800081D080008ED5E00080000000003
:100020000000000000000000000000001550000863
:10003000290E0008000000003F4F00086559000825
:100040002F0200082F0200082F0200082F020008CC
:100050002F0200082F0200082F0200082F020008BC
:100060002F0200082F0200082F0200082F020008AC
:100070002F0200082F0200082F0200082F0200089C
:100080002F0200082F0200087D0500082F0200083B
:100090002F0200082F0200082F0200088D1300080D
:1000A0002F0200082F0200082F0200082F0200086C
:1000B0002F0200082F020008E55900082F0200084F
:1000C0002F0200082F0200082F0200082F0200084C
:1000D0002F020008D55E00082F020008E15E00082C
:1000E0002F0200082F0200082F0200082F0200082C
:1000F000FD5900082F0200082F0200082F020008F7
:100100002F0200082F020008F15900082F020008F2
:100110002F020008E15C00082F0200082F020008EF
:100120002F0200082F0200082F0200082F020008EB
:1001300000F002F800F05FF80AA090E8000C82449A
:100140008344AAF10107DA4501D100F054F8AFF277
:10015000090EBAE80F0013F0010F18BFFB1A43F0A5
:10016000010318470C9500002C9500000A444FF03D
:10017000000C10F8013B13F0070408BF10F8014B06
:100180001D1108BF10F8015B641E05D010F8016B4B
:10019000641E01F8016BF9D113F0080F1EBF10F8AF
:1001A000014BAD1C0C1B09D16D1E58BF01F801CBD2
:1001B000FAD505E014F8016B01F8016B6D1EF9D555
:1001C0009142D6D37047000000230024002500266A
:1001D000103A28BF78C1FBD8520728BF30C148BFAA
:1001E0000B607047642900F07780002070471FB5CE
:1001F0001FBD10B510BD00F093F91146FFF7F7FFD2
:1002000006F0B8FB00F0B1F903B4FFF7F2FF03BC4E
:1002100006F06AFA0948804709480047FEE7FEE70A
:10022000FEE7FEE7FEE7FEE7FEE7FEE7FEE7FEE7A6
:1002300004480549054A064B70470000E359000889
:100240003101000808140020081A002008160020B8
:1002500008160020704700000FB4044910B503AA27
:10026000029800F027F910BC5DF814FB1400002080
:100270002DE9F0410E460446002020622046E16848
:10028000884730B3252805D0D4E901219047206A5A
:10029000401CF2E7E168204600278847050018D097
:1002A000A5F14100192802D820354FF400673246E5
:1002B000294620462760FFF795FF40B1012804D06A
:1002C000F61D26F007060836D8E7361DD6E728467D
:1002D000DAE7206ABDE8F0812DE9F0410646002406
:1002E00010687529314616A510D0AFF3008000289C
:1002F00002DA404213A507E031688A0701D512A54A
:1003000002E0490704D511A5012401E0AFF3008004
:1003100000210A2206F1240709E0B0FBF2FCB0FB41
:10032000F2F302FB1C00303078541846491C0028B8
:10033000F3D123462A463046BDE8F04100F060B8CC
:10034000000000002D0000002B0000002000000035
:100350004FF000020429C0F0128010F0030C00F0EE
:100360001B80CCF1040CBCF1020F18BF00F8012B6C
:10037000A8BF20F8022BA1EB0C0100F00DB85FEA3A
:10038000C17C24BF00F8012B00F8012B48BF00F806
:10039000012B70474FF0000200B513469446964675
:1003A000203922BFA0E80C50A0E80C50B1F1200188
:1003B000BFF4F7AF090728BFA0E80C5048BF0CC036
:1003C0005DF804EB890028BF40F8042B08BF704794
:1003D00048BF20F8022B11F0804F18BF00F8012B06
:1003E0007047704770477047704710B500F074F859
:1003F000006810BD10B5044600F06EF8046010BD32
:100400002DE9F0470D4699469246044600F124082E
:100410000168880604D5E06921F01001216000E040
:100420000120A84201DD471B00E00027A1697A19DD
:1004300002EB0900081AA0612078C00602D4204609
:10044000AFF30080002608E0D4E901211AF8060085
:100450009047206A401C761C20624E45F4DB2078D1
:10046000C0060AD52046AFF3008006E0D4E901219A
:1004700030209047206A401C2062381EA7F10107F7
:10048000F4DC07E0D4E9012118F805009047206A60
:10049000401C2062281EA5F10105F3DC2046AFF3C5
:1004A00000802078000602D50220BDE8F0870120F8
:1004B000FBE70000074B70B50D467B4400F015F8D4
:1004C0000446284600F024F810B14FF0FF3070BD0C
:1004D000204670BD8364000000487047A8130020C8
:1004E00001694A1C02610878704700B58FB0CDE9F8
:1004F00001310021059105497944CDE903101146E8
:100500006846FFF7B5FE0FB000BD0000E5FFFFFF36
:10051000007B00F08000704700487047A81300205F
:100520007546FFF7F9FFAE4605006946534620F0D1
:100530000700854618B020B5FFF77AFEBDE82040D9
:100540004FF000064FF000074FF000084FF0000B8F
:1005500021F00701AC46ACE8C009ACE8C009ACE842
:10056000C009ACE8C0098D46704710B50446AFF32A
:1005700000802046BDE81040FFF746BE10B5044895
:1005800001F0A9FABDE81040024801F0A4BA000049
:10059000E80100201802002070B504460068816858
:1005A000C943C90717D1816821F00101816001F0B9
:1005B00023FF05460AE000BF01F01EFF401B022892
:1005C00004D920688068C043C00706D020688068CE
:1005D000C043C007F0D0002070BDA06A40F01000FA
:1005E000A062E06A40F00100E062012070BD0000FE
:1005F000F8B500260446009600688168C943C9071B
:100600002DD0816841F001018160164816490068CB
:10061000B0FBF1F000E0401E00900028FBD101F09B
:10062000EBFE054616E000BF01F0E6FE401B022887
:1006300010D920688068C043C0070BD0A06A40F082
:100640001000A062E06A40F00100E06284F82460DB
:100650000120F8BD20688068C043C007E4D10020B5
:10066000F8BD00002400002040420F002DE9F043B7
:100670002F48032187B000884000A0F5FA6090FB66
:10068000F1F5002D01DA002502E0642D00DD64257E
:10069000DFF8A090D9F80C0007F034FD264C274F66
:1006A00022463B4607F01EFA07F086F9060000D501
:1006B0004642DFF88C80D8F80C0007F023FD224674
:1006C0003B4607F00FFA07F077F9010000D54142E9
:1006D0001C4A107888B100201B4F107000243A7813
:1006E000012A0CD0E8B1D9F80020D8F8001007B0E2
:1006F00016A0BDE8F043FFF7AFBD0120ECE71648B8
:10070000059402940394049400940194028813487D
:100710000023018812A0FFF79FFD3C7007B0BDE8E1
:10072000F0832B46324616A00094FFF795FDF5E7BF
:1007300006000020100900209A9999999999F13F93
:1007400000090020E4010020A00000207B42256475
:100750003A25647D240000009400002096000020CB
:100760007B4325643A25643A25643A25643A256436
:100770003A25643A25643A25643A25647D240000CC
:100780007B4125643A25643A25643A25647D24003A
:100790001F48002201781F4879B101290FD0022992
:1007A0000FD003290ED004290FD0052911D0062916
:1007B00015D0072917D0082927D0426117E0C3694F
:1007C0000AE0C2694261026A11E0C26982F0004235
:1007D00009E0C36983F00043C0E9053208E0C2695B
:1007E00082F00042EEE74261026A82F000428261DA
:1007F000094A1278012A07D1042901D0062903D118
:10080000816981F0004181617047C269EBE70000B6
:10081000A10000207000002005000020FEE700007D
:1008200010B50B4B4FF4004158B10A4C2268521CD2
:100830002260824204DB184601F0D1FD00202060D6
:1008400010BDBDE810400022184601F0D0BD0000E8
:1008500000080140280000203EB500211448009106
:100860000191124A029102608160017301750124B5
:100870004FF460220461C261416001F09FF908B148
:1008800000F088FD0F20CDE90004072002906946A2
:10089000074801F07DF808B100F07CFD044801F044
:1008A0000DFB034801F006F83EBD000000240140A6
:1008B000E8010020F0B5174885B0816941F00401D6
:1008C0008161816901F004010491816941F01001A5
:1008D00081618069012400F0100004901020CDE9AE
:1008E00000040D4F022569460395384601F076FC59
:1008F0002026CDE9006469463846039501F06EFC78
:100900000020CDE900606946044801F067FC05B0AD
:10091000F0BD00000010024000080140001001403E
:1009200010B5FFF7C7FFBDE81040FFF795BF000007
:100930002DE9F04104F004FB00F02EFD3D4E30881F
:1009400007F096FD3C4908603C48407907F090FD6F
:100950004FF0854100F08AF8394C0546206039484F
:100960000178012920D03848FA2731B30229A0465E
:1009700041D0854256DB3688B6FBF7F007F078FDAC
:10098000324907F0BDFD07F01FFD0446B6FBF7F046
:1009900007F06EFD2E4900BF07F0B2FD07F014FD11
:1009A00022460146444640E02A48854202DC2A4865
:1009B000854200D92060BDE8F081854217DB36888A
:1009C000B846B6FBF8F007F053FD244907F098FD50
:1009D00007F0FAFC0746B6FBF8F007F049FD20499E
:1009E00007F08EFD07F0F0FC01463A461DE06FF07F
:1009F000AE02AF2119E0854210DB3688B6FBF7F076
:100A000007F036FD174907F07BFD07F0DDFC0446D3
:100A1000B6FBF7F007F02CFD1349BDE76FF0DB02E2
:100A2000DC2102E06FF08B028C21284604F06EFA84
:100A3000C0E700009400002084000020B4000020E3
:100A4000880000200500002000007A4300000CC34D
:100A500000000C43DB0F493FDB0F49BF00002FC3F1
:100A600000002F4300005CC300005C432DE9F04709
:100A70008A46804607F041FE3F4C81460146606849
:100A800007F06CFB3D496060884202DC3C498842CB
:100A900000D961603B48384D514606783648803D64
:100AA0008768404607F029FE394607F031FE012EDF
:100AB0001FD0EEB3022E48D0E96A07F021FD0646AA
:100AC0006168286B07F01CFD07464946D5F82800E9
:100AD00007F016FD394607F041FB314607F03EFBB3
:100AE000C4F8089020602848406810F0FF4F38D0C4
:100AF0003EE0DFF8988006464146A86807F0A2FB72
:100B0000314607F0FDFC07464146E86807F09AFBCE
:100B1000616807F0F5FC06464146686807F092FBFD
:100B2000494607F0EDFC314607F018FB3946D5E79A
:100B3000FFE7696907F0E4FC06466168A86907F009
:100B4000DFFC074649462869C2E7296A07F0D8FC56
:100B500006466168686A07F0D3FC07464946E869BB
:100B6000B6E70B48406810F0FF4F01D100206060ED
:100B70002068BDE8F0870000D801002000409C45B7
:100B800000409CC505000020000900200000C8426C
:100B9000100900200A480C4902780A4842B1012A8B
:100BA00006D0022A08D0094A026009480860704746
:100BB000084A02600848F9E7084A02600848F5E771
:100BC000050000200C00002010000020E73A0A4336
:100BD00000006943997C524300002443A716074351
:100BE0000000074310B500211DA2084603F07EFF58
:100BF0001FA20A21002003F079FF21A21421002066
:100C000003F074FF224C207820B922A21E21182064
:100C100003F06CFF2078012804D121A21E211820A6
:100C200003F064FF2078022804D120A21E2118209E
:100C300003F05CFF2078032804D11FA21E21182096
:100C400003F054FF1FA22821002003F04FFF21A230
:100C50003221002003F04AFFBDE8104003F09CBEA3
:100C6000526F74617465205265736973746F72009A
:100C7000546F2053656C65637420436172000000FB
:100C800043757272656E742043617220497300006F
:100C90000500002020446966662043617220000040
:100CA0002020416B6D20436172200000535F54612E
:100CB0006E6B204361720000425F54616E6B204393
:100CC0006172000050726573732055736572204B1A
:100CD00065790000546F20456E642053656C656330
:100CE00074696F6E0000000070B51448008807F04A
:100CF000BFFB134907F0A6FA044612480121C06859
:100D000000F068F810480221C06800F063F8032181
:100D1000204600F05FF8032000F01CF80B4A002189
:100D20000B4B141D06E015686D06FCD55D5C256057
:100D3000491CC9B28142F6D370BD000006000020F4
:100D40000000C842000900201009002000380140BE
:100D50007C0800200A2839D890B31D4924220B288A
:100D60000A7033D2DFE800F032060A0E12161A1E9D
:100D700022272D000520487106207047092048725F
:100D80000A2070470D2048730E20704711204874C8
:100D90001220704715204875162070471920487694
:100DA0001A2070471D2048771E207047212081F8A7
:100DB000210022207047252081F825002620704739
:100DC00004E0292081F829002A20F8E70020F6E72E
:100DD0007C08002003B50A2912D8002910D00B295D
:100DE0000ED2DFE801F00D06080E10121416181AC4
:100DF0001C00012200E005220A49684600F044FB7D
:100E00000CBD0922F8E70D22F6E71122F4E71522BE
:100E1000F2E71922F0E71D22EEE72122ECE7252276
:100E2000EAE700007C080020704700000E4910B57A
:100E300009780020012915D10C4A002140F2BB237A
:100E400001EB410402EB44042488641E9C4201D25D
:100E5000401CC0B2491CC9B22829F1D3032801D9CA
:100E6000012010BD002010BD71000020B51200202F
:100E70002DE9F04107F041FC1B4C05460146606E30
:100E800007F06CF919496066884202DC184988420B
:100E900000D961662846A16E07F03AFC124E803EEA
:100EA000F16B07F02DFB0746616E306C07F028FBF5
:100EB00080462946B06B07F023FB414607F04EF908
:100EC000394607F04BF90B49A5662066496811F0D1
:100ED000FF4F06D10849496811F0FF4F01D10021A9
:100EE0006166BDE8F08100005801002000007A44EE
:100EF00000007AC400090020100900200020401CD6
:100F00000A28FCDB7047000010B50F4C4FF4E1528B
:100F1000231D002804DA226000F5E150186003E088
:100F20001A60C0F5E1502060074B0833181D0029F6
:100F300004DA1A6001F5E151016010BD0260C1F5EB
:100F4000E150186010BD00003404004070B586B058
:100F500000241648019402940394816941F004012D
:100F60008161816901F004010491816941F01001FE
:100F7000816180690E4E00F01000049010200090F6
:100F80006946304601F02AF92025CDE9005469462A
:100F90003046029401F022F9CDE900546946054833
:100FA000029401F01BF906B070BD00000010024071
:100FB000000801400010014010B5FFF7C7FFBDE871
:100FC000104000F001B800003EB500211448009127
:100FD0000191124A0291026081600173017501243E
:100FE0004FF460220461C261416000F0E7FD08B186
:100FF00000F0D0F90720CDE901400F2000906946AC
:10100000074800F0C5FC08B100F0C4F9044800F03E
:1010100055FF034800F04EFC3EBD00000024014097
:10102000E80100202DE9F047042000F0C9FA584DEE
:10103000E860052000F0C4FA28610F2000F0C0FA33
:1010400068612A6902EBC20101EB0213E96801EB56
:101050008304C72303FB00431144084493FBF0F0CF
:10106000A861FFF7E3FE4B4F4B4C60B14B48007853
:1010700000287DD05FF00000FFF7D2FB0020386031
:101080002060BDE8F087464E308807F0F1F93860FF
:10109000444F387868B301282BD06421A86900F048
:1010A00095F820600020FFF7BBFB3978012922D09A
:1010B0003D48FA2541B32768022946D087425EDBC6
:1010C0003688A846B6FBF8F007F0D2F9374907F0A2
:1010D00017FA07F079F90546B6FBF8F007F0C8F9FA
:1010E000334900BF07F00CFA07F06EF901462A46B3
:1010F00048E05C21D2E72F492068884202DC2E4973
:101100008842BED92160BCE727688046474518DB86
:101110003088814607F0ACF9414607F093F827493B
:1011200007F0EEF907F050F90646B9FBF5F007F0C5
:101130009FF9234907F0E4F907F046F901463246E2
:1011400020E06FF0AE02AF211CE0874213DB36884F
:10115000A846B6FBF8F007F08BF91A4907F0D0F96A
:1011600007F032F90546B6FBF8F007F081F900E028
:101170000CE01549B6E76FF0DB02DC2102E06FF00E
:101180008B028C21384603F0C1FE79E7642073E7B7
:10119000B400002084000020880000200A00002005
:1011A000960000200500002000007A4300000CC3D8
:1011B00000000C43DB0F493FDB0F49BF00002FC38A
:1011C00000002F4300005CC300005C432DE9F047A2
:1011D00007460D46C81B07F033F9644C0146E0662C
:1011E000606F06F0BBFF62496067884202DC6149BC
:1011F000884200D9616760480678E81B07F020F94B
:1012000007F0E2F8594D803D9EB3012E4ED0022EDC
:101210007DD005F039FC07F02BF9216807F070F953
:10122000E16E894607F06CF907464846A16F07F062
:101230006FFAA96F07F064F90646616FE86F07F06F
:101240005FF980464946686F07F05AF9414606F053
:1012500085FF314606F082FF4FEA070106F07EFF68
:101260002067E06EA0674548406810F0FF4F73D0DC
:1012700079E0FFE705F008FC07F0FAF8296D07F0C0
:101280003FF9E16E894607F03BF907464846A16FF2
:1012900007F03EFAA96C07F033F90646616FE86C77
:1012A00007F02EF980464946686CCDE705F0ECFB67
:1012B00007F0DEF806463249286E06F0C3FF3146D5
:1012C00007F01EF9E16E8A4607F01AF9804650468B
:1012D000A16F07F01DFADFF8AC9006464946A86DED
:1012E00006F0B0FF314607F00BF907464946E86DB6
:1012F00006F0A8FF616F07F003F906464946686DDE
:1013000006F0A0FF514607F0FBF8314600E006E08A
:1013100006F024FF394606F021FF41469EE705F01E
:10132000B3FB07F0A5F8296F07F0EAF8E16E8946EC
:1013300007F0E6F807464846A16F07F0E9F9A96EFD
:1013400007F0DEF80646616FE86E07F0D9F88046D0
:101350004946686E78E7FFE70B48406810F0FF4F9A
:1013600001D100206067206FBDE8F08758010020A0
:1013700000409C4500409CC505000020000900205D
:1013800000007A440000C842100900204FF40070A9
:1013900000F018BF72B6FEE770B53949394C0F231B
:1013A0000888208102462370257831F8156086422E
:1013B00000D330466D1CEDB225707B2DF4D3208117
:1013C00062812370257831F81560964200D8324644
:1013D0006D1CEDB225707B2DF4D310446281C0F3F7
:1013E0004700A0712370237831F81350854212D939
:1013F00001EB4302568886420DD9968886420AD967
:10140000D688864207D21689864204D255898542FB
:1014100001D2A37004E05B1CDAB22270762AE2D318
:1014200076226270D3B231F81320824212D201EBDD
:101430004302558885420DD2958885420AD2D588C7
:10144000854207D91589854204D95289824201D93A
:10145000E37004E05B1EDAB262700F2AE2D8E07833
:10146000A1780844400860712179401A05F00CFB0E
:101470005A2801D9207960716079207170BD00000F
:1014800052090020B400002003788B5411444378A3
:101490004B7082788A70C078C87070472DE9F05F11
:1014A0008B46824607F029F93F4C81460146606D24
:1014B00006F054FE3D4E6065B04201DD666503E016
:1014C0003B49884200D961653A48374D594607780B
:1014D0003548803DD0F85880504607F00EF9414617
:1014E00007F016F9012F1ED0022F3BD0CFB3E968C9
:1014F00007F006F80646616D286907F001F807460F
:101500004946A86806F0FCFF394606F027FE31463A
:1015100006F024FEC4F8589020652748406810F073
:10152000FF4F37D03DE00746B0463146A86906F088
:1015300089FE394606F0E4FF07464146E86906F0B1
:1015400081FE616D06F0DCFF06464146686906F0E3
:1015500079FE494606F0D4FF314606F0FFFD3946D4
:10156000D6E70BE0696A06F0CBFF0646616DA86A14
:1015700006F0C6FF07464946286AC3E7296B06F00E
:10158000BFFF0646616D686B06F0BAFF0746494625
:10159000E86AB7E70948406810F0FF4F01D1002022
:1015A0006065206DBDE8F09F5801002000007A447E
:1015B00000007AC405000020000900201009002066
:1015C0000EB569460090072002900120019007485F
:1015D00000F0DEF9054800F071FC1E21034800F020
:1015E000CFFB024800F074FA80B20EBDE801002083
:1015F0002DE9F041164CA168206802F0D9FB06F0F5
:101600001FFF04F110056060A968286802F0F6FB6E
:1016100006F016FF68600F48007808B1052807D16A
:10162000606803F0A3F86060686803F0C7F868605A
:10163000094E606877423246394603F067FC6060C5
:1016400032463946686803F061FC6860BDE8F081A5
:1016500000090020700000200CE5FFFF2DE9F34F8A
:101660005F48DFF88081DFF880910078DFF87CA1A7
:10167000DFF87CB183B00D464FF0FF34012845D030
:101680005C49284606F0DEFD5B49096806F038FF34
:10169000214607F012F90446039906F05FFD05465E
:1016A0002046039907F029F8D8F8001004460E46A2
:1016B000284606F0C7FD514906F022FF4D4649462F
:1016C00006F01EFF022107F0F8F85746514606F0D3
:1016D000B9FD06F079FECBF808003146204606F049
:1016E000B1FD474906F00CFF4FEA050106F008FF7F
:1016F000022107F0E2F8394606F0A4FD06F064FE88
:101700003B491031886005B0BDE8F08F3D4928465F
:1017100006F0F6FE3C4906F021FD06F055FE3B4979
:101720008860284606F0EEFC0546019105F0CCFEE7
:101730000022374B06F0D6F94FF0FF3207F08FF852
:101740000022344B05F0E0FF0022334B05F020FF70
:1017500006460F46039806F0D5FC044632463B4643
:10176000009106F0BFF905F0E1FE4646D8F80010FA
:1017700006F068FD214906F0C3FE494606F0C0FEAA
:10178000022107F09AF85746514606F05BFD06F035
:101790001BFECBF808002846019905F095FE0022B3
:1017A0001B4B06F09FF94FF0FF3207F058F800226C
:1017B000184B05F0A9FF0022174B06F0C7FA0246A6
:1017C0000B462046009906F08DF905F0AFFE316812
:1017D00006F038FD0A4906F093FE494686E7000008
:1017E000050000200C0000200000F04100004843EC
:1017F00000090020E12E654210000020000050C1C9
:1018000000005041AE2720440080BB4470000020FF
:1018100000806440000062400000F03F2DE9F05F6E
:10182000042003F0D7FB1E4C40422060082003F048
:10183000D1FB04F11006454235602068404206F0B5
:10184000FFFD184F394606F05BFEDFF85C8041462D
:1018500006F0F8FCDFF854A0514606F0F3FC1449FA
:1018600009688B4606F04CFE6FF00109494607F007
:1018700024F8E060284606F0E3FD394606F040FE15
:10188000414606F0DFFC514606F0DCFC594606F006
:1018900037FE494607F011F8F060BDE8F09F000000
:1018A00000090020000048430000F04100005041C2
:1018B0000C000020F8B500250446009590F824009F
:1018C000012808D0012084F824002046FEF764FE99
:1018D000060002D053E00220F8BDA06A20F4885030
:1018E00040F00200A062022000F038FE264909689C
:1018F000B1FBF0F0400000E0401E00900028FBD15A
:101900002046FEF775FE2068816841F0080181607D
:1019100000F072FD074608E000F06EFDC01B0A28CB
:1019200003D920688068000715D420688068000704
:10193000F2D42068816841F00401816000F05CFD10
:10194000074612E000F058FDC01B0A280DD9206898
:101950008068400709D5A06A20F0020040F010001E
:10196000A06284F824500120F8BD206880684007F8
:10197000E8D4A06A20F0020040F00100A06284F8E0
:1019800024503046F8BD00002400002070470000BD
:10199000F8B50024009490F824202546012A12D09E
:1019A000012280F824204A681F23072A0DD20668E6
:1019B000776B521E02EB820293409F430B68934069
:1019C0001F43776319E00220F8BD06680D2A0AD28A
:1019D000376BD21F02EB820293409F430B68934008
:1019E0001F43376309E0F76A0D3A02EB8202934026
:1019F0009F430B6893401F43F7620A6807230668FA
:101A00000A2A0AD3F7680A3A02EB420293409F433C
:101A10008B6893401F43F76008E0376902EB42028E
:101A200093409F438B6893401F4337610A68102A95
:101A300001D0112A20D1124B02689A4217D1936823
:101A40001B0219D4936843F40003936009681029BA
:101A500012D10C490C4A0968B1FBF2F101EB81018A
:101A6000490000E0491E00910029FBD104E0816A91
:101A700041F020018162012480F824502046F8BD05
:101A8000002401402400002040420F000B4910B503
:101A9000884212D1084600F01BF880B206F0E8FC3C
:101AA000074906F02DFD074906F02AFD064906F014
:101AB00027FD06F0A5FC0549088010BD180200208E
:101AC0006740533A000030410000C842080000203F
:101AD0000068C06C704710B504460068416889060C
:101AE00026D50168890723D5A16AC90603D4A16A4E
:101AF00041F40071A1628168C1F34241072910D10C
:101B0000217B71B9416821F020014160A06A20F475
:101B10008070A062A06AC00403D4A06A40F00100F3
:101B2000A0622046FFF7B2FF21686FF01200086044
:101B30002068416809062ED5016849072BD5A16A9E
:101B4000C90603D4A16A41F40051A1628168C1F3BE
:101B50000231072909D04168490515D48168C1F3CC
:101B60004241072910D1217B71B9416821F08001E0
:101B70004160A06A20F48050A062A06AC00503D42E
:101B8000A06A40F00100A0622046FFF7FFFE216836
:101B90006FF00C0008602068416849060DD50068A8
:101BA000C0070AD0A06A40F48030A062204600F04E
:101BB00095F821686FF00100086010BD2DE9F04133
:101BC00004004FF000057FD0A06A002628B9E66225
:101BD00084F82460204600F083F82046FEF7DCFC01
:101BE000A16AC90600D420B1A06A40F01000A0622A
:101BF0006AE0A16A21F4885141F00201A1623349EF
:101C000023688B42E16904D1B1F5402F01D14FF433
:101C10000021277B4FF4807C41EA470261680A4338
:101C2000A168614508D0012906D0002194F814E08C
:101C3000BEF1010F02D00AE06146F7E7C7B1A76A1B
:101C400047F02007A762E76A47F00107E7625F688D
:101C500027F469470F435F60236899681C4F394038
:101C600011439960A16861450BD0012909D00CE0AE
:101C7000DFF860E0A7690EEB47370F4347F40061D8
:101C8000E5E7218A0D05A5F580152168CB6A23F4C7
:101C900070032B43CB62216889680F4B1940914236
:101CA00008D1E662A16A21F0020141F00101A162BE
:101CB000BDE8F081A06A20F0020040F01000A062B0
:101CC000E06A40F00100E0620120F1E7003C0140E1
:101CD000FDF7E1FF00E0FFFFFE0E1FFF7047000071
:101CE00010B586B000210091019102910391204C22
:101CF0000368204903222048A34217D18B6943F48B
:101D000000738B618B6903F4007304938B6943F058
:101D100010038B61896901F0100104910121CDE963
:101D20000012694600F05AFA06B010BD134CA342E7
:101D3000FAD18B6943F480638B618B6903F4806310
:101D400004938B6943F010038B61896901F01001E2
:101D500004910221CDE90012694600F03FFA002209
:101D60001146122000F0C8FB122000F0B8FBDBE7A0
:101D700000240140001002400010014000280140F2
:101D80002DE9F84300270D460446009700F034FB88
:101D9000804620688168C90508D5A06A40F0200007
:101DA000A06284F824700120BDE8F8834168C90569
:101DB00003D4C06A10F4700F2AD0022000F0CEFBCA
:101DC0003B490968B1FBF0F62068036939490B42C9
:101DD0004FEA61014FEAA1121FD1C3684FEA611CAB
:101DE00013EA0C0F19D103690B4225D1C0681042C8
:101DF00022D1142023E0681C0AD02DB100F0FCFA97
:101E0000A0EB0800A84203D920680068800725D508
:101E1000206800688007EED52DE003690B4202D1EF
:101E2000C168114206D0026923490A4206D1C0683E
:101E3000084203D1542002E0292000E0FC20464360
:101E4000009816E0681C11D02DB100F0D5FAA0EB77
:101E50000800A8420AD90098B04207D2A06A40F010
:101E60000400A06284F8247003209DE70098401CC1
:101E70000090B042E6D321686FF012000860A06ABB
:101E800040F40070A06220688068C0F342400728D8
:101E90000CD1207B50B9A06A20F48070A062A06AA7
:101EA000C00403D4A06A40F00100A06200207BE7D8
:101EB00024000020244992244992240070B504464D
:101EC00090F8240001280DD0012084F82400204639
:101ED000FEF78EFB02004FF0000005D084F82400CE
:101EE000104670BD022070BDA16A40F201239943E3
:101EF00041F48071A1621F4D23681F49AB4218D184
:101F00000E6816F4702F14D0A66A46F48016A662E6
:101F10000E68760505D5A66A26F4005646F4805666
:101F2000A662A66AF6040AD5E66A26F00606E66206
:101F300006E0A66A26F48016A6625E68E9E7E0621B
:101F400084F824006FF00200186020688368C3F3EF
:101F50004243072B05D1A84208D1096811F4702F1C
:101F600004D0816841F480118160B9E7816841F44F
:101F7000A001F9E7002801400424014070B504469F
:101F800090F8240001280DD0012084F82400204678
:101F9000FEF72EFB02004FF0000005D084F824006D
:101FA000104670BD022070BDA16A40F601639943DE
:101FB00041F48071A162224D23682249AB4218D1BD
:101FC0000E6816F4702F14D0A66A46F48016A66226
:101FD0000E68760505D5A66A26F4005646F48056A6
:101FE000A662A66AF6040AD5E66A26F00606E66246
:101FF00006E0A66A26F48016A6625E68E9E7E0625B
:1020000084F824006FF0020018602068436843F0F1
:102010002003436020688368C3F34243072B05D144
:10202000A84208D1096811F4702F04D0816841F4E6
:1020300080118160B4E7816841F4A001F9E70000F4
:10204000002801400424014010B590F8211000221E
:10205000022905D00421816380F82020012010BDD1
:1020600001680B6823F00E030B6001680B6823F016
:1020700001030B6090F84030C46B012101FA03F3B7
:10208000636080F8211080F82020104610BD000009
:102090002DE9F05F90F821100024022903D00421DB
:1020A0008163012485E001680A6822F00E020A605B
:1020B00001680A6822F001020A603F4E3E4FB215E5
:1020C000DFF8F4C0DFF8F090DFF8ECA0DFF8E8B05C
:1020D000DFF8E4E00168783F13011502ACF1640C0D
:1020E000A9F15009AAF13C0AABF1280BAEF1140E8C
:1020F0004FF48018B14227D9B9420ED0614512D0B1
:1021000049451DD0514518D0594518D0714501D1C8
:10211000424615E0294EB14201D1012210E0274E7E
:102120001436B14201D110220AE0244E2836B142C1
:1021300006D0224A3C32914201D11A4600E02A469A
:102140001E49091F0A602BE0B94213D0614517D020
:10215000494522D051451DD059451DD0714501D169
:1021600042461AE0B14202D14FF0807215E0134EA0
:10217000B14201D1012210E0104E1436B14201D11A
:1021800010220AE00D4E2836B14206D00B4A3C32EE
:10219000914201D11A4600E02A46074980394A6037
:1021A000012180F82110002180F82010416B01B13D
:1021B00088472046BDE8F09F8000024008040240A6
:1021C00070470000044910B50A68024202D0086056
:1021D000FFF7F6FF10BD0000140401402DE9F84F91
:1021E000DFF8C891002409F1040A0AF1040B234620
:1021F0000F270BF1040ED1E00125A54006EA0502E8
:10220000AA4276D1DFF8A8C14E68A6EB0C08664555
:102210002BD00DDC032E34D005DC36B3012E19D0C3
:10222000022E2FD11BE0112E16D0122E2AD119E02A
:10223000B8F5881F19D006DCB8F5803F15D0B8F581
:10224000801F1FD111E0B8F5001F0ED0B8F5041F94
:1022500018D10AE0CB6815E0CB681B1D12E0CB68F3
:1022600008330FE0CB680C330CE08B682BB1012BEB
:102270004FF0080303D0456104E0042302E0056148
:1022800000E00023FF2A01D8064601E000F1040621
:102290004FEA840501D9A5F12005D6F8008007FA98
:1022A00005FC28EA0C0803FA05F548EA0508C6F813
:1022B00000804D68ED0070D53E4DAE6946F00106D8
:1022C000AE61AD6924F0030605F0010500953A4DB5
:1022D00006EB050CDCF80850A607360F07FA06F8DF
:1022E00025EA0805DFF8D480404503D14FF0000807
:1022F00025E052E0DFF8C880404502D14FF00108E8
:102300001DE0DFF8C080404502D14FF0020816E022
:10231000DFF8B480404502D14FF003080FE0DFF84A
:10232000AC80404502D14FF0040808E0DFF8A080FF
:10233000404502D14FF0050801E04FF0060808FAC9
:1023400006F848EA0508CCF808804D68D9F800601E
:10235000ED034D4601D5164300E096432E604D68CF
:10236000DAF80060AD03554601D5164300E0964308
:102370002E604D68DBF80060ED025D4601D5164326
:1023800000E096432E604D68DEF80060AD027546B1
:1023900001D5164300E096432E60641C0A68164679
:1023A000E2407FF429AFBDE8F88F0000000401404F
:1023B0000000111000100240000001400008014020
:1023C000000C0140001001400014014000180140C1
:1023D000001C01408068084000D001207047C2689E
:1023E00021EA02030A4043EA0241016170470AB14F
:1023F000016170470904FBE70148806870470000ED
:1024000018000020024881680278114481607047FA
:1024100018000020074810B5016841F01001016064
:10242000032000F089F8032000F006F800F024F8FB
:10243000002010BD0020024070B50D4D04464FF441
:102440007A712878B1FBF0F00A490968B1FBF0F025
:1024500000F0E0FB48B9102C07D200222146501EA4
:1024600000F04AF800206C6070BD012070BD0000D3
:1024700018000020240000200E4808B5816941F0B2
:1024800001018161816901F001010091C16941F09F
:102490008051C161C06900F080500090052000F0BB
:1024A0004BF80548416821F0E06141F0007141605E
:1024B00008BD0000001002400000014000280DDBB4
:1024C00000F01F02012191404009800000F1E0204E
:1024D000C0F88011BFF34F8FBFF36F8F7047002894
:1024E00009DB00F01F02012191404009800000F14A
:1024F000E020C0F800117047F0B40E4B1B680C468A
:10250000C3F30223C3F10705042D00D90425191DC7
:10251000072901D2002300E0DB1E012606FA05F19F
:10252000491E214099409E40761E16403143F0BC22
:1025300003F050BD0CED00E0064900F0070208680A
:102540004FF6FF03184040EA0220034A1043086098
:10255000704700000CED00E00000FA0510B52CA457
:1025600001461DCC86B08DE81D002DA02D4C0068C5
:102570000490002004292FD00BDC01292FD0022940
:1025800028D100F071F96168C1F38131491C49001B
:102590001EE0082920D010291CD161682268D201D0
:1025A00018D5C1F38342C9031DF8020009D561683B
:1025B00004AAC1F34041515C1B4AB2FBF1F148430C
:1025C00001E01A4948436168490203D440000321ED
:1025D000B0FBF1F006B010BD00F056F9FAE7226A40
:1025E000C2F30121012903D1920701D5C803F1E704
:1025F000022905D1626A920702D549F64040E9E70F
:102600000329E7D121688903E4D54FF22440E1E7AB
:1026100002030405060708090A0B0C0D0E0F101023
:10262000010200000010024000127A0000093D0083
:102630002DE9F84305460078354CC00754D0E069D1
:102640000026C00008D4E06940F08050E061E069F5
:10265000012600F0805000902E480168C90512D470
:102660000168804641F480710160FFF7C5FE0746AE
:1026700005E000BFFFF7C0FEC01B642823D8D8F8D0
:102680000000C005F6D5206A10F4407021D0A9885A
:1026900001F4407181421CD0206A1F49012220F4BC
:1026A00040700A6000220A602062C00711D0FFF764
:1026B000A3FE074641F2883808E000BFFFF79CFE02
:1026C000C11B414502D90320BDE8F883206A800779
:1026D000F4D5206A696820F44070084320621EB176
:1026E000E06920F08050E0612878800705D56068B7
:1026F000A96820F44040084360602878C00605D5EA
:102700006068696920F48000084360600020DBE7AE
:102710000010024000700040400442422DE9F047A2
:102720000F46050061D0434E306800F00700B84204
:1027300009D2306820F0070038433060306800F07C
:102740000700B84251D128683B4C810712D5400799
:1027500003D5606840F4E06060602878000703D526
:10276000606840F4605060606068A96820F0F00024
:10277000084360602878C00728D06868012810D016
:102780002168022810D0890700292EDA616821F01B
:10279000030101436160FFF72FFE804641F2883953
:1027A0000DE021688903EFE78901EDE7FFF724FEDB
:1027B000A0EB0801494502D90320BDE8F087606815
:1027C000696800F00C00B0EB810FEFD1306800F0C9
:1027D0000700B8420BD9306820F00700384330605A
:1027E000306800F00700B84201D00120E5E7287802
:1027F000400705D56068E96820F4E0600843606040
:102800002878000706D56068296920F4605040EAFE
:10281000C100606000F038F86168084AC1F3031134
:10282000515CC8400649086006480068FFF704FE8E
:102830000020C2E700200240001002403689000854
:10284000240000201C000020044805490068496855
:10285000044AC1F30221515CC840704724000020A3
:10286000001002404689000804480549006849688C
:10287000044AC1F3C221515CC840704724000020C3
:10288000001002404689000812A185B00FC98DE8EA
:102890000F0014A0144A006804905168134801F016
:1028A0000C03042B10D0082B0ED1C1F38343C903B2
:1028B0001DF803000AD5516804AAC1F34041515CD8
:1028C0000A4A5043B0FBF1F005B07047084948434D
:1028D000FAE7000002030405060708090A0B0C0DBD
:1028E0000E0F1010010200000010024000127A00CA
:1028F00000093D002DE9F84F040070D02078C04D4C
:10290000C00749D06868C0F38100012807D0686813
:10291000C0F38100022809D16868C00306D5286881
:10292000800339D560680028E7D035E06068B0F5ED
:10293000803F0BD010B1B0F5A02F11D0286820F443
:1029400080302860286820F4802002E0286840F465
:1029500080302860606890B1FFF74EFD06460AE0BF
:10296000286840F480202860F0E700BFFFF744FDAE
:10297000801B642873D828688003F7D50CE0FFF724
:102980003BFD064605E000BFFFF736FD801B6428CF
:10299000F0D828688003F7D420789A4E80074FF04B
:1029A00001094FF0000839D5686810F00C0F07D006
:1029B0006868C0F38100022809D16868C00306D4A2
:1029C0002868800714D52069012808D110E0206903
:1029D000B0B1C6F80090FFF70FFD074605E00AE129
:1029E000FFF70AFDC01B0228C4D828688007F7D566
:1029F0002868616920F0F80040EAC10028600DE015
:102A0000C6F80080FFF7F8FC074604E0FFF7F4FC87
:102A1000C01B022823D828688007F7D42078000735
:102A20002CD57948A169D9B1C0F80090FFF7E4FC32
:102A3000074604E0FFF7E0FCC01B02280FD8686AD5
:102A40008007F7D571484FF4FA510068B0FBF1F0F8
:102A5000009000BF0098411E0091FAD20EE080E085
:102A6000C0F80080FFF7C8FC074604E0FFF7C4FC8D
:102A7000C01B022875D8686A8007F7D42078400701
:102A800060D5E8690027C00008D4E86940F08050AC
:102A9000E861E869012700F0805000905C48016817
:102AA000C90513D40168834641F480710160FFF7C2
:102AB000A3FC824606E000BFFFF79EFCA0EB0A00E5
:102AC00064284ED8DBF80000C005F5D5E068012881
:102AD0000AD008B1052813D0286A20F00100286226
:102AE000286A20F0040002E0286A40F00100286211
:102AF000E06841F2883B98B1FFF77EFC82460BE02C
:102B0000286A40F004002862EEE700BFFFF774FC7B
:102B1000A0EB0A0159455AD8286A8007F6D50CE07F
:102B2000FFF76AFC824605E0FFF766FCA0EB0A01AE
:102B300059454CD8286A8007F6D41FB1E86920F0BF
:102B40008050E861E06988B36968C1F381010229B6
:102B500044D00228C6F8608004D0FFF74DFC04463C
:102B600038E034E0FFF748FC074604E0FFF744FC98
:102B7000C01B02282BD828688001F7D4206AB0F542
:102B8000803F05D16868A16820F400300843686080
:102B9000D4E908010843696821F4741108436860A6
:102BA000C6F86090FFF728FC044606E025E000BF69
:102BB000FFF722FC001B022809D828688001F7D5FE
:102BC0001BE000BFFFF718FC001B022802D90320FE
:102BD000BDE8F88F28688001F4D40EE00128F7D012
:102BE0006868226A00F48031914204D1616A00F47D
:102BF0007010884201D00120EAE70020E8E70000D9
:102C000000100240000042428004424224000020A2
:102C10000070004010B5401EB0F1807F01D301204C
:102C200010BD4FF0E02460610F21601703F0D2F96E
:102C30000020A06107202061002010BD7047704770
:102C400010B590F83C20012A22D0012280F83C20C7
:102C5000CA688C6822F4407222434C6822F4806275
:102C600022430C6822F4006222430C6922F4805251
:102C700022434C6922F400522243C969002322F402
:102C800080420A4301684A6480F83C30002010BD4D
:102C9000022010BD70B590F83C20012A2CD00124F0
:102CA00080F83C40022280F83D2003685A689D6805
:102CB00022F070060A6832435A60104B02689A424A
:102CC0000ED00F4B9A420BD0B2F1804F08D00D4B73
:102CD0009A4205D00C4B9A4202D00C4B9A4204D136
:102CE000496825F080031943916080F83D40002138
:102CF00080F83C10084670BD022070BD002C0140D9
:102D0000003401400004004000080040000C004076
:102D100010B5040003D094F83D0010B107E0012085
:102D200010BD002084F83C00204600F01FF802206F
:102D300084F83D00211D206802F066FE012084F821
:102D4000460084F83E0084F83F0084F8400084F890
:102D5000410084F8420084F8430084F8440084F879
:102D6000450084F83D00002010BD000008B5006853
:102D70000B49884212D10B48C16941F00801C16179
:102D8000C069012200F00800009002213220FFF704
:102D9000B3FBBDE808403220FFF7A1BB08BD00002F
:102DA000000C00400010024090F83D10012901D0B5
:102DB00001207047022180F83D100168CA6842F086
:102DC0000102CA6000680E4988420ED00D4988424F
:102DD0000BD0B0F1804F08D00B49884205D00B4989
:102DE000884202D00A49884204D1816801F0070173
:102DF000062903D0016841F00101016000207047FD
:102E0000002C014000340140000400400008004054
:102E1000000C004070B5044690F83C00012817D023
:102E2000012584F83C50022084F83D002068826827
:102E300022F0770222F47F4282600868502830D066
:102E40000DDC20284DD005DC98B310283BD148E09C
:102E5000022070BD302844D0402834D139E06028A9
:102E600028D0702806D0B0F5805F2CD0B0F5005F78
:102E700029D10AE0CB68D1E90121206802F017FED0
:102E80002068816841F0770109E0CB68D1E9012130
:102E9000206802F00CFE2068816841F48041816066
:102EA00011E0CA684968206802F0D6FE5021206807
:102EB00007E016E0CA684968206802F0DEFE60217B
:102EC000206802F0FEFD84F83D50002084F83C00AC
:102ED00070BDCA684968206802F0BEFE40212068C3
:102EE000EFE7226801461046EBE72DE9F0410D4679
:102EF000040003D094F83D0018B108E00120BDE8BB
:102F0000F081002084F83C00204600F041F80220C7
:102F100084F83D002068816844F207029143816093
:102F2000211D206802F070FD226890689169166A80
:102F30002B68AF69034340F20330814341EA072124
:102F4000A868EF6908434FF6FC418843E96840EA06
:102F50000720014328692F6A000140EA073008432F
:102F600069686D6926F0220646EA051529439360D3
:102F70002268906154F8460B0162012004F81F0991
:102F8000E0752076E0762077A0750020B7E7000096
:102F900000B585B000210091019102910391224B6F
:102FA00002682248C0219A421BD1C26942F0040241
:102FB000C261C26902F004020492826942F008020E
:102FC00082618069009100F0080004906946184809
:102FD000FFF704F9032201211E20FFF78DFA1E20BE
:102FE0001DE0144B9A421CD1826942F40052826166
:102FF000826902F400520492826942F010028261F6
:103000008069009100F01000049069460A48FFF7BB
:10301000E5F8032201212C20FFF76EFA2C20FFF7A0
:103020005EFA05B000BD000000080040001002403C
:10303000000C0140003401400010014070B590F8D0
:103040003E60044690F83F5090F8423090F843209C
:10305000022021B104290ED0012E1BD114E0012E33
:1030600018D1012B16D184F83E0084F842000122C9
:103070000021206820E0012D0CD1012A0AD184F81A
:103080003F0084F8430014E0012D03D1012B01D14E
:10309000012A01D0012070BD84F83E0084F83F0071
:1030A00084F8420084F8430001220021206802F0E5
:1030B000F1FC01220421206802F0ECFC2068016888
:1030C00041F001010160002070BD704770B50446F9
:1030D000006801694FF00005C943890715D4C1682C
:1030E000C943890711D4E91E0161012020772068B6
:1030F00080698007204602D0FFF7E7FF04E000F078
:10310000E3F8204600F092F9257720680169C94369
:10311000490717D4C168C943490713D46FF00401A4
:103120000161022020772068806910F4407F2046EA
:1031300002D0FFF7CAFF04E000F0C6F8204600F016
:1031400075F9257720680169C943090716D4C16854
:10315000C943090712D46FF00801016104202077E8
:103160002068C0698007204602D0FFF7AEFF04E068
:1031700000F0AAF8204600F059F925772068016987
:10318000C943C90617D4C168C943C90613D46FF02F
:1031900010010161082020772068C06910F4407F89
:1031A000204602D0FFF791FF04E000F08DF82046A2
:1031B00000F03CF9257720680169C943C90708D1A7
:1031C000C168C943C90704D1891E0161204600F0C6
:1031D00089F920680169C943090609D4C168C9434E
:1031E000090605D46FF0800101612046FFF726FD36
:1031F00020680169C943490609D4C168C943490621
:1032000005D46FF040010161204600F025FA2068E6
:103210000169C94389060BD4C168C943890607D42B
:103220006FF0200101612046BDE87040FFF707BD47
:1032300070BD000030B585B0002100910191029170
:1032400003911C4B02681C49022503241B489A4227
:103250000DD18A6942F004028A618969039401F000
:10326000040104918115CDE9001569461EE0144B57
:103270009A421DD18A6942F004028A618A6902F089
:10328000040204928A6942F008028A6189690394FF
:1032900001F008010491C021CDE900156946FEF74F
:1032A0009DFFCDE90045694606480394FEF796FF69
:1032B00005B030BD002C0140001002400008014064
:1032C00000040040000C0140704770B5044690F8BF
:1032D0003C000D4601280AD0012084F83C0042B190
:1032E000042A18D0082A2AD00C2A4DD139E002200D
:1032F00070BD206802F0EEFB2068816941F0080192
:1033000081612068816921F00401816120688169FF
:103310002A69114311E0206802F00CFC20688169E1
:1033200041F4006181612068816921F480618161DB
:10333000206881692A6941EA0221816124E02068CC
:1033400002F02EFC2068C16941F00801C1612068CB
:10335000C16921F00401C1612068C1692A69114372
:1033600011E0206802F050FC2068C16941F400615E
:10337000C1612068C16921F48061C1612068C169AF
:103380002A6941EA0221C161002084F83C0070BD35
:1033900010B5040003D094F83D0010B107E00120FF
:1033A00010BD002084F83C00204600F01FF80220E9
:1033B00084F83D00211D206802F026FB012084F8DE
:1033C000460084F83E0084F83F0084F8400084F80A
:1033D000410084F8420084F8430084F8440084F8F3
:1033E000450084F83D00002010BD000008B50C4ADF
:1033F00001680C48914207D1816941F40061816103
:10340000806900F4006009E0074A914207D1C16970
:1034100041F00201C161C06900F00200009008BDE6
:10342000002C0140001002400004004070470000E2
:1034300010B50446022249B104290ED0082913D040
:1034400094F84100012816D0012010BD94F83E00E8
:103450000128F9D184F83E200FE094F83F000128BC
:10346000F2D184F83F2008E094F840000128EBD125
:1034700084F8402001E084F841200122206802F015
:1034800009FB13492068134A884201D0904203D1B6
:10349000436C43F400434364206888420DD090425B
:1034A0000BD0B0F1804F08D00B49884205D00B49B2
:1034B000884202D00A49884204D1816801F007019C
:1034C000062903D0016841F001010160002010BD10
:1034D000002C01400034014000040040000800407E
:1034E000000C00402DE9F047514988427ED102F09E
:1034F000FFFC514E00254F4CA6F11007012804D0C7
:10350000022822D0032837D127E02078401CC0B2FF
:103510002070032808D0DFF824914FF400480428D5
:1035200005D0052806D027E0FDF746FD24E0FDF78D
:10353000F7F904E02570A561656175607D60002282
:1035400041464846FEF753FF16E03D48017811B169
:103550000021017010E00121FBE7207803280BD146
:10356000607818B10020607010B105E00120FAE722
:10357000F0213448FCF7ECFE3349087858B1334861
:103580000278521CD2B202700A2A02D002780A2AA9
:1035900001D905700D70FEF741F9207828B3012894
:1035A00033D0022834D0032835D0A078401CC0B2D4
:1035B000A070042832D000D9A570D4E90501FEF727
:1035C0004DF802F06DFB68B37D6040F2DC50756031
:1035D000A060706804F0F8FE0446786804F0F4FE19
:1035E0002146BDE8F047FDF78FBC00E01DE018481C
:1035F0000078012806D0174800780128DDD101F0B5
:1036000027FBDAE7FDF7C4F8D7E700F04BFCD4E777
:1036100000F0FEFCD1E7FDF705FDCEE7A570FDF754
:1036200087F9CAE7FDF7E4FFD3E7BDE8F0870000BC
:103630002003002070000020100900200008014035
:1036400002000020B512002004000020030000202A
:103650000100002000000020704770477047000004
:10366000F8B5026804461068D168536910F00F0F6E
:103670004FF0000553D003F0010601F49077374373
:103680005FD0C20705D0CA0503D5226C42F0010203
:103690002264420705D5DA0703D0226C42F0020209
:1036A0002264820705D5DA0703D0226C42F00402B7
:1036B0002264020707D501F02002324303D0226CB6
:1036C00042F008022264226C002A34D0800604D51D
:1036D000880602D5204602F029FB20684069216C4B
:1036E000C0F38010090700D430B3204602F006FB77
:1036F0002068416949061BD5416921F040014161BB
:10370000A06BA8B158494163A06BFEF7C1FC00282B
:1037100011D0A06B416B01B0BDE8F04008478306B3
:103720000FD58B060DD52046BDE8F84002F0FEBA55
:103730002046FFF793FFF8BD2046FFF78FFF256473
:10374000F8BD266B2023012E52D1C60650D5CE06D9
:103750004ED5106850680090506940062AD5A16B7C
:10376000086840680004000CEAD0A68D8642E7D9BC
:10377000E0858869202818D0D06820F48070D06057
:103780002068416921F0010141612068416921F00F
:103790004001416184F83E3025632068C16821F012
:1037A0001001C160A06BFEF74FFCA08DE18D401AA7
:1037B00081B219E0A08DE18D401A81B2E08D002820
:1037C000BED00029BCD0D06820F49070D0602068B2
:1037D000426922F00102426184F83E30256320688C
:1037E000C26822F01002C2602046FFF736FFF8BD23
:1037F00005062BD50D0629D594F83D002128F6D1D4
:10380000A068B0F5805F01D12069B0B1206A411C89
:103810002162216800784860E08C401E0004000CA2
:10382000E084E4D12068C16821F08001C160206893
:10383000C16841F04001C160F8BD206A0088C0F352
:1038400008005060206A801C2062E5E74006F3D53E
:103850004806F1D5D168204621F04001D16084F8B6
:103860003D3000F0A3FAF8BDED5C000870B504002F
:1038700004D094F83D00002510B106E0012070BD91
:1038800084F83C50204600F023F8242084F83D00C2
:103890002068C16821F40051C160204602F0A2FAFC
:1038A0002068016921F4904101612068416921F09B
:1038B0002A0141612068C16841F40051C16025645A
:1038C000202084F83D0084F83E00002070BD0000F8
:1038D00070B586B000240094019402940394474D7F
:1038E0000368474802210322AB422ED1C36943F447
:1038F0008013C361C36903F480130493836943F0A5
:1039000010038361836903F010030493836943F018
:10391000200383618069039200F020000490C802B4
:10392000CDE9000169463748FEF758FC0420CDE98F
:103930000004694634480294FEF750FC0122114607
:103940003520FEF7D9FD352029E0304E3515B3423C
:1039500029D1836943F480438361836903F48043FD
:103960000493836943F0040383618069284E00F067
:10397000040004906810CDE90001039269463046C6
:10398000FEF72CFCCDE90054694630460294FEF760
:1039900025FC012211462520FEF7AEFD2520FEF76D
:1039A0009EFD06B070BD1B4EB342FAD1C36943F40D
:1039B0008023C361C36903F480230493836943F0C4
:1039C000080383618069CDE9005100F00800CDE96A
:1039D0000320114D69462846FEF700FCE814CDE9A6
:1039E0000004694628460294FEF7F8FB01221146BE
:1039F0002720FEF781FD2720D1E70000005000407E
:103A00000010024000100140001401400038014045
:103A10000008014000480040000C014090F83E3092
:103A2000202B0ED159B152B190F83C30012B08D067
:103A3000012380F83C300023036302F02FBA0120F9
:103A400070470220704700002DE9F84FC04900255B
:103A5000C04C4FF0010A4FF0020E88427BD1A01DEE
:103A6000BE490278BC4822610F780678BC4BDFF86B
:103A7000F4926EB1A01DA2F1410190F80080801F68
:103A8000DFF8E4B2467807291AD8403A62725CE05F
:103A9000412A01D0E560BAE0E168491CE1600529EE
:103AA0000BD1E56080F800A0B048012F0570B04848
:103AB000186003D0AF49C9F80010A8E0AE49FAE792
:103AC0005A2A04D00A2A04DC84F809803DE0657291
:103AD0003BE0A348DFF88CC2A8490068DCF800C0CE
:103AE000CDF800C0592A06D0582A19D07B2A33D0E5
:103AF0007D2A38D029E004F00BFE99490860A049DE
:103B0000884201DA96480160012F1ED09D494F4638
:103B1000009804F0FDFD9C493860884214DB14E0F5
:103B200004F01CFB8E4908609849884201DD8C48EE
:103B30000160012F09D093494F46009804F00EFB15
:103B400093493860884200DD39602078012805D02B
:103B500002280AD05BE05FE084F800A00BF8068042
:103B6000761C667053E084F800E09BF8031058461A
:103B7000502905D04178232941D0A670D94629E0A3
:103B800084F808A03BE06178081A03F044FF02467D
:103B90000B4600207F4902F085FF0646A0780F46BD
:103BA0008046484410F8010C303803F034FF3246A8
:103BB0003B4603F097FF06460F46606904F0A2FA01
:103BC00032463B4603F0E4FC03F0B0FC6061A8F130
:103BD0000100A070A0780428D5D299F801003038EF
:103BE00002280CD2DFE800F00106606904F008FC4E
:103BF000694903E0606904F003FC684908802570A6
:103C00006570A570322158486561FCF7A1FB5149E8
:103C10000122891D4E4880E0614988426FD14D4A9A
:103C20004C48E6781779D21DC01D127801785D489E
:103C30005D4B7A404FF0030C052E4ED92A2E23D22D
:103C4000B6FBFCF5434FE1460CFB156CF8787F7929
:103C5000401CC5B2DFF84C8107EB47004044BCF183
:103C6000000F0BD0B6FBF9F809FB1866012E07D040
:103C700001727F1C6771E570985C49E0C180FAE7CA
:103C8000C68806EB0121F9E72A3E052E41D2DFE87E
:103C900006F003060C0F150041852B2053E0458DDF
:103CA00005EB012141852C204DE081852D204AE046
:103CB000858D05EB012181852E2044E080F82E10B2
:103CC000B94202D102F012FD03E02F213548FCF782
:103CD0003FFB2571E57065711BE0062E19D2DFE808
:103CE00006F0030F20242A2D542905D1017084F8F1
:103CF00003A087F054000AE0E570257109E024E094
:103D00002C29F9D1417084F803E087F02C00185C6D
:103D10002071104901222248C91DBDE8F84FFFF764
:103D20007DBE418084F803C0A6E7458805EB0121EC
:103D30004180042007E08180052004E0858805EBB0
:103D4000012181800620E07096E7BDE8F88F000031
:103D50003804002098000020010000200500002009
:103D60008C0000209000002020090020000000208E
:103D70000000AF43000092427CD9203F0000A042E7
:103D80000000DC42000060410000F84100C099449E
:103D900000006343000024409600002094000020AF
:103DA000B0030020520A0020B29300087047FEE7DB
:103DB0002DE9F0410C1A204604F042FB0E4F7968C1
:103DC00004F09EFB07F180050646E86B201A04F01C
:103DD00037FB396804F094FB314604F0BFF906461E
:103DE000A86B04F02DFB314604F0B8F904F0ECFAAE
:103DF000C5E90E04BDE8F081D80000202DE9F041AE
:103E00000C1A204604F01CFB0E4F796804F078FB76
:103E100007F180050646A86C201A04F011FB3968EA
:103E200004F06EFB314604F099F90646686C04F024
:103E300007FB314604F092F904F0C6FAC5E9110413
:103E4000BDE8F081D800002070B50C460546FEF7AD
:103E5000C1FA012801D0002070BD21462846FEF796
:103E6000B9FA0128F9D0012070BD000010B50B4B44
:103E700060B10B4C2168491C2160814205DB0421A3
:103E80001846FEF7ACFA0020206010BD0122BDE804
:103E9000104004211846FEF7AABA000000100140A5
:103EA000300000202DE9F05F46480024A246057846
:103EB0002646A1464FF48277012D02D0032D03D070
:103EC00004E04FF4C87701E04FF4A077DFF8F8B0D2
:103ED00004EB44010BEB410001885FEA01081ED0AE
:103EE000B8451CDA0AF1010101F0FF0AD0F802001E
:103EF0003649884202DA0146304606E034498842B3
:103F000006DD344904F004FC314604F027F9064686
:103F1000B8F1960F03D209F1010000F0FF09641C0B
:103F2000E4B2642CD4D32C4C4FF00008BAF1080F43
:103F30000CD22A49606904F011F92949606188426C
:103F400000DB6161C4F81880BDE8F09F2548264970
:103F50004FF4000A012D03D0B9F1080F03D815E082
:103F6000B9F1080F02D9C4E90508EDE7606904F06A
:103F7000CFFB014660611D48814200DC606156450F
:103F800001DB1B4800E01B48A061DDE70F466069CC
:103F900004F0BEFB6061B84200DC6761564508DB97
:103FA0001DB1022D03D01448EEE71448ECE7144885
:103FB000EAE71DB1022D03D01248E5E71248E3E716
:103FC0001248E1E705000020810A00200000484275
:103FD00000009B430000B44370000020000020411B
:103FE000000082430000C8C20000A0410000A042BF
:103FF0007CD920BF7CD9203F000020C2000060C2D5
:10400000000088C200002042000060420000884298
:104010002DE9F0415B4C00275B4ED4F80C004FF6C5
:10402000FF75394640F2E73C01EB410206EB4203E3
:104030001A88A2F1010EE64505D27F1CAA4202D2DF
:10404000D3F802001546491CFA29EDDB4F49E06020
:10405000884203DD4E4904F05BFBE06006462169BF
:1040600004F056FB4B4A0021904202DC4A4A90423F
:1040700005D96079401CC0B260713C2801D16171E2
:104080002661082F09DAE088282804D2401C80B273
:10409000E080282847D3616144E0404FE1800E462C
:1040A0003878012812D00028284640D004F0E0F9E2
:1040B0003B49FCF7DDFE3B4A6061514200F026FFC0
:1040C000A5F21D1560611F2D49D22EE0284604F08F
:1040D000CFF93549FCF7CCFE6FF0E502E6216061CF
:1040E00000F014FF31496061884202DC30498842A7
:1040F0001BD9B5F5D27F0AD22E492069884202D851
:104100002D49884203DD2D4904F0FAF903E000212E
:104110002069FDF7C3F92A49A061884202DC2949D8
:10412000884200D9A161BDE8F081A661FBE704F0F7
:104130009FF92549FCF79CFE6FF0F902FA216061B6
:1041400000F0E4FEB93D60611F2DEED3002120692F
:10415000FDF7A4F96FF0B302B421A0610EE00021D5
:104160002069FDF79BF9A0613978022903D06FF02F
:104170009502962102E06FF0DB02DC2100F0C6FE22
:10418000A061D0E770000020D90C0020000034436B
:104190000000B44300002041000020C105000020C1
:1041A00000009643DEFEFFFF00007A4300007041EE
:1041B000000070C1000070C2000070422E90203CD0
:1041C000DB0F493FDB0F49BF000066433EB50021CE
:1041D000124800910191104A0291026081600173BE
:1041E000017501244FF460220461C2614160FDF752
:1041F000E5FC08B1FDF7CEF80A20CDE90004072060
:10420000029069460548FDF7C3FB08B1FDF7C2F807
:104210000248FDF74FFB3EBD00240140E8010020AD
:104220003EB50021144800910191124A02910260AA
:1042300081600173017501244FF460220461C26141
:104240004160FDF7BBFC08B1FDF7A4F80B20CDE9F8
:1042500000040720029069460748FDF799FB08B162
:10426000FDF798F80448FDF725FB0348FDF786FEA7
:104270003EBD000000280140180200202DE9F04753
:1042800086B000244C480094019402940394816900
:1042900041F010018161816901F01001049181698F
:1042A00041F020018161816901F02001049181695F
:1042B00041F004018161816901F004010491816987
:1042C00041F0080181618069DFF8F08000F00800AA
:1042D0000490012244F210314046FEF788F8012292
:1042E0000C214046FEF783F8DFF8D4A000224FF4FB
:1042F00040415046FEF77BF8DFF8C8904FF4004786
:10430000002239464846FEF772F80122382150460D
:10431000FEF76DF8B810CDE90004694640460294F6
:10432000FDF75CFF4FF447700125CDE90005022041
:10433000CDE9024069464046FDF750FFA803032639
:10434000CDE90005CDE9024669464046FDF746FF46
:10435000CDE90054694648460294FDF73FFF4CF210
:104360003800CDE90005CDE9024669465046FDF723
:1043700035FF00970396CDE9015469464846FDF79D
:104380002DFF28028DE8310069465046FDF726FFD3
:10439000680200900C48CDE9010569465046FDF7DA
:1043A0001DFF012202211720FEF7A6F81720FEF7B5
:1043B00085F806B0BDE8F08700100240001001400B
:1043C000000C0140000801400000211010B592B01F
:1043D00000240F941C2108A81094FBF7DBFF202178
:1043E0006846FBF7D7FF2348214901604721C0E910
:1043F000011442F20F71C0E903148021C0E90541A4
:10440000FEF7C6FF08B1FCF7C5FF0F940FA91948C6
:104410001094FEF73FFC08B1FCF7BCFF6020CDE92B
:1044200008040A940B940C940D94002208A91148D6
:104430000E94FEF74AFF08B1FCF7ACFF00944FF46E
:104440000050CDE904400294019403946946094860
:104450000794FEF7F5FB08B1FCF79CFF0021054827
:10446000FEF7E6FF0348FEF7E5FE12B010BD0000C0
:10447000002C01404802002010B58AB000240794A7
:104480001C2168460894FBF785FF2A482849C0E9A3
:10449000001441F61F41C0E902418021046181619D
:1044A000FEF776FF08B1FCF775FF079407A92148CE
:1044B0000894FEF7EFFB08B1FCF76CFF6020CDE934
:1044C00000040294002269461A480494FEF7FDFE97
:1044D00008B1FCF75FFF042269461648FEF7F5FEB7
:1044E00008B1FCF757FF082269461248FEF7EDFEB7
:1044F00008B1FCF74FFF0C2269460E48FEF7E5FEB7
:1045000008B1FCF747FF00210A48FEF791FF04219C
:104510000848FEF78DFF08210648FEF789FF0C21A9
:104520000448FEF785FF0348FEF784FE0AB010BD7D
:10453000000400409002002010B58CB02421684691
:10454000FBF728FF00241A48099418490A94C0E987
:1045500000144FF6FF71C0E90241802104618161BE
:104560000320CDE900040120CDE902040A210491D1
:10457000CDE90540CDE9074169460D48FEF7B5FC98
:1045800008B1FCF707FF099409A909480A94FEF746
:1045900081FB08B1FCF7FEFE00210548FEF74EFD49
:1045A00004210348FEF74AFD0CB010BD000800408E
:1045B000D802002010B586B0002418480094019459
:1045C0000294039404941449059401603121C0E9D4
:1045D000011441F61F41C0E9031480218161FEF7F7
:1045E00097FB08B1FCF7D6FE4FF480500090694667
:1045F0000A48FEF70FFC08B1FCF7CCFE049404A9AE
:1046000006480594FEF746FB08B1FCF7C3FE0348D5
:10461000FEF7CAFB06B010BD000C004020030020CE
:1046200010B58CB024216846FBF7B4FE00241B486B
:10463000099419490A94C0E900144FF6FF71C0E9C2
:10464000024180210461C0E905410320CDE9000455
:104650000120CDE902040A210491CDE90540CDE90C
:10466000074169460D48FEF740FC08B1FCF792FE91
:10467000099409A909480A94FEF70CFB08B1FCF754
:1046800089FE00210548FEF7D9FC04210348FEF706
:10469000D5FC0CB010BD00000034014068030020C0
:1046A0000E4810B50C4901604FF4E1314160002122
:1046B00081600C22C160C0E904128161C161FFF711
:1046C000D5F808B1FCF766FEBDE8104001220449A8
:1046D0000248FFF7A3B9000000500040B0030020DB
:1046E0009F0000200E4810B50C4901604FF4E131E5
:1046F0004160002181600C22C160C0E90412816127
:10470000C161FFF7B3F808B1FCF744FEBDE8104003
:10471000012204490248FFF781B900000038014036
:10472000F4030020B00000200E4810B50C490160D1
:104730004FF416514160002181600C22C160C0E934
:1047400004128161C161FFF791F808B1FCF722FE04
:10475000BDE81040012204490248FFF75FB900009C
:1047600000480040380400209E00002070B502463A
:104770000020104D012100BF55F8213005EB8104C8
:10478000491CC9B244F8043C0A29F5D300246A62E2
:1047900055F8241003F0E2FC641CE4B20A2CF7D3B1
:1047A000054903F04FFD03F00FFEBDE8704000B275
:1047B00003F046BEB00800200000204170B502465C
:1047C0000020104D012100BF55F8213005EB810478
:1047D000491CC9B244F8043C0A29F5D300246A6292
:1047E00055F8241003F0BAFC641CE4B20A2CF7D389
:1047F000054903F027FD03F0E7FDBDE8704000B276
:1048000003F01EBED808002000002041FEE7FEE7AE
:1048100010B40021084B0A465FF0000003EBC0040F
:10482000401CC0B262548028F8D3491CC9B2082980
:10483000F2D310BC00F0B0B87C04002010B57F2883
:1048400016D83F2914D80723A3EBD10301F00701A1
:10485000C1F107040121A140064CDBB204EBC0000A
:10486000002AC25CC9B201D00A4300E08A43C254A4
:1048700010BD00007C0400202DE9F04116460D46D5
:1048800007460024FFF7DAFF324629463846FFF78D
:10489000D5FF2819C1B232463846FFF7CFFF641C56
:1048A000E4B2082CF5D3BDE8F081000010B5394C16
:1048B0000020C4F89001642004F5C87401F01AF8CF
:1048C000012020600021AE2000F04AF90021D5200F
:1048D00000F046F90021502000F042F90021A82004
:1048E00000F03EF900213F2000F03AF90021D320EA
:1048F00000F036F90021084600F032F9002140208E
:1049000000F02EF900218D2000F02AF9002114205A
:1049100000F026F90021202000F022F900210220D9
:1049200000F01EF90021A12000F01AF90021C0209A
:1049300000F016F90021DA2000F012F9002112200F
:1049400000F00EF90021812000F00AF90021EF208B
:1049500000F006F90021D92000F002F90021F12031
:1049600000F0FEF80021DB2000F0FAF800213020F2
:1049700000F0F6F80021A42000F0F2F80021A620B3
:1049800000F0EEF80021AF2000F0EAF8BDE810409A
:10499000FFF73EBF0080214270B5114E002400BFDA
:1049A00004F1B000C0B2002100F0DAF8002108469E
:1049B00000F0D6F80021102000F0D2F85FF00005DA
:1049C00006EBC5000121005D00F0CAF86D1CEDB2D8
:1049D000802DF5D3641CE4B2082CE1D370BD000037
:1049E0007C0400202DE9FF4F203A1F460C468946E3
:1049F00002F0FF0A0025DDF834B032E00C2F09D0B8
:104A00001A4901EB0A104FF00008465D300607D541
:104A10005A4609E016490AEB4A0001EB8000F2E72A
:104A2000BBF1000F12D0002221460098FFF706FFCD
:104A30007006641C060EE4B2A4EB0900B84207D16C
:104A400000984C46401CC0B2009008E00122EBE701
:104A500008F1010000F0FF08B8F1080FD6D36D1C73
:104A6000EDB2BD42CAD3BDE8FF8F0000C28D000881
:104A70004E8900082DE9FF4F81B00026DDF838A0EF
:104A80001D469346814634464FF001084FEA5A07C7
:104A900027E0281B401EC1B20A2001F0FAFFBBFB31
:104AA000F0F00A21B0FBF1F201FB120026B9691EF9
:104AB0008C4201DA48B101263030C2B207FB0490C3
:104AC000C0B25346CDF8008006E007FB0490C0B2A8
:104AD00053462022CDF800800299FFF783FF641C23
:104AE000E4B2AC42D5D305B0BDE8F08FF8B51646B8
:104AF0000D460446012714E07A2C02D90024103513
:104B0000EDB23A2D03D900242546FFF781FE009728
:104B100032780C2329462046FFF764FF0834E4B2BC
:104B2000761C30780028E7D1F8BD000070B50A4D3A
:104B30000A4E002435F814003178884201D201224F
:104B400000E0002200212046FFF796FE641CE4B23C
:104B5000802CEFD370BD000052090020BA00002065
:104B600070B500250E4A012311B1C2F88C3101E065
:104B7000C2F88C510B4C0021C4F8B851060602D57E
:104B8000C2F8943101E0C2F89451C4F8B83140063B
:104B9000491C000EC9B20829EED3C2F88C3170BD91
:104BA00000802142000022420020044902460A54AB
:104BB000401CC0B20928FAD370470000A6080020A4
:104BC0002DE9F84F01248246ADF800401D4800252C
:104BD0004570ADF800401C4E1C4F81464FF6FF78E3
:104BE00026E000BFBDF8001011EA0A0F02D0C6F897
:104BF000A44101E0C6F8A451C6F8A041052000F088
:104C000095FEC6F8A051052000F090FEC6F8A04120
:104C1000D7F8200130B199F80110BDF800201143F8
:104C200089F80110BDF8000008EA4000ADF8000066
:104C3000BDF80000FF28D5D9BDE8F84F102000F0DE
:104C400075BE0000A608002000002242008021421C
:104C50002DE9F0474449434809680068C1F18005DF
:104C6000C0F180006FF01301884202DD142800DAE1
:104C700000208D4202DD142D00DA002503F0E0FB58
:104C80003A4C06466FF00609E0694946824603F051
:104C900014FE314603F034FC354960614FF03C4767
:104CA0000E782146012ED1F8208002D010F1FF4F5E
:104CB00008D2284603F0C4FB05463946404603F0B7
:104CC0001FFC07E0284603F0BBFB0546494640466B
:104CD00003F0F3FD294603F013FC264AA0610020EF
:104CE00013682549254D0B2B04D00C2B1ED02071A9
:104CF000BDE8F087E3785B1CDBB2E370142BF7D1DF
:104D00001060E070504603F029FA1D49E0618842C6
:104D100000DDE161012EEBD02946404603F01EFA8A
:104D2000184920628842E3DD2162E1E723795B1CB8
:104D3000DBB22371142BDBD110602071504603F0DD
:104D4000E7FC1149E061884200DAE161012ECFD031
:104D50002946404603F0DCFC0C4920628842E3DB34
:104D6000C6E7000040000020440000207000002042
:104D7000050000204C0000200000A042000060411F
:104D800000C09944000063430000DC420000F84189
:104D900070B5FFF709FF00F05DF80B480B4BB0F85A
:104DA00003100A481C3341800020012413F81050DE
:104DB00000F101006D1E04FA05F20A42C0B202D0F1
:104DC0001028F3D3002070BDA60800203400002076
:104DD00010B5FFF7DDFF1549154A8861D3798B605F
:104DE000137ACB6054790C6192794A610124114A9B
:104DF000042801D11078A8B14868002811D0762B7A
:104E00000FDA107800280CD10B49147008700C4987
:104E10000A4808600B4801780B48012904D00B4967
:104E2000016010BD4C60EAE70949F9E73400002051
:104E3000A608002000000020010000200000AF4371
:104E40008C0000200500002090000020000092420D
:104E5000DB0F493F2DE9FC4700248DF80040012578
:104E6000ADF80450254EC6F89041254F3878FFF72D
:104E7000A7FE7878FFF7A4FE02208DF80000214FEE
:104E8000DFF884904FF6FF7830E000BFADF80450B3
:104E900020E000BFC6F8A051052000F047FDC6F88D
:104EA000A041052000F042FDC6F8A051D7F820012E
:104EB00050B19DF80010BDF8042019F801101143FD
:104EC0009DF8002009F80210BDF8041008EA41001E
:104ED000ADF80400BDF80400FF28DBD9102000F075
:104EE00025FD9DF80000401C8DF800009DF8000095
:104EF0000928CBD3C6F89051BDE8FC8700002242B8
:104F00003400002000802142A608002070B504462D
:104F10001546084603F094FA0646284603F090FA30
:104F200005463046214603F0B7FA00D234462846FB
:104F3000214603F0B1FB00D22C46204670BD7047DD
:104F40002DE9F0470027214C01253E46C4F8945135
:104F50003946C4F8907104F5C874FBF7CFFFFBF72E
:104F6000CDFF61602160FBF7C9FFFBF7C7FF616000
:104F70002560FBF7C3FFFBF7C1FF65602560FBF70A
:104F8000BDFFFBF7BBFF65602160A4F5C874FBF7AC
:104F9000B5FFFBF7B3FFDFF838908846C4F894817B
:104FA000FBF7ACFFFBF7AAFF0F20FCF709FB010999
:104FB00029F81610761CF6B2C4F89451FBF79EFF40
:104FC0007F1CFFB2802FE9D3BDE8F08700002142AB
:104FD000520900200021022807D003280BD0042802
:104FE0000BD008280BD0002070474FF08042506A49
:104FF000516200B27047044A02E0044A00E0044AE9
:105000001068116000B2704724040040240800407A
:1050100024340140704700002DE9F84F4FF48061BF
:10502000FE48FBF795F9FE49DFF8F893FE4D087846
:10503000FE4FFF4E0C24DFF8FCA34FF00A084FF0A0
:10504000640B032811D004287ED00021FAA2084660
:10505000FFF74CFDF2480078002876D0012875D083
:10506000022874D0052873D074E2F548009400211A
:10507000026804230846FFF7FDFCF248009404236D
:10508000026800211E20FFF7F5FCEF48009404237E
:10509000026800213C20FFF7EDFCEC48009404235B
:1050A000026800215A20FFF7E5FCE9A20A2100204E
:1050B000FFF71CFDE848006810F1FF4F01D3E7A29D
:1050C00000E0E7A20A213220FFF710FDE248006865
:1050D00003F07AF901F0D8FC024603230A213C20B0
:1050E0000094FFF7C7FCDF4F386810F1FF4F01D382
:1050F000DAA200E0DAA20A215E20FFF7F7FC3868A6
:1051000003F062F901F0C0FC024603230A216A2081
:105110000094FFF7AFFCD4A214210020FFF7E6FCB7
:10512000C24F6868B84219D3CCA214211E20FFF7E1
:10513000DDFC686803F048F901F0A6FC0246042390
:1051400014212420009404E09AE0F8E1F9E1FAE166
:10515000FBE1FFF78FFC6868B84210D2C0A21421AF
:105160001E20FFF7C3FC686803F02EF901F08CFCE9
:1051700002460423142124200094FFF77BFCBCA2E8
:1051800014214220FFF7B2FCE868B84207D3B3A26B
:1051900014216220FFF7AAFCE868B84204D2B0A24A
:1051A00014216220FFF7A2FCE86803F00DF901F07A
:1051B0006BFC02460423142168200094FFF75AFC7C
:1051C000ADA21E210020FFF791FC7068B84213D3F6
:1051D0001E21A2A20846FFF789FC706803F0F4F8CC
:1051E00001F052FC024604231E2124200094FFF704
:1051F00041FC7068B84210D21E2199A20846FFF700
:1052000075FC706803F0E0F801F03EFC02460423F0
:105210001E2124200094FFF72DFC99A21E2142207C
:10522000FFF764FCF068B84207D38CA21E2162200D
:10523000FFF75CFCF068B84204D289A21E2162200C
:10524000FFF754FCF06803F0BFF801F01DFC0246C4
:1052500004231E2168200094FFF70CFC8AA2282159
:105260000020FFF743FC8A480078012806D089A275
:1052700028214120FFF73AFC87A2C4E088A2F7E783
:10528000FFF754FC87A20A210020FFF72FFC74A22D
:105290000A215A20FFF72AFC84480094032302784D
:1052A0000A216420FFF7E6FB81A214210020FFF70A
:1052B0001DFC6BA214215A20FFF718FC7F480094B4
:1052C0000323027814216420FFF7D4FB66A21E2179
:1052D0000020FFF70BFC6868B84213D31E215FA2C1
:1052E0000846FFF703FC686803F06EF801F0CCFB9A
:1052F000024604231E2124200094FFF7BBFB6868AC
:10530000B84210D21E2156A20846FFF7EFFB68688C
:1053100003F05AF801F0B8FB024604231E212420B2
:105320000094FFF7A7FB52A21E214220FFF7DEFBED
:10533000E868B84207D349A21E216220FFF7D6FBD6
:10534000E868B84204D246A21E216220FFF7CEFBD5
:10535000E86803F039F801F097FB024604231E21A8
:1053600068200094FFF786FB43A228210020FFF766
:10537000BDFB7068B84213D338A228211E20FFF766
:10538000B5FB706803F020F801F07EFB02460423B1
:10539000282124200094FFF76DFB7068B84210D2DA
:1053A0002FA228211E20FFF7A1FB706803F00CF844
:1053B00001F06AFB02460423282124200094FFF711
:1053C00059FB2FA228214220FFF790FBF068B8423A
:1053D00007D322A228216220FFF788FBF068B84299
:1053E00004D21FA228216220FFF780FBF06802F0A0
:1053F000EBFF01F049FB02460423282168200094BA
:10540000FFF738FB2EA232210020FFF76FFB2EA200
:1054100032213620FFF76AFB2CA259E07C040020E1
:10542000700000200600002000090020000080809D
:10543000100900200A0000204D6F64653A0000004A
:10544000C0000020C4000020C8000020CC000020C4
:105450004D6F7665583A0000840000202D00000052
:105460002B000000880000204C2D503A0000000066
:105470004C2D453A00000000522D503A000000002B
:10548000522D453A000000004465746563743A008B
:10549000710000204F464600454C452000000000AA
:1054A0004F4E20004D656469616E3A00B9000020DE
:1054B0005468726573686F6C643A0000BA0000202B
:1054C00043434420000000002E000000560000006E
:1054D00032214E20FFF70AFBB9F800104D46B1FB10
:1054E000FBF20223322128200094FFF7C3FA288818
:1054F0004646B0FBF6F0B0FBF6F108FB11020123C3
:1055000032213E200094FFF7B5FA28880123B0FB32
:10551000F6F106FB1102322146200094FFF7AAFAA9
:105520009AF80000544600287ED0AFF2980232214B
:105530006920FFF7DBFA20780028F5D078E1BEA2D9
:1055400004E0BFA202E0C0A200E0C1A2002132201C
:10555000FFF7CCFAC048007801281AD0BF4800787D
:10556000012818D0BEA20A210020FFF7BFFABF48C9
:10557000BFA24FF01401007801284FF000000CD0BA
:10558000FFF7B4FABC480068B84233D3AFF2341224
:1055900032E0BAA2E7E7BCA2E5E7FFF7A7FAB64810
:1055A0000068B84202D3AFF24C1201E0AFF25012E1
:1055B00014213220FFF79AFAAF48006802F004FF86
:1055C00001F062FA0246042314213C200094FFF704
:1055D00051FAA1480078012804D0A0480078012899
:1055E00002D035E0ABA200E0ACA214216220FFF7AC
:1055F0007DFA2DE0AFF2981214213220FFF776FAEF
:105600009D48006802F0E0FE01F03EFA02460423E5
:1056100014213C200094FFF72DFAA2480068B842FC
:1056200003D3AFF2C81202E0FCE0AFF2CC121421B7
:105630005E20FFF75BFA9B48006802F0C5FE01F0B0
:1056400023FA0246032314216A200094FFF712FA7A
:10565000AFF2EC121E210020FFF748FA6868B8424A
:1056600014D3AFF208221E210846FFF73FFA6868FC
:1056700002F0AAFE01F008FA024604231E212420AB
:105680000094FFF7F7F96868B84211D2AFF2302200
:105690001E210846FFF72AFA686802F095FE01F01D
:1056A000F3F9024604231E2124200094FFF7E2F9B7
:1056B000AFF244221E214220FFF718FAE868B842F0
:1056C00008D3AFF268221E216220FFF70FFAE868C4
:1056D000B84205D2AFF278221E216220FFF706FA07
:1056E000E86802F071FE01F0CFF9024604231E21A2
:1056F00068200094FFF7BEF9AFF284222821002031
:10570000FFF7F4F97068B84214D3AFF2B022282141
:105710001E20FFF7EBF9706802F056FE01F0B4F9B5
:1057200002460423282124200094FFF7A3F970687F
:10573000B84211D2AFF2D82228211E20FFF7D6F9A5
:10574000706802F041FE01F09FF90246042328210F
:1057500024200094FFF78EF9AFF2DC2228214220AA
:10576000FFF7C4F9F068B84208D3AFF2103228212D
:105770006220FFF7BBF9F068B84205D2AFF22032E1
:1057800028216220FFF7B2F9F06802F01DFE01F057
:105790007BF902460423282168200094FFF76AF968
:1057A00032480078012837D0A8B3022838D03EA26A
:1057B00032210020FFF79AF9AFF2F42232213E2085
:1057C000FFF794F9AFF2FC2232215620FFF78EF951
:1057D000B9F800104D46B1FBFBF202233221302014
:1057E0000094FFF747F928884646B0FBF6F0B0FB77
:1057F000F6F108FB11020123322146200094FFF745
:1058000039F928880123B0FBF6F106FB1102322199
:105810004E20009482E601E025A2C9E726A2C7E750
:1058200027A2C5E7AFF2883232216920FFF75EF97F
:10583000BDE8F84FFFF7B0B84E6F726D616C200095
:1058400041766F6964202000466F6C6C6F77200092
:105850004D65617375726500010000200000002035
:105860004C494E4B494E472E2E2E0000050000207D
:1058700053504545443A00008C000020426C756549
:10588000746F6F7468200000505332202020202055
:105890002020000050692F350000000050692F348F
:1058A00000000000900000204254414E4B000000D8
:1058B000414B4D2020000000444946462000000096
:1058C0005354414E4B000000401EB0F1807F01D385
:1058D000012070474FF0E0214861054AF02082F82E
:1058E000140D002088610720086100207047000027
:1058F0000FE000E001B50C484FF47A710068B0FB8E
:10590000F1F0FFF7E1FF00204FF0E02103E00A692A
:10591000D203FCD5401C009A9042F8D3086920F0CD
:105920000100086108BD00002400002001B50B48FB
:105930000B490068B0FBF1F0FFF7C6FF00204FF005
:10594000E02103E00A69D203FCD5401C009A904292
:10595000F8D3086920F00100086108BD2400002088
:1059600040420F00FCF74EBD30B595B02821684687
:10597000FAF710FD14210AA8FAF70CFD18210FA858
:10598000FAF708FD01210804CDE900100025029571
:1059900002240491CDE907404FF4E01009906846D5
:1059A000FCF7A8FF08B172B6FEE70AA90F2081E84C
:1059B00031004FF48060CDE90D0502210AA8FCF703
:1059C000ADFE08B172B6FEE74FF4404011900F945F
:1059D0000FA8FCF72DFE002801D072B6FEE715B027
:1059E00030BD70470148FDF771BB0000D8020020B0
:1059F0000148FDF76BBB0000200300200148FDF7C4
:105A000065BB000068030020F0B502681C4B1D4D0B
:105A10001D4E1E4F1E4C4FF0804C984209D0A042A4
:105A200007D0604505D0A84203D0B04201D0B842AB
:105A300004D122F0700E4A6842EA0E02984209D060
:105A4000A04207D0604505D0A84203D0B04201D0A3
:105A5000B84203D122F44075CA682A434D6922F046
:105A600080022A4302608A68C2620A68826298429F
:105A700001D0A04201D10969016301214161F0BD5A
:105A8000002C01400004004000080040000C0040D1
:105A90000034014010B501F01F030121046A994050
:105AA0008C430462016A9A401143016210BD10B533
:105AB000846842EA032224F47F440A43224382603A
:105AC00010BD826822F070020A4342F00701816033
:105AD00070470000F0B5026A22F001020262036A18
