:020000040800F2
:10000000482700201502000853550008FB4200084D
:1000100051550008C50900082573000800000000BC
:100020000000000000000000000000002162000845
:10003000450E000800000000975E00088D6C000867
:100040002F0200082F0200082F0200082F020008CC
:100050002F0200082F0200082F0200082F020008BC
:100060002F0200082F0200082F0200082F020008AC
:100070002F0200082F0200082F0200082F0200089C
:100080002F0200082F0200082F0200082F0200088C
:100090002F0200082F0200082F0200082F0200087C
:1000A0002F0200082F0200082F0200082F0200086C
:1000B0000D6D00082F020008196D00082F020008BE
:1000C0002F0200082F0200082F0200082F0200084C
:1000D0002F020008F17200082F02000819730008AF
:1000E0002F0200082F0200082F0200082F0200082C
:1000F000316D00082F0200082F0200082F020008AF
:100100002F0200082F020008256D00082F020008AA
:10011000C9700008D57000082F0200082F020008DF
:100120002F0200082F0200082F0200082F020008EB
:1001300000F002F800F05FF80AA090E8000C82449A
:100140008344AAF10107DA4501D100F054F8AFF277
:10015000090EBAE80F0013F0010F18BFFB1A43F0A5
:1001600001031847F4B7000014B800000A444FF028
:10017000000C10F8013B13F0070408BF10F8014B06
:100180001D1108BF10F8015B641E05D010F8016B4B
:10019000641E01F8016BF9D113F0080F1EBF10F8AF
:1001A000014BAD1C0C1B09D16D1E58BF01F801CBD2
:1001B000FAD505E014F8016B01F8016B6D1EF9D555
:1001C0009142D6D37047000000230024002500266A
:1001D000103A28BF78C1FBD8520728BF30C148BFAA
:1001E0000B607047642900F07780002070471FB5CE
:1001F0001FBD10B510BD00F009FA1146FFF7F7FF5B
:1002000008F042FB00F027FA03B4FFF7F2FF03BC4B
:1002100007F0D4FC0948804709480047FEE7FEE79D
:10022000FEE7FEE7FEE7FEE7FEE7FEE7FEE7FEE7A6
:1002300004480549054A064B704700000B6D00084D
:1002400031010008482100204827002048230020D1
:1002500048230020704700000FB4044910B503AADA
:10026000029800F06BF910BC5DF814FB2C00002024
:100270002DE9F0410E460446002020622046E16848
:10028000884730B3252805D0D4E901219047206A5A
:10029000401CF2E7E168204600278847050018D097
:1002A000A5F14100192802D820354FF400673246E5
:1002B000294620462760FFF795FF40B1012804D06A
:1002C000F61D26F007060836D8E7361DD6E728467D
:1002D000DAE7206ABDE8F0812DE9F0410646002406
:1002E00010687529314616A510D0AFF3008000289C
:1002F00002DA404213A507E031688A0701D512A54A
:1003000002E0490704D511A5012401E0AFF3008004
:1003100000210A2206F1240709E0B0FBF2FCB0FB41
:10032000F2F302FB1C00303078541846491C0028B8
:10033000F3D123462A463046BDE8F04100F0A5B887
:10034000000000002D0000002B0000002000000035
:10035000032A40F2308010F0030C00F0158011F8F1
:10036000013BBCF1020F624498BF11F801CB00F8C9
:10037000013B38BF11F8013BA2F1040298BF00F81D
:1003800001CB38BF00F8013B11F0030300F0E88017
:10039000083AC0F0088051F8043B083A51F804CB01
:1003A000A0E80810F5E7121D5CBF51F8043B40F8C7
:1003B000043BAFF30080D20724BF11F8013B11F8D2
:1003C00001CB48BF11F8012B24BF00F8013B00F816
:1003D00001CB48BF00F8012B70474FF00002042901
:1003E000C0F0128010F0030C00F01B80CCF1040C64
:1003F000BCF1020F18BF00F8012BA8BF20F8022B98
:10040000A1EB0C0100F00DB85FEAC17C24BF00F83D
:10041000012B00F8012B48BF00F8012B70474FF06B
:10042000000200B5134694469646203922BFA0E844
:100430000C50A0E80C50B1F12001BFF4F7AF090750
:1004400028BFA0E80C5048BF0CC05DF804EB890041
:1004500028BF40F8042B08BF704748BF20F8022B84
:1004600011F0804F18BF00F8012B7047704770479C
:100470007047704710B500F0A5F8006810BD10B5C2
:10048000044600F09FF8046010BD2DE9F0470D46CA
:1004900099469246044600F124080168880604D56E
:1004A000E06921F01001216000E00120A84201DD97
:1004B000471B00E00027A1697A1902EB0900081A1E
:1004C000A0612078C00602D42046AFF30080002649
:1004D00008E0D4E901211AF806009047206A401C80
:1004E000761C20624E45F4DB2078C0060AD52046F3
:1004F000AFF3008006E0D4E9012130209047206A64
:10050000401C2062381EA7F10107F4DC07E0D4E9A3
:10051000012118F805009047206A401C2062281E1F
:10052000A5F10105F3DC2046AFF30080207800063A
:1005300002D50220BDE8F0870120FBE7074B70B52C
:100540000D467B4400F047F80446284600F056F874
:1005500010B14FF0FF3070BD204670BD4B820000DF
:1005600010B5203AC0F00B80B1E81850203AA0E84E
:100570001850B1E81850A0E81850BFF4F5AF5FEA82
:10058000027C24BFB1E81850A0E8185044BF18C935
:1005900018C0BDE810405FEA827C24BF51F8043BDC
:1005A00040F8043B08BF7047D20728BF31F8023B30
:1005B00048BF11F8012B28BF20F8023B48BF00F8C4
:1005C000012B704700487047E820002001694A1C51
:1005D00002610878704700B58FB0CDE90131002184
:1005E000059105497944CDE9031011466846FFF7A6
:1005F0003FFE0FB000BD0000E5FFFFFF007B00F0F5
:100600008000704700487047E82000207546FFF7DB
:10061000F9FFAE4605006946534620F007008546BF
:1006200018B020B5FFF704FEBDE820404FF00006EB
:100630004FF000074FF000084FF0000B21F00701CA
:10064000AC46ACE8C009ACE8C009ACE8C009ACE80D
:10065000C0098D46704710B50446AFF300802046B0
:10066000BDE81040FFF7D0BD70B504460068816852
:10067000C943C90717D1816821F00101816001F0E8
:10068000C9FE05460AE000BF01F0C4FE401B022877
:1006900004D920688068C043C00706D020688068FD
:1006A000C043C007F0D0002070BDA06A40F0100029
:1006B000A062E06A40F00100E062012070BD00002D
:1006C000F8B500260446009600688168C943C9074A
:1006D0002DD0816841F001018160164816490068FB
:1006E000B0FBF1F000E0401E00900028FBD101F0CB
:1006F00091FE054616E000BF01F08CFE401B02286B
:1007000010D920688068C043C0070BD0A06A40F0B1
:100710001000A062E06A40F00100E06284F824600A
:100720000120F8BD20688068C043C007E4D10020E4
:10073000F8BD00003000002040420F0070B5254891
:10074000032186B000884000A0F5FA6090FBF1F02C
:10075000002801DA002002E0642800DD6420204A3D
:100760001D4C1E4E1178A9B100211E4D11702A7822
:10077000012A11D049B3206809F0EEFE0446306822
:1007800009F0EAFE0146224617A006B0BDE8704017
:10079000FFF762BD0121E8E71648006809F0DCFEBA
:1007A00006461548006809F0D7FE00240146059466
:1007B0000294039404940094234632460FA00194BB
:1007C000FFF74AFD2C7006B070BD0146002213A051
:1007D000DBE70000080000202C0B00201C0B002091
:1007E00070020020DC0000207B4225643A25647DF5
:1007F00024000000C8000020B40000207B432564D2
:100800003A25643A25643A25643A25643A25643ADF
:1008100025643A25643A25647D2400007B412564E3
:100820003A25643A7D2400002DE9F0478A46814646
:100830000AF02BF8344C80460146606809F056FDFA
:1008400032496060884202DC3149884200D96160E7
:100850003048314D514606782B48876848460AF0A3
:1008600014F839460AF01CF816B3012E2BD0022ECC
:1008700034D0296B09F00CFF06466168686B09F0FB
:1008800007FF0746D5F82C00414680F0004009F0EC
:10089000FFFE39460AF004F831460AF001F8C4F8C0
:1008A000088020601D48406810F0FF4F21D027E0ED
:1008B000E96809F0EDFE06466168286909F0E8FE7E
:1008C0000746A868E0E7A96909F0E2FE0646616804
:1008D000E86909F0DDFE07466869D5E7696A09F04D
:1008E000D7FE06466168A86A09F0D2FE0746286A64
:1008F000CAE70B48406810F0FF4F01D1002060604C
:100900002068BDE8F08700002402002000007A443F
:1009100000007AC407000020240100201C0B0020E6
:100920002C0B002010B52048204C0178002089B104
:10093000012916D01E4A022915D0032918D00429EE
:1009400013D0052917D01B4A06290ED007290FD02E
:10095000082908D0E061206217480078012810D0EB
:1009600017E0A16B0AE0A06B02E0A06B80F00040F2
:10097000C4E90702F0E7A16B81F00041C4E9071068
:10098000EAE70121206A0AF060F80C4909F022FD2B
:1009900020620B49E06909F01DFDE061206A80F0EA
:1009A0000040206210BD0000DD0000207C0000201F
:1009B000DB0FC93FDB0FC9BF07000020000020414B
:1009C00000007A44FEE7000010B50B4B4FF40041E5
:1009D00058B10A4C2268521C2260824204DB18463D
:1009E00001F00BFD0020206010BDBDE8104000228A
:1009F000184601F00ABD0000000801403400002044
:100A00003EB50021144800910191124A0291026002
:100A100081600173017501244FF460220461C26199
:100A2000416001F0F5F808B100F0CAFB0F20CDE9F4
:100A30000004072002906946074801F065F808B1F4
:100A400000F0BEFB044801F055FA034800F0F0FF47
:100A50003EBD0000002401406803002070B5154829
:100A600086B0816941F004018161816901F004016E
:100A70000491816941F0100181618069012400F0D5
:100A8000100004901020CDE900040B4E02256946A9
:100A90000395304601F0B0FB2020CDE90004694603
:100AA0000395304601F0A8FB06B0BDE87040FFF7A3
:100AB000A7BF0000001002400008014010B505F07B
:100AC000EBF900F07FFB074807490068086007481A
:100AD000407909F095FD4FF0854100F00BF804498D
:100AE000086010BDC8000020980000200801002008
:100AF0009C0000202DE9F0478A46814609F0C5FE9A
:100B0000354C80460146606C09F0F0FB3349606467
:100B1000884202DC3249884200D9616431482E4D56
:100B2000514606782C48803D876C484609F0ADFE5A
:100B3000394609F0B5FE012E1FD056B3022E34D02F
:100B4000E96D09F0A5FD0646616C286E09F0A0FD6F
:100B500007464146D5F8580009F09AFD394609F094
:100B6000C5FB314609F0C2FBC4F8488020641E482A
:100B7000406810F0FF4F24D02AE0A96B09F088FDEF
:100B80000646616CE86B09F083FD07464146686BD9
:100B9000E2E7696C09F07CFD0646616CA86C09F01F
:100BA00077FD07464146286CD6E7296D09F070FDB0
:100BB0000646616C686D09F06BFD07464146E86CBE
:100BC000CAE70A48406810F0FF4F01D10020606476
:100BD000206CBDE8F08700002402002000409C4506
:100BE00000409CC5070000201C0B00202C0B00209F
:100BF0000A480C4902780A4842B1012A06D0022A62
:100C000008D0094A0260094808607047084A026033
:100C10000848F9E7084A02600848F5E7070000209D
:100C20002000002024000020308C0D3E8D976E3E69
:100C3000D589573E9EEF273EA3540A3E713D0A3E9A
:100C4000024610B50020012903D000290BD10A4B20
:100C50000EE0094B0021323B03E05C5C6040491C24
:100C6000C9B29142F9D310BD5C5C6040491CC9B265
:100C70009142F9D310BD0000A00B00202DE9F041F6
:100C80000D4C0A4607460B4E1046216809F000FD40
:100C9000216B09F02BFB0146084809F0F9FC0546D9
:100CA0003146384609F0F4FC294609F01FFB206361
:100CB000BDE8F0810AD7A33CD802002048E17A3F82
:100CC0002DE9F0410D4C0A4607460B4E10462168AF
:100CD00009F0DEFC216E09F009FB0146084809F025
:100CE000D7FC05463146384609F0D2FC294609F0C2
:100CF000FDFA2066BDE8F0810AD7A33CD8020020A7
:100D000048E17A3F70B51448008809F079FC13492E
:100D100009F060FB044612480121C06800F068F841
:100D200010480221C06800F063F80321204600F05B
:100D30005FF8032000F01CF80B4A00210B4B141D38
:100D400006E015686D06FCD55D5C2560491CC9B2DE
:100D50008142F6D370BD0000080000200000C842A8
:100D60001C0B00202C0B002000380140980A0020AA
:100D70000A2839D890B31D4924220B280A7033D28F
:100D8000DFE800F032060A0E12161A1E22272D0086
:100D90000520487106207047092048720A207047D4
:100DA0000D2048730E2070471120487412207047A0
:100DB0001520487516207047192048761A2070476C
:100DC0001D2048771E207047212081F82100222015
:100DD0007047252081F825002620704704E029204F
:100DE00081F829002A20F8E70020F6E7980A002079
:100DF00003B50A2912D8002910D00B290ED2DFE83A
:100E000001F00D06080E10121416181A1C0001220B
:100E100000E005220A49684600F04CFA0CBD0922A0
:100E2000F8E70D22F6E71122F4E71522F2E719227E
:100E3000F0E71D22EEE72122ECE72522EAE7000099
:100E4000980A002070470000F0B513480021007890
:100E500001281FD1114C124A00204FF0937640F226
:100E6000BB254FF4C37700BF00EB400302EB430305
:100E7000D3F802C0A444B44505D91B885B1EAB421D
:100E800001D2491CC9B2401CB842EDDB032901D98B
:100E90000120F0BD0020F0BDC4000020000090BD86
:100EA000281700202DE9F04109F0EFFC1B4C054606
:100EB0000146606A09F01AFA19496062884202DC48
:100EC0001849884200D961622846A16A09F0E8FC05
:100ED000154EF16E09F0DCFB0746616A306F09F0D0
:100EE000D7FB8046B06E294680F0004009F0D0FB69
:100EF000414609F0D5FC394609F0D2FC0B49A56200
:100F00002062496811F0FF4F06D10949496811F084
:100F1000FF4F01D100216162BDE8F0812402002071
:100F200000007A4400007AC4240100201C0B002039
:100F30002C0B00200020401C0A28FCDB704700F02E
:100F400001B800003EB50021144800910191124AF9
:100F50000291026081600173017501244FF46022E7
:100F60000461C261416000F053FE08B100F028F94D
:100F70000720CDE901400F2000906946074800F0A6
:100F8000C3FD08B100F01CF9044800F0B3FF0348AA
:100F900000F04EFD3EBD000000240140680300202B
:100FA00070B5042000F00EFA1F4CE060052000F040
:100FB00009FA20610F2000F005FA60612169E368F9
:100FC00001EBC10202EB011203EB8205C72202FB17
:100FD00000521944084492FBF0F0A061FFF734FF7F
:100FE000124E134D50B113480078D8B15FF0000095
:100FF000FFF7EAFC00203060286070BD0E480068F2
:1010000030600E48007858B1012809D06421A069E9
:1010100000F016F82860BDE870400020FFF7D4BC4F
:101020005C21F4E76420E3E7080100209800002039
:101030009C0000201C000020CC00002007000020A5
:101040002DE9F04707460D46C81B09F0C1FA554C7B
:101050000146E062606B09F049F9534960638842D8
:1010600002DC5249884200D9616351480678E81B86
:1010700009F0AEFA09F070FA4A4D803DAEB3012E88
:1010800050D0022E69D007F067FD09F0B9FA296B3C
:1010900009F0FEFAE16A894609F0FAFA074648467D
:1010A000A16B09F0FDFBA96A09F0F2FA0646616B33
:1010B000E86A09F0EDFA8046D5F82400494680F048
:1010C000004009F0E5FA414609F0EAFB314609F033
:1010D000E7FB394609F0E4FB2063E06AA06335488A
:1010E000406810F0FF4F53D059E0FFE707F034FDA0
:1010F00009F086FA296809F0CBFAE16A894609F015
:10110000C7FA07464846A16B09F0CAFB2A4DA96FEA
:1011100009F0BEFA0646616BE86F09F0B9FA80463D
:10112000686FCBE707F018FD09F06AFA296909F042
:10113000AFFAE16A894609F0ABFA07464846A16B67
:1011400009F0AEFBA96809F0A3FA0646616BE868EE
:1011500009F09EFA80466868B0E707F0FDFC09F0E8
:101160004FFA296A09F094FAE16A894609F090FA7F
:1011700007464846A16B09F093FBA96909F088FA74
:101180000646616BE86909F083FA8046686995E76D
:101190000A48406810F0FF4F01D100206063206BC7
:1011A000BDE8F0872402002000409C4500409CC51B
:1011B000070000201C0B0020240100202C0B002025
:1011C00072B6FEE770B53949394C0F230888208183
:1011D00002462370257831F81560864200D33046E8
:1011E0006D1CEDB225707B2DF4D3208162812370BC
:1011F000257831F81560964200D832466D1CEDB264
:1012000025707B2DF4D310446281C0F34700A07198
:101210002370237831F81350854212D901EB430231
:10122000568886420DD9968886420AD9D688864243
:1012300007D21689864204D25589854201D2A3700D
:1012400004E05B1CDAB22270762AE2D37622627066
:10125000D3B231F81320824212D201EB43025588F7
:1012600085420DD2958885420AD2D588854207D914
:101270001589854204D95289824201D9E37004E07C
:101280005B1EDAB262700F2AE2D8E078A1780844D7
:10129000400860712179401A07F05EFC5A2801D994
:1012A000207960716079207170BD0000080C002009
:1012B0000801002003788B54114443784B708278E6
:1012C0008A70C078C87070472DE9F0478A46814619
:1012D00009F0DBFA344C80460146606909F006F8F3
:1012E00032496061884202DC3149884200D961613B
:1012F0003048314D514606782B488769484609F0F9
:10130000C4FA394609F0CCFA012E1ED0022E28D09C
:101310009EB3E96B09F0BCF906466169286C09F0D7
:10132000B7F907464146A86B09F0B2F9394608F00B
:10133000DDFF314608F0DAFFC4F8188020611F484D
:10134000406810F0FF4F25D02BE0A96C09F0A0F900
:1013500006466169E86C09F09BF907464146686CEE
:10136000E2E7696D09F094F906466169A86D09F034
:101370008FF907464146286DD6E7FFE7296E09F049
:1013800087F906466169686E09F082F907464146A9
:10139000E86DC9E70A48406810F0FF4F01D100200E
:1013A00060612069BDE8F0872402002000007A44D3
:1013B00000007AC407000020240100201C0B00203C
:1013C0002C0B00203EB569460090072002900120BA
:1013D00001900A4800F098FB084800F08BFD1E21A0
:1013E000064800F0E9FC054800F00CFC800503D538
:1013F000024800F009FC84B220463EBD680300208C
:101400003EB56946009007200290012001900A48ED
:1014100000F07AFB084800F06DFD1E21064800F040
:10142000CBFC054800F0EEFB800503D5024800F038
:10143000EBFB84B220463EBD980300202DE9F04727
:10144000054601287DD04421D02002F057FF0446F4
:101450004321D02002F052FF04EB0020694C4621CA
:10146000A082D02002F04AFF06464521D02002F09B
:1014700045FF06EB002020834821D02002F03EFFEC
:1014800006464721D02002F039FF06EB0020E0821B
:101490003C21D02002F032FF06463B21D02002F052
:1014A0002DFF06EB0020E0813E21D02002F026FF38
:1014B00006463D21D02002F021FF06EB002060818E
:1014C0004021D02002F01AFF06463F21D02002F032
:1014D00015FF06EB002000B2A08108F064FB064671
:1014E0000F46B4F90A0008F05EFB32463B4606F0B0
:1014F000AFFDDFF814810022434608F0BBFBDFF8A4
:101500000CA14FF0C0494A46534608F089F908F04B
:101510001BFB2082B4F90C0008F045FB06460F4681
:10152000B4F90E0008F03FFB32463B4606F090FD52
:101530000022434608F09EFB4A46534608F070F9E5
:1015400000E040E008F000FB6082B4F9140008F00D
:101550002AFB2F4E0022334608F062F908F0F4FA15
:1015600000B2A0828046B4F9180008F01CFB0022EB
:10157000334608F055F908F0E7FA264E264F208347
:10158000022D24D0032D1CD1404609F021F8054638
:10159000B4F9100009F01CF82946FFF76FFB80F042
:1015A00000403060B4F9180009F012F80546B4F9AB
:1015B000120009F00DF82946FFF782FB80F0004089
:1015C0003860BDE8F087BDE8F04704F0AFBC4046A6
:1015D00008F0FEFF0546B4F9100008F0F9FF2946AF
:1015E00003F09AF880F000403060B4F9180008F079
:1015F000EFFF0546B4F9120008F0EAFF294603F0B0
:1016000039F9DBE77C00002000806640FB210940BF
:1016100000605040880200208C02002070B505F068
:1016200083FE244A012814D0022838D003283BD155
:101630001078042838D12049087878B30020087041
:10164000002831D1BDE8704040F624111B48FEF758
:10165000C4BE1078401CC3B21370042B17D0184DB1
:101660004FF40044052B16D0062B1DD11549002040
:1016700010700860144908601449486014494860B3
:1016800021462846BDE87040002200F0BEBEBDE8FD
:101690007040FFF754BCFFF7E1F9F1E707E00D48B0
:1016A000017811B10021017070BD0121FBE701201B
:1016B000C5E700007C000020C4000020281700209F
:1016C000000801409C000020980000202C0B002006
:1016D0001C0B0020040000202DE9F041164CA168ED
:1016E000206802F0D5FF08F073FF04F11005606078
:1016F000A968286802F0EEFF08F06AFF68600F48EA
:10170000007808B1072807D1606803F0D1FE606057
:10171000686803F0F5FE6860094E606877423246FB
:10172000394604F09FFB606032463946686804F031
:1017300099FB6860BDE8F0811C0B00207C00002054
:101740000CE5FFFF2DE9FE4F0746744C70480E462E
:101750000090704A7049E06907F050FFE061704AFC
:101760007049206A07F04AFF20626F48714DDFF828
:10177000C08102786D484FF0FF3905F11004012A4D
:101780000AD06D4B86F000411AB1022A01D0032A1B
:101790007DD19F427CD299E068490291B246494688
:1017A000006809F052F908F075FD06468946504672
:1017B00008F070FD07F0F0FE02460B464FF00040C7
:1017C0005F4908F02DF832464B4608F079FC07F0E7
:1017D00039FF83465B4A5C49504607F00FFF0646D7
:1017E00010F0FF4F18D0DFF864915846494609F0D1
:1017F00057F8394608F04CFF594608F0EBFDA86051
:101800004946584608F072FD394608F041FF5946EE
:1018100008F0E0FDA06001E0AF60A7604C493046F1
:1018200008F036FF08F036FD82468B46304608F059
:1018300031FD064600224FF08043019107F09AF9EE
:101840000022444B08F016FA07468946304600222B
:10185000414B019907F08EF94FF000423F4B08F0E1
:1018600009FA3A464B4607F01FFF52465B4608F01E
:1018700027FC00223A4B07F017FF07F0E3FE394937
:1018800009F00EF8029908F003FF374901E01BE068
:101890003CE008F02BFD08F05FFE204F4646414635
:1018A0007862A868009A07F0A9FEA8603146A0688F
:1018B000009A07F0A3FEA06040F698024FF448712A
:1018C000786A07F0ADFE7862BDE8FE8F01683046A9
:1018D00008F0DEFE494609F0B8F88146394608F0BE
:1018E000D4FF0646A8604846394608F0FFFCA060D1
:1018F000474641463046009A07F080FEA8603946C8
:10190000A068009A07F07AFEA060DDE70E46DDE7EA
:10191000000060409A99993F9A9999BF7C000020F5
:10192000920A863F920A86BF07000020240000200A
:10193000000060C01C0B002000008080D7231F44E3
:10194000976EC23F0AD7A33E48E1FABE54E3A53DD5
:10195000E5D0E23FD34DF43F000008409318E4BFC8
:10196000022BF93F4C37C93F0080BB442DE9F041C1
:10197000042004F0B3FB1B4C2060082004F0AEFBF5
:10198000054660601848007828B1012803D0022875
:1019900001D0032807D1206808F01AFE07466842E4
:1019A00008F016FE0646114C3846214608F070FE37
:1019B0000F4909680F4608F06BFE0E4D294608F0E6
:1019C00009FD0D4908602146304608F061FE3946A0
:1019D00008F05EFE294608F0FDFC0749103108605A
:1019E000BDE8F081BC000020070000200000484353
:1019F000200000200000C3441C0B002010B50B2069
:101A0000FFF7FEFC08F0FCFD064908F041FE064920
:101A100008F03EFE054908F03BFE08F0B9FD80B233
:101A200010BD00006740533A000030410000C8423A
:101A3000F8B500250446009590F8240001280BD045
:101A4000012084F824002046FEF70EFE2046FEF713
:101A500037FE060002D050E00220F8BDA06A20F454
:101A6000885040F00200A062022000F075FD254978
:101A70000968B1FBF0F0400000E0401E0090002833
:101A8000FBD12068816841F00801816000F0C2FC50
:101A9000074608E000F0BEFCC01B0A2803D92068F6
:101AA0008068000715D4206880680007F2D4206899
:101AB000816841F00401816000F0ACFC074612E04F
:101AC00000F0A8FCC01B0A280DD9206880684007D8
:101AD00009D5A06A20F0020040F01000A06284F84E
:101AE00024500120F8BD206880684007E8D4A06A2F
:101AF00020F0020040F00100A06284F8245030463B
:101B0000F8BD000030000020F8B50024009490F8E3
:101B100024202546012A12D0012280F824204A6878
:101B20001F23072A0DD20668776B521E02EB820232
:101B300093409F430B6893401F43776319E0022053
:101B4000F8BD06680D2A0AD2376BD21F02EB82025B
:101B500093409F430B6893401F43376309E0F76A44
:101B60000D3A02EB820293409F430B6893401F4360
:101B7000F7620A68072306680A2A0AD3F7680A3A4E
:101B800002EB420293409F438B6893401F43F760F0
:101B900008E0376902EB420293409F438B68934011
:101BA0001F4337610A68102A01D0112A20D1124B35
:101BB00002689A4217D193681B0219D4936843F4C0
:101BC000000393600968102912D10C490C4A096876
:101BD000B1FBF2F101EB8101490000E0491E0091E7
:101BE0000029FBD104E0816A41F0200181620124D7
:101BF00080F824502046F8BD002401403000002029
:101C000040420F00806A70470068C06C7047000057
:101C10002DE9F04104004FF000057FD0A06A0026B6
:101C200028B9E66284F82460204600F081F8204656
:101C3000FEF71AFDA16AC90600D420B1A06A40F0DF
:101C40001000A0626AE0A16A21F4885141F002010B
:101C5000A162334923688B42E16904D1B1F5402F79
:101C600001D14FF40021277B4FF4807C41EA4702E9
:101C700061680A43A168614508D0012906D00021A6
:101C800094F814E0BEF1010F02D00AE06146F7E7D4
:101C9000C7B1A76A47F02007A762E76A47F00107C4
:101CA000E7625F6827F469470F435F6023689968BC
:101CB0001C4F394011439960A16861450BD001293F
:101CC00009D00CE0DFF860E0A7690EEB47370F435F
:101CD00047F40061E5E7218A0D05A5F58015216827
:101CE000CB6A23F470032B43CB62216889680F4BC6
:101CF0001940914208D1E662A16A21F0020141F047
:101D00000101A162BDE8F081A06A20F0020040F06C
:101D10001000A062E06A40F00100E0620120F1E7FB
:101D2000003C0140FDF7E1FF00E0FFFFFE0E1FFF5A
:101D300010B586B0002100910191029103911A4CD7
:101D400003681A4903221A48A34211D18B6943F44C
:101D500000738B618B6903F4007304938B6943F008
:101D600010038B61896901F010010491012113E0D6
:101D7000104CA34215D18B6943F480638B618B694E
:101D800003F4806304938B6943F010038B618969CA
:101D900001F0100104910221CDE90012694600F022
:101DA0002BFA06B010BD00000024014000100240D4
:101DB00000100140002801402DE9F84300270D469E
:101DC0000446009700F026FB804620688168C9051C
:101DD00008D5A06A40F02000A06284F82470012099
:101DE000BDE8F8834168C90503D4C06A10F4700FD8
:101DF0002AD0022000F0B0FB3B490968B1FBF0F6A5
:101E00002068036939490B424FEA61014FEAA11288
:101E10001FD1C3684FEA611C13EA0C0F19D1036983
:101E20000B4225D1C068104222D1142023E0681C47
:101E30000AD02DB100F0EEFAA0EB0800A84203D9B9
:101E400020680068800725D5206800688007EED5E7
:101E50002DE003690B4202D1C168114206D002692C
:101E600023490A4206D1C068084203D1542002E047
:101E7000292000E0FC204643009816E0681C11D0A1
:101E80002DB100F0C7FAA0EB0800A8420AD90098CB
:101E9000B04207D2A06A40F00400A06284F8247027
:101EA00003209DE70098401C0090B042E6D32168D3
:101EB0006FF012000860A06A40F40070A062206811
:101EC0008068C0F3424007280CD1207B50B9A06A3B
:101ED00020F48070A062A06AC00403D4A06A40F01D
:101EE0000100A06200207BE73000002024499224FA
:101EF0004992240070B5044690F8240001280DD0C2
:101F0000012084F824002046FEF7DAFB02004FF09F
:101F1000000005D084F82400104670BD022070BD7A
:101F2000A16A40F20123994341F48071A1621F4DDF
:101F300023681F49AB4218D10E6816F4702F14D0D5
:101F4000A66A46F48016A6620E68760505D5A66ACE
:101F500026F4005646F48056A662A66AF6040AD510
:101F6000E66A26F00606E66206E0A66A26F4801611
:101F7000A6625E68E9E7E06284F824006FF0020080
:101F8000186020688368C3F34243072B05D1A84239
:101F900008D1096811F4702F04D0816841F48011D0
:101FA0008160B9E7816841F4A001F9E700280140A8
:101FB0000424014070B5044690F8240001280DD097
:101FC000012084F824002046FEF77AFB02004FF03F
:101FD000000005D084F82400104670BD022070BDBA
:101FE000A16A40F60163994341F48071A162224DD8
:101FF00023682249AB4218D10E6816F4702F14D012
:10200000A66A46F48016A6620E68760505D5A66A0D
:1020100026F4005646F48056A662A66AF6040AD54F
:10202000E66A26F00606E66206E0A66A26F4801650
:10203000A6625E68E9E7E06284F824006FF00200BF
:1020400018602068436843F0200343602068836879
:10205000C3F34243072B05D1A84208D1096811F404
:10206000702F04D0816841F480118160B4E78168E9
:1020700041F4A001F9E700000028014004240140D8
:1020800010B590F821100022022905D004218163A7
:1020900080F82020012010BD01680B6823F00E039A
:1020A0000B6001680B6823F001030B6090F840306F
:1020B000C46B012101FA03F3636080F8211080F8FA
:1020C0002020104610BD00002DE9F05F90F821108F
:1020D0000024022903D004218163012485E00168E2
:1020E0000A6822F00E020A6001680A6822F0010202
:1020F0000A603F4E3E4FB215DFF8F4C0DFF8F090B3
:10210000DFF8ECA0DFF8E8B0DFF8E4E00168783F42
:1021100013011502ACF1640CA9F15009AAF13C0AB3
:10212000ABF1280BAEF1140E4FF48018B14227D951
:10213000B9420ED0614512D049451DD0514518D045
:10214000594518D0714501D1424615E0294EB1429A
:1021500001D1012210E0274E1436B14201D11022E4
:102160000AE0244E2836B14206D0224A3C3291423F
:1021700001D11A4600E02A461E49091F0A602BE0D9
:10218000B94213D0614517D0494522D051451DD0E1
:1021900059451DD0714501D142461AE0B14202D1E4
:1021A0004FF0807215E0134EB14201D1012210E0D0
:1021B000104E1436B14201D110220AE00D4E2836DD
:1021C000B14206D00B4A3C32914201D11A4600E09E
:1021D0002A46074980394A60012180F821100021F0
:1021E00080F82010416B01B188472046BDE8F09F80
:1021F00080000240080402402DE9F84FDFF8C89142
:102200000024A9F1040B23460F2709F1040AABF1BE
:10221000040ED1E00125A54006EA0502AA4276D1C6
:10222000DFF8A8C14E68A6EB0C0866452BD00DDC84
:10223000032E34D005DC36B3012E19D0022E2FD157
:102240001BE0112E16D0122E2AD119E0B8F5881FE6
:1022500019D006DCB8F5803F15D0B8F5801F1FD126
:1022600011E0B8F5001F0ED0B8F5041F18D10AE030
:10227000CB6815E0CB681B1D12E0CB6808330FE07C
:10228000CB680C330CE08B682BB1012B4FF00803AB
:1022900003D0456104E0042302E0056100E000236F
:1022A000FF2A01D8064601E000F104064FEA840542
:1022B00001D9A5F12005D6F8008007FA05FC28EA27
:1022C0000C0803FA05F548EA0508C6F800804D68D1
:1022D000ED0070D53E4DAE6946F00106AE61AD69C8
:1022E00024F0030605F0010500953A4D06EB050CB8
:1022F000DCF80850A607360F07FA06F825EA0805A5
:10230000DFF8D480404503D14FF0000825E052E0CB
:10231000DFF8C880404502D14FF001081DE0DFF82A
:10232000C080404502D14FF0020816E0DFF8B480CB
:10233000404502D14FF003080FE0DFF8AC80404584
:1023400002D14FF0040808E0DFF8A080404502D138
:102350004FF0050801E04FF0060808FA06F848EAD1
:102360000508CCF808804D68D9F80060ED024D46AC
:1023700001D5164300E096432E604D68DAF8006000
:10238000AD02554601D5164300E096432E604D68D8
:10239000DBF80060AD035D4601D5164300E09643CF
:1023A0002E604D68DEF80060ED03754601D51643DA
:1023B00000E096432E60641C0A681646E2407FF4F3
:1023C00029AFBDE8F88F000008040140000011109B
:1023D000001002400000014000080140000C0140D4
:1023E000001001400014014000180140001C014091
:1023F0008068084000D001207047C26821EA0203CB
:102400000A4043EA0241016170470AB10161704725
:102410000904FBE701488068704700005C03002066
:102420000248816802781144816070475C03002093
:10243000074810B5016841F010010160032000F069
:1024400079F8032000F006F800F024F8002010BD11
:102450000020024070B50D4D04464FF47A71287883
:10246000B1FBF0F00A490968B1FBF0F000F0B2FBF3
:1024700048B9102C07D200222146501E00F03AF82D
:1024800000206C6070BD012070BD00005C03002066
:10249000300000200E4808B5816941F001018161DA
:1024A000816901F001010091C16941F08051C16170
:1024B000C06900F080500090052000F03BF805480E
:1024C000416821F0E06141F00071416008BD000009
:1024D0000010024000000140002809DB00F01F024C
:1024E000012191404009800000F1E020C0F8001176
:1024F00070470000F0B40E4B1B680C46C3F3022378
:10250000C3F10705042D00D90425191D072901D29F
:10251000002300E0DB1E012606FA05F1491E2140DA
:1025200099409E40761E16403143F0BC04F0BCBF7B
:102530000CED00E0064900F0070208684FF6FF03C3
:10254000184040EA0220034A104308607047000028
:102550000CED00E00000FA0510B501460020284C03
:1025600004292FD00BDC012930D0022929D100F019
:102570006BF96168C1F38131491C49001FE00829EA
:1025800020D010291DD161682268D20119D51D48BB
:10259000C1F38342C903805C0AD56168194AC1F35B
:1025A0004041921E515C184AB2FBF1F1484301E0F0
:1025B000164948436168490203D440000321B0FB37
:1025C000F1F010BDBDE8104000F04EB9226AC2F330
:1025D0000121012903D1920701D5C80310BD0229A9
:1025E00005D1626A920702D549F6404010BD032921
:1025F000FCD121688903F9D54FF2244010BD0000B9
:1026000000100240A8B6000800127A0000093D0040
:102610002DE9F84305460078354CC00754D0E069F1
:102620000026C00008D4E06940F08050E061E06915
:10263000012600F0805000902E480168C90512D490
:102640000168804641F480710160FFF7E3FE0746B0
:1026500005E000BFFFF7DEFEC01B642823D8D8F8D2
:102660000000C005F6D5206A10F4407021D0A9887A
:1026700001F4407181421CD0206A1F49012220F4DC
:1026800040700A6000220A602062C00711D0FFF784
:10269000C1FE074641F2883808E000BFFFF7BAFEE6
:1026A000C11B414502D90320BDE8F883206A800799
:1026B000F4D5206A696820F44070084320621EB196
:1026C000E06920F08050E0612878800705D56068D7
:1026D000A96820F44040084360602878C00605D50A
:1026E0006068696920F48000084360600020DBE7CF
:1026F0000010024000700040400442422DE9F047C3
:102700000F46050061D0434E306800F00700B84224
:1027100009D2306820F0070038433060306800F09C
:102720000700B84251D128683B4C810712D54007B9
:1027300003D5606840F4E06060602878000703D546
:10274000606840F4605060606068A96820F0F00044
:10275000084360602878C00728D06868012810D036
:102760002168022810D0890700292EDA616821F03B
:10277000030101436160FFF74DFE804641F2883955
:102780000DE021688903EFE78901EDE7FFF742FEDD
:10279000A0EB0801494502D90320BDE8F087606835
:1027A000696800F00C00B0EB810FEFD1306800F0E9
:1027B0000700B8420BD9306820F00700384330607A
:1027C000306800F00700B84201D00120E5E7287822
:1027D000400705D56068E96820F4E0600843606060
:1027E0002878000706D56068296920F4605040EA1F
:1027F000C100606000F038F86168084AC1F3031155
:10280000515CC8400649086006480068FFF722FE90
:102810000020C2E70020024000100240C6AA0008C3
:102820003000002060030020044805490068496822
:10283000044AC1F30221515CC840704730000020B7
:1028400000100240D6AA00080448054900684968FB
:10285000044AC1F3C221515CC840704730000020D7
:1028600000100240D6AA00080E4A51680E4801F036
:102870000C03042B11D0082B0FD10C48C1F3834358
:10288000C903C05C0AD55168084AC1F34041921E91
:10289000515C054A5043B0FBF1F07047044948438E
:1028A000704700000010024000127A0096B600083F
:1028B00000093D002DE9F84F040070D02078C04D8C
:1028C000C00749D06868C0F38100012807D0686854
:1028D000C0F38100022809D16868C00306D52868C2
:1028E000800339D560680028E7D035E06068B0F52E
:1028F000803F0BD010B1B0F5A02F11D0286820F484
:1029000080302860286820F4802002E0286840F4A5
:1029100080302860606890B1FFF77CFD06460AE0D1
:10292000286840F480202860F0E700BFFFF772FDC0
:10293000801B642873D828688003F7D50CE0FFF764
:1029400069FD064605E000BFFFF764FD801B6428B3
:10295000F0D828688003F7D420789A4E80074FF08B
:1029600001094FF0000839D5686810F00C0F07D046
:102970006868C0F38100022809D16868C00306D4E2
:102980002868800714D52069012808D110E0206943
:10299000B0B1C6F80090FFF73DFD074605E00AE13B
:1029A000FFF738FDC01B0228C4D828688007F7D578
:1029B0002868616920F0F80040EAC10028600DE055
:1029C000C6F80080FFF726FD074604E0FFF722FD6A
:1029D000C01B022823D828688007F7D42078000776
:1029E0002CD57948A169D9B1C0F80090FFF712FD44
:1029F000074604E0FFF70EFDC01B02280FD8686AE7
:102A00008007F7D571484FF4FA510068B0FBF1F038
:102A1000009000BF0098411E0091FAD20EE080E0C5
:102A2000C0F80080FFF7F6FC074604E0FFF7F2FC71
:102A3000C01B022875D8686A8007F7D42078400741
:102A400060D5E8690027C00008D4E86940F08050EC
:102A5000E861E869012700F0805000905C48016857
:102A6000C90513D40168834641F480710160FFF702
:102A7000D1FC824606E000BFFFF7CCFCA0EB0A00C9
:102A800064284ED8DBF80000C005F5D5E0680128C1
:102A90000AD008B1052813D0286A20F00100286266
:102AA000286A20F0040002E0286A40F00100286251
:102AB000E06841F2883B98B1FFF7ACFC82460BE03E
:102AC000286A40F004002862EEE700BFFFF7A2FC8E
:102AD000A0EB0A0159455AD8286A8007F6D50CE0C0
:102AE000FFF798FC824605E0FFF794FCA0EB0A0193
:102AF00059454CD8286A8007F6D41FB1E86920F000
:102B00008050E861E06988B36968C1F381010229F6
:102B100044D00228C6F8608004D0FFF77BFC04464E
:102B200038E034E0FFF776FC074604E0FFF772FC7C
:102B3000C01B02282BD828688001F7D4206AB0F582
:102B4000803F05D16868A16820F4003008436860C0
:102B5000D4E908010843696821F4741108436860E6
:102B6000C6F86090FFF756FC044606E025E000BF7B
:102B7000FFF750FC001B022809D828688001F7D510
:102B80001BE000BFFFF746FC001B022802D9032010
:102B9000BDE8F88F28688001F4D40EE00128F7D052
:102BA0006868226A00F48031914204D1616A00F4BD
:102BB0007010884201D00120EAE70020E8E7000019
:102BC00000100240000042428004424230000020D7
:102BD0000070004010B5401EB0F1807F01D301208D
:102BE00010BD4FF0E02460610F21601704F05CFC21
:102BF0000020A06107202061002010BD70477047B1
:102C000010B590F83C20012A22D0012280F83C2007
:102C1000CA688C6822F4407222434C6822F48062B5
:102C200022430C6822F4006222430C6922F4805291
:102C300022434C6922F400522243C969002322F442
:102C400080420A4301684A6480F83C30002010BD8D
:102C5000022010BD70B590F83C20012A2CD0012430
:102C600080F83C40022280F83D2003685A689D6845
:102C700022F070060A6832435A60104B02689A428A
:102C80000ED00F4B9A420BD0B2F1804F08D00D4BB3
:102C90009A4205D00C4B9A4202D00C4B9A4204D176
:102CA000496825F080031943916080F83D40002178
:102CB00080F83C10084670BD022070BD002C014019
:102CC000003401400004004000080040000C0040B7
:102CD00010B5040003D094F83D0010B107E00120C6
:102CE00010BD002084F83C00204600F01FF80220B0
:102CF00084F83D00211D206804F020F8012084F8AC
:102D0000460084F83E0084F83F0084F8400084F8D0
:102D1000410084F8420084F8430084F8440084F8B9
:102D2000450084F83D00002010BD000008B5006893
:102D30000B49884212D10B48C16941F00801C161B9
:102D4000C069022200F00800009011463220FFF70F
:102D5000D1FBBDE808403220FFF7BEBB08BD000034
:102D6000000C00400010024090F83D10012901D0F5
:102D700001207047022180F83D100168CA6842F0C6
:102D80000102CA6000680E4988420ED00D4988428F
:102D90000BD0B0F1804F08D00B49884205D00B49C9
:102DA000884202D00A49884204D1816801F00701B3
:102DB000062903D0016841F001010160002070473D
:102DC000002C014000340140000400400008004095
:102DD000000C004070B5044690F83C000025012826
:102DE00017D0012684F83C60022084F83D0020685A
:102DF000826822F0770222F47F42826008685028BD
:102E000038D00DDC20284FD005DC90B3102811D12C
:102E10004AE0022070BD302846D040280AD13BE06D
:102E200060282FD070280DD0B0F5805F03D0B0F5AA
:102E3000005F12D0012584F83D60002084F83C003A
:102E4000284670BDCB68D1E90121206803F0D1FF8D
:102E50002068816841F0770109E0CB68D1E9012160
:102E6000206803F0C6FF2068816841F480418160DA
:102E7000E1E719E0CA684968206804F08FF850213A
:102E8000206806E0CA684968206804F0CFF860212D
:102E9000206803F0B8FFCEE7CA684968206804F0EC
:102EA0007DF840212068F4E7226801461046F0E7EB
:102EB0002DE9F0410D46040003D094F83D0018B10F
:102EC00008E00120BDE8F081002084F83C002046A5
:102ED00000F040F8022084F83D002068816844F248
:102EE000070291438160211D206803F027FF2268BB
:102EF00090689169166A2B68AF69034340F203300A
:102F0000814341EA0721A868EF6908434FF6FC4175
:102F10008843E96840EA0720014328692F6A0001D5
:102F200040EA0730084369686D6926F0220646EAE0
:102F30000515294393602268906154F8460B01629D
:102F4000012004F81F09E0752076E0762077A0754F
:102F50000020B7E700B585B00021009101910291F2
:102F60000391224B02682248C0219A421BD1C269B8
:102F700042F00402C261C26902F004020492826952
:102F800042F0080282618069009100F0080004901C
:102F900069461848FFF730F9032201211E20FFF788
:102FA000A9FA1E201DE0144B9A421CD1826942F4FA
:102FB00000528261826902F400520492826942F0F6
:102FC000100282618069009100F01000049069464F
:102FD0000A48FFF711F9032201212C20FFF78AFA92
:102FE0002C20FFF779FA05B000BD00000008004072
:102FF00000100240000C014000340140001001406C
:1030000070B590F83E60044690F83F5090F842301A
:1030100090F84320022021B104290ED0012E1BD1AB
:1030200014E0012E18D1012B16D184F83E0084F84B
:10303000420001220021206820E0012D0CD1012A4C
:103040000AD184F83F0084F8430014E0012D03D135
:10305000012B01D1012A01D0012070BD84F83E006E
:1030600084F83F0084F8420084F8430001220021E4
:10307000206803F0B1FE01220421206803F0ACFEB9
:103080002068016841F001010160002070BD00006E
:103090002DE9F047494C0746002620694FF0010909
:1030A000B0F5C86F0ADD4648017839B980F800905C
:1030B000444806704448067044480670444DAF4288
:1030C0006CD1387F4FF4FA7A04283AD1DFF80481C2
:1030D0004FF0080198F801000028284613D000F0AE
:1030E00047FCD8F80420801AE0606269801A00D595
:1030F0004042504518DD2078401CC0B220700528A1
:1031000012D8E26011E000F033FCC8F8040029682E
:103110000A6A22F400720A6229680A6A42F400729A
:103120000A6288F801900CE02670E0686061286807
:10313000026A22F4007202622868026A026288F857
:103140000160387F082829D1224F4FF00C010C3F35
:10315000787800281E4812D000F00AFC7968401ADE
:103160002061A169401A00D54042504518DD6078C1
:10317000401CC0B26070052812D8216111E000F037
:10318000F7FB78602868016A21F400510162286821
:10319000016A41F40051016287F80190BDE8F087AF
:1031A00066702069A0612868016A21F400510162FB
:1031B0002868016A01627E70F0E70000EC000020E0
:1031C0001D0000200100002000000020020000205F
:1031D000C8030020FC0B00202DE9F041054690F8C3
:1031E0003C0000260C46012810D0012085F83C0048
:1031F00072B1042A1CD0082A2CD00C2A50D00126E7
:10320000002085F83C003046BDE8F0810220FBE755
:10321000D4E90012E368286803F0D2FE28688169C7
:1032200021F00C01816128688169A26811430FE0D7
:10323000D4E90012E368286803F00AFF286881696E
:1032400021F44061816128688169A26841EA022114
:103250008161D5E72868D4E9002C277B036A016ADD
:1032600021F480710162C16923F4007321F003012C
:1032700041EA0C0121F0F00C39074FF400774CEAD9
:10328000116107EA02221A43C16102622868C1691A
:1032900021F00C01C1612868C169A26811432BE0CB
:1032A0002868D4E90021E768036AD0F820C02CF42C
:1032B000805CC0F820C0D0F81CC023F400532CF46C
:1032C000407C4CEA012121F4704C4FF6FF7101EA79
:1032D00007314FF4005741EA0C0107EA02321A4362
:1032E000C16102622868C16921F44061C161286836
:1032F000C169A26841EA0221C16181E710B50400F9
:1033000003D094F83D0010B107E0012010BD00206B
:1033100084F83C00204600F01EF8022084F83D00AE
:10332000211D206803F00AFD012084F8460084F87E
:103330003E0084F83F0084F8400084F8410084F89F
:10334000420084F8430084F8440084F8450084F87F
:103350003D00002010BD704730B50446002551B136
:1033600004290DD0082910D094F8412094F8450084
:10337000012A11D10EE094F83E2094F84200F7E7BC
:1033800094F83F2094F84300F2E794F8402094F832
:103390004400EDE7012801D0012030BD022059B1E1
:1033A000042912D0082919D084F8410084F8450076
:1033B0000C293ED001253AE084F83E0084F8420012
:1033C0002068C26842F0020210E084F83F0084F8EE
:1033D00043002068C26842F0040207E084F840001D
:1033E00084F844002068C26842F00802C2600122EA
:1033F000206803F0F1FC1149206888420ED0104982
:1034000088420BD0B0F1804F08D00E49884205D0D9
:103410000D49884202D00D49884204D1816801F0EB
:103420000701062903D0016841F001010160284627
:1034300030BD2068C26842F01002D7E7002C01407E
:10344000003401400004004000080040000C00402F
:103450002DE9F04104460068C66805694FF0000791
:10346000A90713D5B10711D5F91E016101202077F5
:10347000206880698007204602D0FFF709FE04E03B
:1034800000F0C8F8204600F079F92777680716D5CC
:10349000700714D521686FF00400086102202077BE
:1034A0002068806910F4407F204602D0FFF7F0FDCD
:1034B00004E000F0AFF8204600F060F92777280715
:1034C00015D5300713D521686FF008000861042076
:1034D00020772068C0698007204602D0FFF7D8FD1A
:1034E00004E000F097F8204600F048F92777E80656
:1034F00016D5F00614D521686FF010000861082079
:1035000020772068C06910F4407F204602D0FFF782
:10351000BFFD04E000F07EF8204600F02FF9277789
:10352000E80708D0F00706D021686FF001000861B5
:10353000204600F07FF9280608D5300606D5216818
:103540006FF0800008612046FFF758FB680608D539
:10355000700606D521686FF040000861204600F033
:103560001CFAA8060AD5B00608D521686FF020001D
:1035700008612046BDE8F041FFF741BBBDE8F0819E
:1035800030B585B0002100910191029103911C4B4F
:1035900002681C49022503241B489A420DD18A69FE
:1035A00042F004028A618969039401F004010491E4
:1035B0008115CDE9001569461EE0144B9A421DD1D4
:1035C0008A6942F004028A618A6902F00402049264
:1035D0008A6942F008028A618969039401F008014E
:1035E0000491C021CDE900156946FEF705FECDE93D
:1035F0000045694606480394FEF7FEFD05B030BD60
:10360000002C01400010024000080140000400406E
:10361000000C0140704770B5044690F83C0000264D
:103620000D4601280FD0012084F83C006AB1042A1D
:103630001DD0082A2FD00C2A3FD00126002084F864
:103640003C00304670BD022070BD206803F0E4FBF2
:103650002068816941F0080181612068816921F059
:1036600004018161206881692A69114311E02068A1
:1036700003F002FC2068816941F4006181612068E7
:10368000816921F480618161206881692A6941EA48
:1036900002218161D2E7206803F024FC2068C1691F
:1036A00041F00801C1612068C16921F00401C161D4
:1036B0002068C1692A69114311E0206803F046FCC3
:1036C0002068C16941F40061C1612068C16921F4C9
:1036D0008061C1612068C1692A6941EA0221C16132
:1036E000ACE710B5040003D094F83D0010B107E03A
:1036F000012010BD002084F83C00204600F01EF898
:10370000022084F83D00211D206803F017FB0120F2
:1037100084F8460084F83E0084F83F0084F84000B6
:1037200084F8410084F8420084F8430084F844009F
:1037300084F8450084F83D00002010BD08B50C4A0F
:1037400001680C48914207D1816941F400618161AF
:10375000806900F4006009E0074A914207D1C1691D
:1037600041F00201C161C06900F00200009008BD93
:10377000002C01400010024000040040704700008F
:1037800010B50446022249B104290ED0082913D0ED
:1037900094F84100012816D0012010BD94F83E0095
:1037A0000128F9D184F83E200FE094F83F00012869
:1037B000F2D184F83F2008E094F840000128EBD1D2
:1037C00084F8402001E084F841200122206803F0C1
:1037D00003FB13492068134A884201D0904203D169
:1037E000436C43F400434364206888420DD0904208
:1037F0000BD0B0F1804F08D00B49884205D00B495F
:10380000884202D00A49884204D1816801F0070148
:10381000062903D0016841F001010160002010BDBC
:10382000002C01400034014000040040000800402A
:10383000000C00402DE9F041444988426AD1FEF76E
:1038400095F8FDF7EBFE42490878002558B141484C
:103850000278521CD2B202700A2A02D002780A2AD6
:1038600001D905700D703C4CA078401CC0B2A0700E
:10387000142802D139480570A570207860B301285A
:103880004FD0022850D0032851D0042852D0E078DD
:10389000401CC0B2E07004284FD000D9E570D4E9D4
:1038A0000701FDF74FFF03F0EFFB2D4E06F1100768
:1038B00078B3756040F2DC507D606062786806F035
:1038C0004BFE0446706880F0004006F045FE21463D
:1038D000BDE8F04102F0A6BC6078401CC0B2607048
:1038E0000A2807D10220FDF7A9FD04F0BBFD03F073
:1038F00005FD65701B48007801280CD01A48007837
:1039000001280BD0194800780128C8D102F006FC24
:10391000C5E716E018E0FDF705F8C0E702F046F845
:10392000BDE701F071F8BAE701F02CF9B7E701F053
:10393000EFF9B4E7FDF734FBB1E7E570FDF7BEF84A
:10394000ADE7FDF7C9FEB9E7BDE8F081E804002066
:1039500006000020050000207C0000202800002038
:103960001C0B002001000020000000201D00002092
:103970000246002041B1042909D008290AD00C29A7
:1039800001D11068006C70471068406B7047106878
:10399000806B70471068C06B704770477047704706
:1039A000F8B5016804460868CA684B6910F00F0F43
:1039B0004FF0000559D003F0010602F49077374329
:1039C00065D0C10705D0D10503D5616C41F0010177
:1039D0006164410705D5D90703D0616C41F002014C
:1039E0006164810705D5D90703D0616C41F00401FA
:1039F0006164010707D502F02001314303D0616CF7
:103A000041F008016164616C00293AD0800604D558
:103A1000900602D5204603F092FB20684069616C55
:103A2000C0F38010090700D460B3204603F060FBA8
:103A300020684069400621D52068143050E8001FF6
:103A400021F0400140E80012002AF5D1E06BA8B156
:103A50006D494163E06BFEF737FB002811D0E06B46
:103A6000416B01B0BDE8F040084783060FD59306CF
:103A70000DD52046BDE8F84003F061BB2046FFF7B6
:103A80008EFFF8BD2046FFF78AFF6564F8BD266B00
:103A90002023012E7CD1C6067AD5D60678D50868B3
:103AA0004868009048694FF00206400640D5E16B37
:103AB000086840680004000CE8D0A28D8242E5D975
:103AC000E085886920282DD020680C3050E8001F40
:103AD00021F4807140E80012002AF5D120681430EA
:103AE00050E8001F21F0010140E80012002AF5D142
:103AF0002068143050E8001F21F0400140E8001217
:103B0000002AF5D184F84230256320680C3050E853
:103B1000001F21F0100140E80012002AF5D1E06BEF
:103B2000FEF7AEFA6663A08DE18D401A81B22AE0FD
:103B3000A08DE18D401A81B2E08D0028A6D0002929
:103B4000A4D022680C3252E8000F20F4907042E8B2
:103B50000007002FF5D12068143050E8002F22F024
:103B6000010240E80027002FF5D184F84230256398
:103B700020680C3050E8002F22F0100240E80023AB
:103B8000002BF5D166632046FFF708FFF8BDFFE77D
:103B900005062BD5150629D594F841002128F5D125
:103BA000A068B0F5805F01D12069B0B1206A411CE6
:103BB0002162216800784860E08C401E0004000CFF
:103BC000E084E3D12068C16821F08001C1602068F1
:103BD000C16841F04001C160D8E7206A0088C0F3A5
:103BE00008004860206A801C2062E5E74006CDD5C9
:103BF0005006CBD5CA68204622F04002CA6084F83D
:103C0000413000F079FBC1E7E170000870B50400B5
:103C100004D094F84100002510B106E0012070BDE9
:103C200084F84050204600F023F8242084F8410016
:103C30002068C16821F40051C160204603F0E0FA19
:103C40002068016921F4904101612068416921F0F7
:103C50002A0141612068C16841F40051C160656476
:103C6000202084F8410084F842006563002070BD84
:103C7000F0B585B000240094019402940394076881
:103C80005C495D48DFF868C10D1502220323C614A4
:103C9000674524D1CF6947F40027CF61CF6907F486
:103CA000002704978F6947F010078F61896901F039
:103CB0001001CDE90331CDE9005269460546FEF712
:103CC0009BFACDE90064694628460294FEF794FA0F
:103CD000002211463420FEF70DFC342031E0DFF8DD
:103CE0001CC1674531D1CD6945F48015CD61CD69E1
:103CF00005F4801504958D6945F010058D618D6979
:103D000005F0100504958D6945F020058D618969E0
:103D1000039301F0200104914FF48051CDE900128A
:103D20006946FEF769FA0420CDE900046946344883
:103D30000294FEF761FA012211463520FEF7DAFB04
:103D40003520FEF7C9FB05B0F0BD2E48874226D1CD
:103D5000886940F480408861886900F4804004905C
:103D6000886940F0040088618869274E00F00400EB
:103D700004907815CDE90002694603933046FEF7BA
:103D80003BFACDE90054694630460294FEF734FA16
:103D9000012211462520FEF7ADFB2520D1E71B4867
:103DA0008742D0D1C86940F48020C861C86900F456
:103DB00080200490886940F0080088618869CDE916
:103DC000005200F00800CDE90330114D6946284645
:103DD000FEF712FACDE90064694628460294FEF720
:103DE0000BFA012211462720FEF784FB2720A8E7C3
:103DF000004C004000100240001001400050004004
:103E00000014014000380140000801400048004013
:103E1000000C014090F84230202B01D00220704766
:103E200021B11AB10023036303F046BA01207047A1
:103E30002DE9F84FDFF8F0830126FC4AFC4BDFF850
:103E4000F4C3DFF8F4B3FD4FFD490025DFF8F49328
:103E5000DFF8F4A3FD4C40453FD104F108000078A1
:103E600016700D701D708CF8005021784E467B281E
:103E700009F8010000D029B1491CC8B220700B28F4
:103E800002D021E025701FE02570B07A7D281BD17B
:103E900000210920FCF7D4FE717A884214D13179CF
:103EA000F07803F0DDFACAF800005446317AF07970
:103EB00003F0D6FA01469BF80000012809D0317AB8
:103EC000F07903F0CDFA3860E04901220831D64894
:103ED000F4E1206803F086FAF5E7DFF874834FF029
:103EE000020E40457DD1D948D34F0930DFF86493A5
:103EF0000078606191F800803F78DFF85CA3B8F14A
:103F0000000F0ED0D149DFF83CB30931A0F14102D6
:103F100091F80080ABF1640B072A1CD8403860731D
:103F20006AE0412801D02561C7E02069401C20617A
:103F300005280DD125610E701D7015708CF800508C
:103F4000C649C9F80010012F03D0C549CAF80010AE
:103F5000B3E0C449FAE75A2804D00A2804DC84F8FC
:103F60000D8049E0657347E0BA4ABB4BBE49126811
:103F70001B680093592806D058281FD07B2841D0B1
:103F80007D2846D038E0104606F08AFCB749C9F8CB
:103F90000000884201DAC9F80010012F2CD05746E2
:103FA000009806F077F9B24AB24B06F089F805F0AE
:103FB00049FBB149386088421DDB1DE0104606F020
:103FC00095F9AE49C9F80000884201DDC9F8001032
:103FD000012F11D05746009806F05CF9A44AA54B72
:103FE00000E06FE005F060FB05F02CFB4FF07E5128
:103FF0003860884200DD39606078012803D00228EB
:1040000009D05AE06670A0780BF80080401CA070C0
:1040100053E084F801E09BF803105846502906D07D
:104020004178232940D0A178E170DA4627E0267351
:104030003AE0A178081A05F0B6FD02460B460020CA
:104040008F4904F097FDE77806460AEB070088469B
:1040500010F8010C303805F0A6FD4346324605F055
:1040600009FE06468846A06906F014F93246434622
:1040700005F01AFB05F0E6FA7F1EA061E770E07814
:104080000428D6D29AF80100303802280CD2DFE892
:1040900000F00105A169C9F8001005E07949A0699F
:1040A00006F098F9784908606570A5706548E57074
:1040B00032216438A561FCF7B2F964490122093163
:1040C0006348FBE0DFF8C48140453FD15F480A30D8
:1040D000007816700D701D708CF8005021794E46D6
:1040E0007B2809F8010000D029B1491CC8B2207111
:1040F0000B2802D021E025711FE02571B07A7D28C0
:104100001BD100210920FCF79BFD717A884214D154
:104110003179F07803F0A4F9CAF800005446317AF6
:10412000F07903F09DF901469BF80000012809D0C1
:10413000317AF07903F094F93860444901220A3168
:104140005248BBE0206803F04DF9F5E7504988423A
:1041500069D13E4862790B304E4900784E4B0327B7
:10416000052A51D92A2A25D2B2FBF7F507FB1525D6
:1041700095B1B2FBF7F507FB1525012DE57911D0B7
:1041800005EB450631446D1C0872E571521C6271E5
:10419000A1794140585C8DE0E57905EB450529445E
:1041A000C880F3E705EB45052944CD8805EB0025DC
:1041B000CD80EBE72A3A052A7DD2DFE802F003063C
:1041C0000C0F150048852B218DE04A8D02EB002253
:1041D0004A852C2187E088852D2184E08A8D02EB99
:1041E00000228A852E217EE081F82E00A179884266
:1041F00002D103F0FBFF03E02F212648FCF7EDF886
:10420000A5716571E57156E0062A54D2DFE802F027
:1042100003495A5D6366542840D108706671A079DD
:1042200080F0540045E060E0080600200200002015
:10423000000000201D000020070000209C0000203E
:1042400001000020A00B002098000020D0000020DA
:1042500050060020B4000020B80000200000AF434A
:10426000000092427CD9203F0000C8410000524328
:104270009A9999999999B93F7CD9203E0000484470
:104280000000244000007A44C80000207805002087
:10429000C00500208820002042B500086571A57186
:1042A00009E02C28FAD1487084F805E0A07980F064
:1042B0002C00185CA0710E490E480122BDE8F84F91
:1042C000FFF7A8BD4880677162E74A8802EB0022C9
:1042D0004A80042107E08880052104E08A8802EBF7
:1042E00000228A800621617152E7BDE8F88F000044
:1042F000DB000020C00500207047FEE770B50D46CA
:10430000044600F0DFF8204600F0ACF800F022F997
:10431000284600F0A7F800F01DF900F0D3F8641C5F
:10432000E0B200F09FF800F015F9002000F064F80A
:10433000044600F0EFF8204670BD000070B50D4C4B
:104340000025C4F8B8510C48016821F070410160A3
:10435000016841F040510160C4F8BC51012004F5EE
:10436000DC7402F077FC0120206002F073FC256011
:1043700070BD000000802142040C014000B585B0F2
:10438000002002900A48816941F00801816180693A
:10439000694600F0080004904FF44040009001206E
:1043A0000190032003900348FDF726FF05B000BDF0
:1043B00000100240000C014070B50D4C0025C4F8FF
:1043C000B8510C48016821F070410160016841F06A
:1043D000405101600126C4F8BC61304604F5DC742C
:1043E00002F038FC2660012002F034FC256070BD2C
:1043F00000802142040C01402DE9F0478146174816
:104400000024016821F070410160016841F0004121
:104410000160134E254627464FF00108C6F8B871D3
:10442000022002F017FCC6F8B8816006040ED6F828
:104430003C0108B1641CE4B2022002F00BFC6D1CCC
:10444000EDB2082DEAD3B9F1000F02D0FFF776FFE5
:1044500001E0FFF7B1FF2046BDE8F087040C014002
:10446000008021422DE9F04106461448016821F000
:1044700070410160016841F040510160104C00271B
:10448000C4F8B8713D464FF00108F009C4F8BC010A
:104490007006060E012002F0DDFBC4F8B881012091
:1044A00002F0D8FBC4F8B871012002F0D3FB6D1CF8
:1044B000EDB2082DE9D3BDE8F0810000040C014005
:1044C0000080214270B51148016821F070410160FF
:1044D000016841F0405101600D4C0120C4F8BC015D
:1044E000D4F83C1149B1C4F8B80102F0B3FB00257F
:1044F000C4F8BC51D4F83C0108B1002070BD0120C3
:1045000002F0A8FBC4F8B851012070BD040C0140B2
:10451000008021420D4810B5016821F07041016012
:10452000016841F040510160094C0020C4F8B80115
:10453000C4F8BC01012004F5DC7402F08BFB0120FF
:1045400020606060BDE8104002F084BB040C0140B4
:104550000080214270B513480024016821F07041A9
:104560000160016841F0004101600F4D0126C5F86E
:10457000BC61304602F06EFBC5F8B86107E0641C10
:10458000E4B2322C03D9FFF7C5FF002070BD012033
:1045900002F060FBD5F83C010028F0D1C5F8B80165
:1045A000012070BD040C01400080214210B514466A
:1045B000FFF7A4FE2070012010BDF8B515461C467B
:1045C0000E4607466A46FFF7F1FF01209DF80010EE
:1045D000A8400CB1084301E021EA0000C2B28DF806
:1045E00000203146384600F02BF8F8BD2DE9F8439D
:1045F00014461D460F4680466A46089EFFF7D6FFC2
:1046000000281BD0611CFF20C4F1080200FA01F150
:104610002A44521ED0400143C5F108008640F2B240
:10462000C4F10700C2409DF80000084010438DF817
:104630000000C2B23946404600F002F8BDE8F883F7
:1046400007B502AB012200F001F80EBD2DE9F041E3
:104650001E461546884607460024FFF733FF3846B6
:10466000FFF700FFFFF776FF4046FFF7FBFEFFF77F
:1046700071FF06E0305DFFF7F5FEFFF76BFF641C8E
:10468000E4B2AC42F6D3FFF745FF0120BDE8F0816C
:104690002DE9F04106F0F9F80D4F0546014678681E
:1046A00005F0F6FF07F1800406462846E16E06F0A5
:1046B000F7F8396805F0ECFF314605F017FEA16EFA
:1046C00005F014FEC4E91A05BDE8F04105F044BF49
:1046D000240100202DE9F04106F0D7F80D4F0546E2
:1046E0000146786805F0D4FF07F1800406462846A5
:1046F000A16F06F0D5F8396805F0CAFF314605F01C
:10470000F5FD616F05F0F2FDC4E91D05BDE8F0415E
:1047100005F022BF240100202DE9F34F524D8DB04A
:104720000846E9684F4E089106F0BAF829680091EA
:1047300005F0AEFFA96805F0D9FD05F16404069007
:1047400067683046394606F0ABF8D4F80890494619
:1047500006F0A6F845490860E268904682F00046F7
:10476000434A4E60C1E90262009905F091FF216859
:1047700005F0BCFD83463046009905F089FF0646EA
:10478000394605F0B3FD82463046494605F0AEFD98
:1047900081463748009905F07BFF414605F0A6FDAC
:1047A000804606990D9806F07BF8039059464FF025
:1047B0007E5005F06DFF064649464FF07E5005F0ED
:1047C00067FF049031464FF07E5005F061FF4FF0D7
:1047D0007C5105F08BFD07460146304605F0FAFD99
:1047E00001903946049805F0F5FD009051464FF0D0
:1047F0007E5005F04DFF07463146019805F048FF11
:10480000594606F042F820603946019805F040FF0D
:10481000514606F03AF860603146009805F038FFDE
:10482000494606F032F8A0603946009805F030FF9E
:10483000414606F02AF8E0600399019805F028FF48
:10484000069905F053FDA86004460399009805F009
:104850001FFF089905F04AFDE8600FB02046BDE84B
:10486000F08F00006F12833AD8020020C820002089
:10487000A69B443B2DE9F34F524D8DB00846E96BA2
:104880004F4E089106F00CF82968009105F000FFE2
:10489000A96B05F02BFD05F174040690676830469E
:1048A000394605F0FDFFD4F80890494605F0F8FFB9
:1048B00045490860E268904682F00046434A4E60EF
:1048C000C1E90262009905F0E3FE216805F00EFDE2
:1048D00083463046009905F0DBFE0646394605F072
:1048E00005FD82463046494605F000FD81463748C1
:1048F000009905F0CDFE414605F0F8FC804606998A
:104900000D9805F0CDFF039059464FF07E5005F00D
:10491000BFFE064649464FF07E5005F0B9FE0490B2
:1049200031464FF07E5005F0B3FE4FF07C5105F05C
:10493000DDFC07460146304605F04CFD0190394646
:10494000049805F047FD009051464FF07E5005F069
:104950009FFE07463146019805F09AFE594605F03C
:1049600094FF20603946019805F092FE514605F00B
:104970008CFF60603146009805F08AFE494605F0DC
:1049800084FFA0603946009805F082FE414605F09C
:104990007CFFE0600399019805F07AFE069905F026
:1049A000A5FCA86304460399009805F071FE0899D8
:1049B00005F09CFCE8630FB02046BDE8F08F0000D6
:1049C0006F12833AD8020020D8200020A69B443BD7
:1049D00010B50B4B60B10B4C2168491C2160814222
:1049E00005DB04211846FDF708FD0020206010BDFE
:1049F0000122BDE8104004211846FDF706BD000065
:104A0000001001403C0000202DE9F84F4D480024E3
:104A1000A2460578264627464FF4AF78012D02D0EE
:104A2000032D03D005E04FF4C87001E04FF4FA7095
:104A300080464648DFF810B1D0F800902BE000BF68
:104A400004EB44010BEB4101414AD1F80200414B18
:104A500002449A421ED309880091D9B1414519DA1E
:104A60000AF1010101F0FF0A39494942884202DA9C
:104A70000146304606E03849884206DD374905F0F0
:104A80000FFF314605F032FC06460098C82801D2D7
:104A90007F1CFFB2641C4C45D2DBDFF8C4B0314C44
:104AA0004FF00008BAF1080F11D2E06905F0F2FBEF
:104AB0002D4A5B4604F0F8FD04F0C4FD2B49E0618B
:104AC000884200DBE1614046C4F8208035E0284898
:104AD000DFF8A0904FF4000A012D03D0082F17D95A
:104AE000E061F0E7082FFBD8E06905F0D3FB1E4A30
:104AF0005B4605F0E5FA04F0A5FDE061484501DA02
:104B0000C4F81C90564501DB1B4815E01B4813E018
:104B1000E06905F0BFFB144A5B4605F0D1FA04F0EA
:104B200091FDE061484501DAC4F81C90564501DB6F
:104B3000134801E04FF07E50206280F00040206278
:104B4000BDE8F88F07000020281700200C00002087
:104B50000000B8BD0100530100009B430000B443B6
:104B60009999B93F7C0000209A9999999A99993E10
:104B70009A9999BE9A99193E7CD920BF7CD9203F39
:104B8000000080BF2DE9F0474B4C4D4B4FF0000823
:104B90004FF6FF754246494940F24B47A06A1E68EE
:104BA00012E000BF02EB420301EB4309B9F8003009
:104BB000A3F1650CBC4506D208F10108AB4202D254
:104BC000D9F802001D46521CB242EBDB3D49A062FF
:104BD000884203DD3C4905F063FEA0620746E16AB6
:104BE00005F05EFE39490026884202DC38498842D9
:104BF00005D9A079401CC0B2A0713C2801D1A67192
:104C0000E762B8F1060F0ADA2089282804D2401C8E
:104C100080B2208128283AD3E661266237E02D4809
:104C20002681DFF8B480007801280FD02B48874216
:104C300002DC2B4887421ED9B5F5C87F1BD929490C
:104C4000E06A05F025FDC4E9076020E02648391830
:104C50002648814203D32649394481420BD2B5F517
:104C6000FA7F08D22348E0610021E06AFCF72CFBC0
:104C700080F000400AE0284605F0C2FC4146FCF7FF
:104C800011F9E0610021E06AFCF71EFB2062E06997
:104C900010F0FF4F0DD0184A1849206A04F0AEFCFE
:104CA0002062174A1749E06904F0A8FCE061BDE8FA
:104CB000F087154A1549F0E77C00002028170020EE
:104CC0000C000020000034430000B44300002041E9
:104CD000000020C1070000200000C8430000484237
:104CE000000048C2211FF4BCFFFF8FBEFFFFC301BD
:104CF000FFFF8F3ECDCC4CBE920A063F920A06BF04
:104D00009A99193F9A9919BFDB0FC93FDB0FC9BFA9
:104D10002DE9F047204C244D0021D4E90C021F4B13
:104D20001F4FDFF880C02E6813E000BF01EB410584
:104D300003EB4505D5F80280B844E04508D20AB92E
:104D4000288801222D8800F16408454500D2A94633
:104D5000491CB142EADB4FF07A51E161C4E90C022F
:104D600005F04EFC0546484605F04AFC2946FBF78F
:104D70005BFD0E4980F0004020620978012908D0CF
:104D8000002904D10A4A0B4904F038FC2062BDE82E
:104D9000F087094A0949F7E77C000020281700201E
:104DA000FFFF69BDFFFF03000C000020070000208B
:104DB0007CD9203F7CD920BFDB0F493FDB0F49BFA7
:104DC00010B5FFF7DBFABDE81040AFF3008010B577
:104DD000022000F011F8012000F020F8002000F07F
:104DE00014F8002000F02FF8002000F026F8BDE8AD
:104DF0001040002000F01BB808B5032300900222E9
:104E00006B21D020FFF7F2FB08BD08B5022300900C
:104E100004221C21D020FFF7E9FB08BD08B50223BE
:104E2000009004221B21D020FFF7E0FB08BD0346C1
:104E300001223721D020FFF7C0BB034605226A219B
:104E4000D020FFF7BABB034606226B21D020FFF724
:104E5000B4BB00003EB500241248009401940294B3
:104E60000F498460016004730475012505614FF4E6
:104E700060214460C161FCF7CBFE08B1FCF7A0F9EA
:104E80000A20CDE90005694602940648FCF73CFE7D
:104E900008B1FCF795F90348FCF7CAFD3EBD0000D8
:104EA00000240140680300203EB50024134800940C
:104EB0000194029410498460016004730475012513
:104EC00005614FF460214460C161FCF7A1FE08B1A7
:104ED000FCF776F90B20CDE90005694602940748F6
:104EE000FCF712FE08B1FCF76BF90448FCF7A0FDD3
:104EF0000248FDF75FF83EBD0028014098030020FE
:104F00002DE9F04786B000243F48009401940294B4
:104F10000394816941F010018161816901F0100100
:104F20000491816941F020018161816901F02001D2
:104F30000491816941F004018161816901F00401FA
:104F40000491816941F0080181618069DFF8BC80CA
:104F500000F008000490012244F210314046FDF7B1
:104F600054FA00220C214046FDF74FFADFF8A0A0CA
:104F700000224FF440415046FDF747FADFF8949085
:104F80004FF40047002239464846FDF73EFA012219
:104F900038215046FDF739FAB810CDE900046946CA
:104FA00040460294FDF728F944F21C300125022600
:104FB000CDE90005CDE9024669464046FDF71CF9FA
:104FC000CDE90054694648460294FDF715F94CF2C4
:104FD0003800CDE90005CDE9024669465046FDF7A7
:104FE0000BF900970396CDE9015469464846FDF751
:104FF00003F928028DE8310069465046FDF7FCF8B8
:1050000006B0BDE8F087000000100240001001402B
:10501000000C01400008014010B592B000240F942C
:105020001C2108A81094FBF7FAF920216846FBF729
:10503000F6F92348214901604721C0E9011442F2F1
:105040000F71C0E903148021C0E90541FEF749FB57
:1050500008B1FCF7B5F80F940FA919481094FDF7A3
:10506000F9FD08B1FCF7ACF86020CDE908040A941A
:105070000B940C940D94002208A911480E94FEF78D
:10508000CAFA08B1FCF79CF800944FF40050CDE93F
:105090000440029401940394694609480794FDF77B
:1050A000AFFD08B1FCF78CF800210548FEF768FB5E
:1050B0000348FEF765FA12B010BD0000002C014055
:1050C0001004002010B58AB000242A4A04940594E4
:1050D000069407940894099400940194029403940C
:1050E000C2E902408020146190614FF08043C2E920
:1050F00000311046FDF7ECFD08B1FCF761F84FF404
:105100008050049004A91B48FDF764FE08B1FCF729
:1051100057F81848FEF7F2F808B1FCF751F8089470
:1051200008A914480994FDF795FD08B1FCF748F863
:105130000120CDE900400294082269460D480394FD
:10514000FEF74AF808B1FCF73BF80C22694609481B
:10515000FEF742F808B1FCF733F808210548FEF7DE
:10516000FBF80C210348FEF7F7F80248FDF7FCFDB9
:105170000AB010BDC803002010B58AB000240794FF
:105180001C2168460894FBF74AF92A482849C0E9D7
:10519000001441F61F41C0E9024180210461816190
:1051A000FEF79FFA08B1FCF70BF8079407A921480E
:1051B0000894FDF74FFD08B1FCF702F86020CDE937
:1051C00000040294002269461A480494FEF723FA68
:1051D00008B1FBF7F5FF042269461648FEF71BFAF3
:1051E00008B1FBF7EDFF082269461248FEF713FAF3
:1051F00008B1FBF7E5FF0C2269460E48FEF70BFAF3
:1052000008B1FBF7DDFF00210A48FEF7B9FA0421D7
:105210000848FEF7B5FA08210648FEF7B1FA0C2156
:105220000448FEF7ADFA0348FEF7AAF90AB010BD2C
:10523000000400405804002010B58CB024216846BA
:10524000FBF7EDF800241A48099418490A94C0E9BC
:1052500000144FF6FF71C0E90241802104618161B1
:105260000320CDE900040120CDE902040A210491C4
:10527000CDE90540CDE9074169460D48FDF718FE27
:1052800008B1FBF79DFF099409A909480A94FDF7A5
:10529000E1FC08B1FBF794FF00210548FDF7B0FEE3
:1052A00004210348FDF7ACFE0CB010BD000800401F
:1052B000A004002010B586B0002418480094019482
:1052C0000294039404941449059401603121C0E9C7
:1052D000011441F61F41C0E9031480218161FDF7EB
:1052E000F7FC08B1FBF76CFF4FF480500090694663
:1052F0000A48FDF76FFD08B1FBF762FF049404A9AB
:1053000006480594FDF7A6FC08B1FBF759FF0348D2
:10531000FDF72AFD06B010BD000C0040E804002097
:1053200010B58CB024216846FBF779F800241B489F
:10533000099419490A94C0E900144FF6FF71C0E9B5
:10534000024180210461C0E905410320CDE9000448
:105350000120CDE902040A210491CDE90540CDE9FF
:10536000074169460D48FDF7A3FD08B1FBF728FF8B
:10537000099409A909480A94FDF76CFC08B1FBF7E8
:105380001FFF00210548FDF73BFE04210348FDF700
:1053900037FE0CB010BD0000003401403005002085
:1053A0000E4810B50C4901604FF4E1314160002115
:1053B00081600C22C160C0E904128161C161FEF705
:1053C00025FC08B1FBF7FCFEBDE8104001220449B2
:1053D0000248FEF71FBD0000004C00407805002089
:1053E000DA0000200E4810B50C4901604FF4E1319D
:1053F0004160002181600C22C160C0E9041281611A
:10540000C161FEF703FC08B1FBF7DAFEBDE810400E
:10541000012204490248FEF7FDBC00000050004094
:10542000C0050020DB0000200E4810B50C490160CB
:105430004FF4E1314160002181600C22C160C0E97C
:1054400004128161C161FEF7E1FB08B1FBF7B8FE10
:10545000BDE81040012204490248FEF7DBBC000011
:105460000038014008060020D80000200E4810B582
:105470000C4901604FF416514160002181600C22FB
:10548000C160C0E904128161C161FEF7BFFB08B1D0
:10549000FBF796FEBDE81040012204490248FEF7E2
:1054A000B9BC00000048004050060020D900002090
:1054B00070B502460020104D012100BF55F8213083
:1054C00005EB8104491CC9B244F8043C0A29F5D310
:1054D00000246A6255F8241004F008FF641CE4B24A
:1054E0000A2CF7D3054904F075FF05F035F8BDE83F
:1054F000704005F06DB80000CC0A0020000020418B
:1055000070B502460020104D012100BF55F8213032
:1055100005EB8104491CC9B244F8043C0A29F5D3BF
:1055200000246A6255F8241004F0E0FE641CE4B222
:105530000A2CF7D3054904F04DFF05F00DF8BDE83E
:10554000704005F045B80000F40A0020000020413A
:10555000FEE7FEE710B40021084B0A465FF00000AA
:1055600003EBC004401CC0B262548028F8D3491C2D
:10557000C9B20829F2D310BC00F0B0B898060020D8
:1055800010B57F2816D83F2914D80723A3EBD103E1
:1055900001F00701C1F107040121A140064CDBB273
:1055A00004EBC000002AC25CC9B201D00A4300E08B
:1055B0008A43C25410BD0000980600202DE9F04136
:1055C00016460D4607460024FFF7DAFF3246294605
:1055D0003846FFF7D5FF2819C1B232463846FFF7E3
:1055E000CFFF641CE4B2082CF5D3BDE8F0810000C5
:1055F00010B5394C0020C4F89001642004F5C8743B
:1056000001F00CFB012020600021AE2000F04AF9DF
:105610000021D52000F046F90021502000F042F989
:105620000021A82000F03EF900213F2000F03AF9C7
:105630000021D32000F036F90021084600F032F9AD
:105640000021402000F02EF900218D2000F02AF9E1
:105650000021142000F026F90021202000F022F97A
:105660000021022000F01EF90021A12000F01AF90B
:105670000021C02000F016F90021DA2000F012F914
:105680000021122000F00EF90021812000F00AF91B
:105690000021EF2000F006F90021D92000F002F9E6
:1056A0000021F12000F0FEF80021DB2000F0FAF8E4
:1056B0000021302000F0F6F80021A42000F0F2F8DC
:1056C0000021A62000F0EEF80021AF2000F0EAF85B
:1056D000BDE81040FFF73EBF0080214270B5114E7B
:1056E000002400BF04F1B000C0B2002100F0DAF8DD
:1056F0000021084600F0D6F80021102000F0D2F872
:105700005FF0000506EBC5000121005D00F0CAF85E
:105710006D1CEDB2802DF5D3641CE4B2082CE1D3EE
:1057200070BD0000980600202DE9FF4F203A1F466B
:105730000C46894602F0FF0A0025DDF834B032E05D
:105740000C2F09D01A4901EB0A104FF00008465DF2
:10575000300607D55A4609E016490AEB4A0001EB24
:105760008000F2E7BBF1000F12D000222146009822
:10577000FFF706FF7006641C060EE4B2A4EB0900F6
:10578000B84207D100984C46401CC0B2009008E0D7
:105790000122EBE708F1010000F0FF08B8F1080F63
:1057A000D6D36D1CEDB2BD42CAD3BDE8FF8F000059
:1057B00052AF0008DEAA00082DE9FF4F81B0002695
:1057C000DDF838A01D469346814634464FF0010867
:1057D0004FEA5A0727E0281B401EC1B20A2003F0F7
:1057E000C1F9BBFBF0F00A21B0FBF1F201FB1200A2
:1057F00026B9691E8C4201DA48B101263030C2B2A6
:1058000007FB0490C0B25346CDF8008006E007FBCA
:105810000490C0B253462022CDF800800299FFF7D1
:1058200083FF641CE4B2AC42D5D305B0BDE8F08F71
:10583000F8B516460D460446012714E07A2C02D925
:1058400000241035EDB23A2D03D900242546FFF788
:1058500081FE009732780C2329462046FFF764FF2B
:105860000834E4B2761C30780028E7D1F8BD000097
:1058700070B50A4D0A4E002435F81400317888427C
:1058800001D2012200E0002200212046FFF796FE0F
:10589000641CE4B2802CEFD370BD0000080C002023
:1058A0000E01002070B500250E4A012311B1C2F887
:1058B0008C3101E0C2F88C510B4C0021C4F8B85176
:1058C000060602D5C2F8943101E0C2F89451C4F83A
:1058D000B8314006491C000EC9B20829EED3C2F8FF
:1058E0008C3170BD0080214200002242002004491A
:1058F00002460A54401CC0B20928FAD3704700007F
:10590000C20A00202DE9F84F80460120ADF80000C2
:10591000234F00217970ADF800004FF40079214C3D
:105920000502DFF884A04FF6FF7630E0BDF80000F6
:1059300010EA080F01D0012200E00022494620466B
:10594000FCF763FD012229462046FCF75EFD052099
:1059500001F080F9002229462046FCF756FD05207B
:1059600001F078F9012229462046FCF74EFD294630
:105970005046FCF73DFD20B17878BDF80010084393
:105980007870BDF8000006EA4000ADF80000BDF8F0
:105990000000FF28CAD9BDE8F84F102001F05AB91D
:1059A000C20A002000100140000C01402DE9F05F08
:1059B0005149504809680068C1F18005C0F1800074
:1059C0006FF01301884202DD142800DA00208D42B6
:1059D00002DD142D00DA002504F0FAFD474C0646DE
:1059E0006FF0060AA06B5146834605F02EF831464B
:1059F00004F04EFE0746E06141484FF03C4806780F
:105A00002046012ED0F83C9002D017F1FF4F08D26B
:105A1000284604F0DDFD05464146484604F038FEC0
:105A200007E0284604F0D4FD05465146484605F0F7
:105A30000CF8294604F02CFE324A2062002013683C
:105A40003149324DDFF8C8800B2B0DD00C2B2ED0F6
:105A500060713049384604F0BDFCE061206A80F096
:105A600000402062BDE8F09F23795B1CDBB223710C
:105A7000142BEED110602071584604F037FC01461B
:105A8000A0632548814200DDA063012EE1D0484695
:105A900004F000FC2A46434603F006FE03F0D2FD64
:105AA0004FF07E51E0638842D3DDE163D1E7637953
:105AB0005B1CDBB26371142BCBD110606071584654
:105AC00004F0EEFE0146A0631448814200DAA063B0
:105AD000012EBED0484604F0DDFB2A46434604F0C2
